:1000000021C100000C944C230C9421230C94F62263
:100010000C94CB220C94A0220C9475220C944A22AE
:100020000C941F220C9477230C9477230C94772341
:100030003AC1000038C1000036C1000034C10000E0
:1000400032C1000030C100002EC100002CC10000F0
:100050002AC1000028C1000026C100000C94D5214F
:1000600022C100000C949F210C9475211CC100003A
:100070001AC1000018C1000016C1000014C1000020
:1000800012C1000010C100000EC100000CC1000030
:100090000AC1000008C1000006C100000C94F3234F
:1000A00002C1000000C10000FEC00000FCC0000052
:1000B000FAC00000F8C00000F6C00000F4C0000064
:1000C000F2C00000F0C00000EEC00000ECC0000074
:1000D000EAC00000E8C00000E6C00000E4C0000084
:1000E000E2C000004E414E494E495459494E46CD5A
:1000F000CCCC3D0AD7233C17B7D13877CC2B3295DF
:1001000095E6241FB14F0A000020410000C84200BC
:10011000401C4620BCBE4CCA1B0E5AAEC59D740086
:10012000002100240027002A002D003000330001A8
:10013000010000040107010A0100000A0B02090C7A
:100140000D0E08070304010000000000000000007D
:10015000000000000000000000000000000000009F
:10016000000000000012111000000000000000005C
:10017000000000000000000000000000000000007F
:100180000020002300260029002C002F0032000050
:1001900001000003010601090100002200250028DA
:1001A000002B002E00310034000201000005010880
:1001B000010B0105050505070508080808020202EC
:1001C000020A0A08080404040401010101010101F2
:1001D000010303030303030303040707070C0C0CC9
:1001E0000C0C0C0C0C0202020206060606060606A1
:1001F000060B0B0B0B0B0B0B0B010210202008083E
:100200001020401020408002010201080402010178
:100210000204081020408080402010080402018061
:1002200004020180402010080402010804020101B8
:1002300002040810204080010204081020408000C1
:100240006F25172511241FBECFEFD1E2DEBFCDBF32
:1002500000E00CBF22E1A8E2B9E001C01D92A23586
:10026000B207E1F719E0A0E0B2E0E6E8F4E700E069
:100270000BBF02C007900D92A832B107D9F711E069
:10028000C1E2D1E000E006C021970109802FFE0104
:100290000E94CD37C032D10780E00807A9F70E943D
:1002A000A9270C94323AACCE982F2091300E81E0E1
:1002B000213208F043C080910C0E8111FCCF809157
:1002C0002F0E32E030930C0E90930B0E9FEF909315
:1002D0000A0E1092090E2093080EAFE0BEE0E8EE81
:1002E000FDE090E0291331C01092E70D9091E70DE9
:1002F000880F892B8093E70D8091E60D813049F5B9
:100300001092E60D8091E70D8093BB008091BC00B8
:1003100083FDF8CF85EC8093BC0080910C0E823079
:10032000E1F380910A0E8F3FB1F080910A0E803286
:10033000A1F080910A0E803391F084E010920E0EAD
:100340001092300E10920D0E08953D9131939F5FE3
:10035000C9CF85EEE0CF80E0F1CF82E0EFCF83E040
:10036000EDCF0895089590910C0E9111FCCF91E07E
:1003700090930C0E90930B0E2FEF20930A0E109279
:10038000090E260F2093080E9093E70D9091E70D2C
:10039000880F892B8093E70D8091E60D8130F9F469
:1003A0001092E60D8091E70D8093BB008091BC0018
:1003B00083FDF8CF85EC8093BC0080910C0E8130DA
:1003C000E1F38091090E861710F46091090EA8EEF2
:1003D000BDE0EDEBFCE080E0861303C0089585EE00
:1003E000EACF9D9191938F5FF7CF08958091150B80
:1003F0009091160BA091170BB091180B0196A11DAF
:10040000B11D8093150B9093160BA093170BB0930F
:10041000180B0895FC01248135816217730720F4BD
:1004200080819181009729F41092FD0A8DEF9AE066
:100430000895860F971F08950895DC01ED91FC91B2
:100440000190F081E02D1994DB0114964D915C919F
:1004500015976D917C91DC01ED91FC910280F38107
:10046000E02D1994AF92BF92CF92DF92EF92FF925C
:100470000F931F93CF93DF936C017B018B01040FCC
:10048000151FEB015E01AE18BF08C017D10759F068
:100490006991D601ED91FC910190F081E02DC601AA
:1004A0001995892B79F7C501DF91CF911F910F9194
:1004B000FF90EF90DF90CF90BF90AF900895FC0138
:1004C000538D448D252F30E0842F90E0821B930BB9
:1004D000541710F0CF96089501970895FC01918D5F
:1004E000828D981761F0A28DAE0FBF2FB11D5D9662
:1004F0008C91928D9F5F9F73928F90E008958FEF04
:100500009FEF0895FC01918D828D981731F0828DB7
:10051000E80FF11D858D90E008958FEF9FEF08950E
:10052000FC01918D228D892F90E0805C9F4F821B72
:1005300091098F739927089581E39EE0F1DF21E00F
:10054000892B09F420E0822F0895FC01A48DA80FC7
:10055000B92FB11DA35ABF4F2C91848D90E0019605
:100560008F739927848FA689B7892C93A089B18925
:100570008C91837080648C93938D848D981306C0C6
:100580000288F389E02D80818F7D80830895EF922A
:10059000FF920F931F93CF93DF93EC0181E0888F3D
:1005A0009B8D8C8D98131AC0E889F989808185FF0D
:1005B00015C09FB7F894EE89FF896083E889F989AF
:1005C00080818370806480839FBF81E090E0DF91B1
:1005D000CF911F910F91FF90EF900895F62E0B8D04
:1005E00010E00F5F1F4F0F731127E02E8C8D8E11BF
:1005F0000BC00FB607FCFACFE889F989808185FF27
:10060000F5CFCE01A2DFF2CFEB8DEC0FFD2FF11D68
:10061000E35AFF4FF0829FB7F8940B8FEA89FB896A
:1006200080818062D0CFCF93DF93EC01888D8823C7
:10063000B1F0AA89BB89E889F9898C9185FD03C04D
:10064000808186FD0CC00FB607FCF7CF8C9185FF2B
:10065000F2CF808185FFEDCFCE0177DFEACFDF914A
:10066000CF91089580E090E0892B21F065DF811122
:100670000E94000080E090E0892B49F080E090E04B
:10068000892B29F00E94000081110E94000080E067
:1006900090E0892B49F080E090E0892B29F00E94BE
:1006A000000081110E94000080E090E0892B49F059
:1006B00080E090E0892B29F00E94000081110C94C9
:1006C00000000895282F30E0F901E75CFE4F949177
:1006D000F901E750FE4F44912D543E4FF90124910A
:1006E000222309F435C0992311F191509231F8F485
:1006F000E92FF0E08827E058FC4F8F4F0C94CD375E
:10070000B103B5039203A903AD039703B803BE0376
:10071000C203C803CC03D003D603DA039703DE0376
:10072000E403E803809180008F7780938000E22FBC
:10073000F0E0EE0FFF1FE756FE4FA591B4918FB783
:10074000F894EC91611148C040954E234C938FBFB3
:100750000895809180008F7DE8CF80918000877F11
:10076000E4CF84B58F7784BDE2CF84B58F7DFBCF96
:100770008091B0008F778093B000D9CF8091B00086
:100780008F7DF9CF809190008F7780939000CFCFAD
:10079000809190008F7DF9CF80919000877FF5CF79
:1007A0008091A0008F778093A000C1CF8091A0009E
:1007B0008F7DF9CF8091A000877FF5CF80912001B8
:1007C0008F7780932001B3CF809120018F7DF9CF67
:1007D00080912001877FF5CF4E2BB8CF1092E50D89
:1007E0001092E40D10920E0E1092300E10920C0E1C
:1007F00081E080930B0E1092E60D61E084E162DFF0
:1008000061E085E15FDFE9EBF0E080818E7F80834E
:1008100080818D7F808388E48093B80085E4809315
:10082000BC0081EB91E09093E30D8093E20D82EBAD
:1008300091E09093E10D8093E00D0895CF93DF93C5
:1008400090E0FC01E750FE4F24918D549E4FFC0137
:1008500084918823D1F090E0880F991FFC01E15E1C
:10086000FE4FA591B491FC01E756FE4FC591D4917E
:1008700061110EC09FB7F8948C91E22FE0958E2302
:100880008C932881E223E8839FBFDF91CF91089565
:100890008FB7F894EC91E22BEC938FBFF6CF3FB774
:1008A000F8948091F90A9091FA0AA091FB0AB0910C
:1008B000FC0A26B5A89B05C02F3F19F00196A11D83
:1008C000B11D3FBFBA2FA92F982F8827BC01CD019A
:1008D000620F711D811D911D42E0660F771F881FF9
:1008E000991F4A95D1F708958F929F92AF92BF9228
:1008F000CF92DF92EF92FF924B015C01D0DF6B0150
:100900007C01CDDF6C197D098E099F09683E73401B
:1009100081059105B0F321E0821A9108A108B10880
:1009200088EEC80E83E0D81EE11CF11C81149104EE
:10093000A104B10431F7FF90EF90DF90CF90BF900A
:10094000AF909F908F9008952FB7F8946091F50A1B
:100950007091F60A8091F70A9091F80A2FBF0895D6
:100960002091DF0C3091E00C2817390771F4909139
:10097000DD0C8091DE0C981741F0E091DD0CF0E089
:10098000EC54F54F808190E008958FEF9FEF08952C
:100990000895EF92FF920F931F93CF93DF93DC01A3
:1009A0005C96ED90FC905D97E114F10479F481E0A0
:1009B00090E013969C938E93129790E080E0DF91E5
:1009C000CF911F910F91FF90EF9008955196ED9167
:1009D000FC91529750968C915097982F90950FB705
:1009E0005E962C915E97122F127021FD6095F894FF
:1009F0002081112319F1282B2083E7012197F1F79A
:100A000028E0462F50E0308160FF1AC0382B308339
:100A1000E7012197F1F7BA0175956795215089F79C
:100A2000112381F08081892380830FBF5C968D9193
:100A30009C910197F1F781E090E0C1CF2923DCCFB1
:100A40003923E5CF9081892BEFCF2091DF0C3091B6
:100A5000E00C2817390769F48091DE0C2091DD0C39
:100A600090E0805C9F4F821B910960E470E00C94E1
:100A70007C3790E080E008952091DF0C3091E00C0D
:100A800028173907B9F49091DD0C8091DE0C981786
:100A900089F0E091DD0CF0E0EC54F54F808120917D
:100AA000DD0C30E02F5F3F4F2F7333272093DD0C99
:100AB00090E008958FEF9FEF0895E091DF0CF091A3
:100AC000E00CE817F90769F4A389B4899C9185893A
:100AD000809589238C931092E00C1092DF0C81E0BA
:100AE000089580E008959B01AC01109225101092AA
:100AF00024101092231010922210109221101092A4
:100B0000201060E079E08DE390E00E94B137C901E8
:100B1000039790932710809326108091161096EFDC
:100B2000980F943048F06EEC680F643028F062EC57
:100B3000680F683008F06EC0B9017695679563510B
:100B400071097093211060932010B90165507109EB
:100B50007093231060932210B901660F771F260F40
:100B6000371F36952795369527952C5031093093A8
:100B7000251020932410943050F02EEC280F2430B0
:100B800030F022EC280FF0E0E0E0283010F4E8E646
:100B9000F0E02081943028F032EC380F383008F43F
:100BA00063C031E0232B943048F09EEC980F9430D2
:100BB00028F08E53F0E0E0E0883010F4E8E6F0E052
:100BC00020832091161036EF320F343008F44EC0D7
:100BD0008EEC820F843008F449C082EC820F88309A
:100BE00008F447C090E080E090931E1080931D10A1
:100BF000343008F041C02650330B81E001C0880F2B
:100C00002A95EAF780931F10809126109091271063
:100C10000197F1F78091241090912510892B19F1FB
:100C20008091DF0C9091E00C20E18A309207D9F09E
:100C3000009709F042DF809128108E7F8093281062
:100C40001092DE0C1092DD0C8AE090E19093E00CA3
:100C50008093DF0CE0911D10F0911E108081909127
:100C60001F10892B8083089534E09CCF8BE690E0A1
:100C7000BBCF8DE690E0B8CF88E0223309F4C2CF35
:100C800084E0233309F4BECF82E0243309F4BACFE1
:100C900082EC820F883018F42E53330BAECF81E0F4
:100CA000B1CFDC01ED91FC910284F385E02D199523
:100CB0000895DC01ED91FC910190F081E02D1995F2
:100CC000089564EF71E080E090E00ECE87CD85ED71
:100CD0008093BC008091BC0084FDFCCF10920C0E70
:100CE00008952091910A260F3327331F21323105B1
:100CF000ECF420910C0EFC0190E080E0243069F0CF
:100D000082E00895A091910A2191AC014F58554F6E
:100D1000A40FB52FB11D2C930196861798F38091DF
:100D2000910A680F6093910A80E0089581E0089528
:100D3000E091E50D8091E40DE81730F4F0E0E35424
:100D4000F34F808190E008958FEF9FEF0895909189
:100D5000E50D8091E40D2FEF3FEF981748F4E92F50
:100D6000F0E0E354F34F208130E09F5F9093E50D76
:100D7000C90108958091E40D9091E50D891B990BAF
:100D80000895CF92DF92EF92FF920F931F93CF932C
:100D9000DF937C01CB018A0120910D0E222389F083
:100DA000EB016B01C40ED51ECC15DD0561F0699118
:100DB000D701ED91FC910190F081E02DC7011995CB
:100DC000F3CF642F8EDFC801DF91CF911F910F9178
:100DD000FF90EF90DF90CF900895CF93DF931F9215
:100DE000CDB7DEB7698320910D0E2223F9F0209153
:100DF000300E203258F021E030E0FC0133832283B2
:100E000090E080E00F90DF91CF91089580910E0ED9
:100E1000E82FF0E0E15FF14F998190838F5F80933D
:100E20000E0E8093300E81E090E0ECCF61E0CE01B9
:100E3000019657DFF8CFFC01248131E030930D0E8D
:100E400020932F0E10920E0E1092300E8385682B79
:100E50008FE29FE0C2DF81E027CA90E080E0089542
:100E600080339CF08A3324F08F3524F08B3724F4C0
:100E700081E0089581344CF08B35D4F393ED980FD5
:100E800081E09230B0F380E008958B32B9F7F0CF73
:100E9000FC01A081B1818C918D3021F03CF489500E
:100EA0008230A8F51196B183A083F3CF8032D1F3BD
:100EB0008F3209F0089511968C9111978A3219F0AA
:100EC0008F32C1F008951196B183A083A081B181C2
:100ED000CD0101969183808311968C91119788237F
:100EE000B1F08A3299F712968C9112978F3271F77E
:100EF0001396D9CFA081B181CD01019691838083D2
:100F000011968C91882319F08A30A1F7C2CF0895E9
:100F10001F93CF93DF93EC01162FBADFE881F9819D
:100F20008081181308C03196F983E88381E0DF914E
:100F3000CF911F91089580E0FACFFC01A081B1818B
:100F40008C918D3021F03CF489508230A8F51196B7
:100F5000B183A083F3CF8032D1F38F3209F00895AB
:100F600011968C9111978A3219F08F32C1F0089541
:100F70001196B183A083A081B181CD0101969183A7
:100F8000808311968C9111978823B1F08A3299F75A
:100F900012968C9112978F3271F71396D9CFA08148
:100FA000B181CD0101969183808311968C91882324
:100FB00019F08A30A1F7C2CF08951F93CF93DF9322
:100FC000EC01162FBADFE881F9818081181308C07F
:100FD0003196F983E88381E0DF91CF911F910895E5
:100FE00080E0FACFEF92FF921F93CF93DF93EC0153
:100FF000EC80FD8002964CDFEA81FB811081173284
:1010000011F0123259F53196FB83EA83EA81FB81B4
:1010100080818823C1F19F012F5F3F4F3B832A834B
:10102000181789F18C3579F48181AEEEB2E09C918C
:10103000992321F0891310C011968C91882319F1FE
:101040003296FB83EA83EC81FD819F012F5F3F4F46
:101050003D832C838083DACF1296E9CF812F00DF86
:10106000EC81FD819F012F5F3F4F882361F08A81D2
:101070009B8101969B838A833D832C831083EA8125
:10108000FB811081EBCFEC81FD81CF0101969D8327
:101090008C831082C701DF91CF911F91FF90EF9059
:1010A0000895CF92DF92FF920F931F93CF93DF9318
:1010B0008C01DC011496CD91DC91CA80DB808E819D
:1010C0009F81C80ED91EC801029637DFD80112963B
:1010D000ED91FC91F080B7E2FB1619F082E2F81274
:1010E00041C03196D8011396FC93EE931297D80124
:1010F0001296ED91FC9113978081882309F453C0D7
:101100009F012F5F3F4F13963C932E931297F81633
:1011100009F449C08C3591F48181AEEEB2E09C9126
:10112000992321F089131CC011968C918823D9F141
:101130003296D8011396FC93EE9312974E815F81FD
:101140009A012F5F3F4F6C817D816217730778F2A0
:10115000EA81FB81E40FF51F3F832E838083C7CF95
:101160001296DDCF8F2D7CDE4E815F819A012F5F3D
:101170003F4F6C817D818823B1F0F801828193819A
:101180000196938382836217730738F0EA81FB81AB
:10119000E40FF51F3F832E83F082D8011296ED9164
:1011A000FC91F080DFCF2E813F81C90101964C81F7
:1011B0005D814817590780F0EA81FB81E20FF31F38
:1011C0009F838E831082C601DF91CF911F910F9173
:1011D000FF90DF90CF900895D12CC12CF4CFAF9227
:1011E000BF92CF92DF92EF92FF920F931F93CF9314
:1011F000DF935C017B01FC0114810581C12FD02F9D
:10120000FB01C480D58060E38AE090E1C2DBBE01CF
:101210006C0D7D1D6E5F7F4F8AE090E1BADB60E070
:10122000CF3FD1050CF0602F8AE090E1B2DB612F57
:101230008AE090E1AEDB10E000E00C171D075CF4E3
:10124000B801C501E7D8FC0160818AE090E1A1DB2B
:101250000F5F1F4FF2CFD0E0C0E0CC15DD0554F496
:10126000BE01C701D7D8FC0160818AE090E191DB23
:101270002196F3CFDF91CF911F910F91FF90EF90C7
:10128000DF90CF90BF90AF900895EF92FF920F93B1
:101290001F93CF93DF937C01FC0114810581C12F43
:1012A000D02F62E88AE090E174DBBE016B5F7F4F74
:1012B0008AE090E16EDB60E08AE090E16ADB6AE060
:1012C0008AE090E166DB60E0CF3FD1050CF0602F53
:1012D0008AE090E15EDB612F8AE090E15ADB10E06A
:1012E00000E00C171D075CF4B801C70193D8FC019E
:1012F00060818AE090E14DDB0F5F1F4FF2CF60E02D
:101300008AE090E1DF91CF911F910F91FF90EF90D4
:1013100040CB60E18AE090E13CDB6CE08AE090E168
:1013200038DB60E08AE090E134DB64E08AE090E161
:1013300030DB6DE48AE090E12CDB61E58AE090E14E
:1013400028DB64E58AE090E124DB64E58AE090E153
:1013500020DB64E08AE090E11CDB62E08AE090E15F
:1013600018DB60E08AE090E114DB6FE08AE090E156
:1013700010DB60E08AE090E10CDB60E08AE090E165
:1013800008CBFC0186819781680F791F2481358104
:101390002617370738F022813381820F931F778316
:1013A0006683089590E080E0089580913809811166
:1013B0000BC010923509109234091092370910921F
:1013C000360981E08093380984E399E0089580919B
:1013D0002C0981110BC01092290910922809109232
:1013E0002B0910922A0981E080932C0988E299E068
:1013F0000895DB01109749F0ED91FC911197019050
:10140000F081E02DBC01CD01199490E080E00895B9
:101410000F931F93CF93DF93EC018B016881798148
:1014200088E090E0E6DFDC01892B39F011961C9210
:101430001E9213961C921E921297EA81FB8130979E
:1014400021F4BB83AA8307C0FC01808191810097AE
:10145000D9F7B183A08380E0109741F086E0F801CE
:10146000129601900D928A95E1F781E0DF91CF917C
:101470001F910F910895CF93DF93EC0168817981DB
:101480008AE090E0B6DF009729F0FC01118210821B
:1014900015821482EA81FB81309721F49B838A8331
:1014A00008C0F9012081318121153105D1F79183DF
:1014B0008083DF91CF910895CF93DF93EC01BC013E
:1014C00084E090E096DF009741F0FC01D183C08377
:1014D00013821282DF91CF910895DF91CF9165CF72
:1014E000CF93DF93EC01BC0184E090E082DF0097B2
:1014F00041F0FC01D183C08313821282DF91CF912E
:101500000895DF91CF9163CF0F931F93CF938C01F9
:10151000C62F91DC6C2F6460C8018DDC6C2F6B7F53
:10152000C80189DC83EC90E00197F1F7CF911F911E
:101530000F9108950F931F93CF93DF938C01D62FB4
:10154000C42F607F642BE0DF80E1D89FB0011124BD
:101550006C2BC801DF91CF911F910F91D5CF40E047
:1015600061E080E49FE0E6DF8BE39FE10197F1F724
:101570000895CF93DF9300D000D01F921F92CDB774
:10158000DEB798E0E0E2F2E0DE01119601900D9204
:101590009A95E1F79091480F961710F46FEF690F45
:1015A000262F30E0220F331F41E050E04C0F5D1F2B
:1015B000240F351FF9016081680F606840E080E406
:1015C0009FE028960FB6F894DEBF0FBECDBFDF9127
:1015D000CF91B0CF41E0AEDF81E090E008956F920F
:1015E0007F928F929F92AF92BF92CF92DF92EF92B3
:1015F000FF920F931F93CF93DF9300D000D0CDB70E
:10160000DEB78C01B62EA72E742E690186E0E8E2C3
:10161000F2E0DE01119601900D928A95E1F7F12C2E
:10162000E12C66E084E20E94B3011092E50D809304
:10163000E40D811111C061E070E080E090E054D9C8
:101640008FEFE81AF80AC114D10459F3CE14DF045D
:1016500040F78FEF9FEF0EC0F8018281938121DB6D
:1016600080FFE9CFF801828193811BDB882331F170
:101670008DEF9FEFF12CE12C98E0992E980E692DBB
:10168000F0E2F91508F460E284E20E94B3011092DE
:10169000E50D8093E40D811142C061E070E080E0CF
:1016A00090E022D98FEFE81AF80AC114D10439F377
:1016B000CE14DF0420F78FEF9FEF3FC0F801828147
:1016C0009381EFDA8111D4CFF80182819381E9DA35
:1016D0008F3F71F6F80182819381E3DA682E81E011
:1016E00080930D0E84E280932F0E10920E0E1092B6
:1016F000300ECE0101967C014E0197E0890E911CBF
:10170000F70161917F01F80182819381D2DAE814B7
:10171000F904B1F781E00E945401862DABCFF801A6
:1017200082819381BEDA80FFB8CFF80182819381F4
:10173000B8DA8823B9F08DEF9FEF26960FB6F894AC
:10174000DEBF0FBECDBFDF91CF911F910F91FF90F4
:10175000EF90DF90CF90BF90AF909F908F907F9051
:101760006F900895F801828193819BDA8111E3CF14
:10177000F8018281938195DA8F3FE9F6F801828141
:1017800093818FDAF82EF801828193818ADA8F0DA6
:1017900091F6F801E480DD24D394DE0C82819381FC
:1017A00080DA853D41F6F801828193817ADAD81298
:1017B000C2CFFA94FA948CEF9FEF7F1408F4BDCF58
:1017C000F6EDEF0E9B2CCB2CDA2CF8018281938165
:1017D0002C2D29192F1530F464DAF60181936F014D
:1017E000E80EF3CF5EDA8E0D09F0A5CFF801828105
:1017F000938157DA8F2D90E0A0CFFB01019000205C
:10180000E9F73197AF01461B570BDC01ED91FC91D5
:101810000280F381E02D19946CE975E081E39EE08C
:10182000ECCFCF93DF93BC0181E39EE00E942402C2
:10183000EC01F2DF8C0F9D1FDF91CF9108958F9205
:101840009F92AF92BF92EF92FF920F931F93CF930D
:10185000DF93CDB7DEB7A1970FB6F894DEBF0FBE0A
:10186000CDBF7C01FA01CB0119A2223008F42AE095
:101870008E010F5D1F4F822E912CB12CA12CBF0128
:10188000A50194010E948F37F901CA016A3004F55D
:10189000605DD8016E938D01232B242B252B79F7C6
:1018A00090E080E0109719F0BD01C701A6DFA19676
:1018B0000FB6F894DEBF0FBECDBFDF91CF911F9161
:1018C0000F91FF90EF90BF90AF909F908F900895F1
:1018D000695CDFCFCF93DF93BC0181E39EE08DDFB6
:1018E000EC019ADF8C0F9D1FDF91CF9108952F920D
:1018F0003F924F925F926F927F928F929F92AF92A0
:10190000BF92CF92DF92EF92FF921F93CF93DF931C
:10191000EC016A017B01722EAB019601CB01B6018D
:101920000E94783769EF72E0811126C046015701A5
:10193000E894B7F82FEF3FEF4FE75FE7C501B40139
:101940000E94783781110CC02FEF3FEF4FE75FE720
:10195000C501B4010E9441356DEF72E0181664F0C4
:101960002FEF3FEF4FE75FE4C701B6010E947437E6
:101970001816ACF461E073E0CE01DF91CF911F91B6
:10198000FF90EF90DF90CF90BF90AF909F908F909F
:101990007F906F905F904F903F902F902ECF2FEFC2
:1019A0003FEF4FE75FECC701B6010E94413587FD6D
:1019B000E1CF20E030E0A901C701B6010E94413526
:1019C000312C212C87FF09C06DE2CE010E941D023F
:1019D0001C01F7FAF094F7F8F09410E060E070E082
:1019E00080E09FE3711641F020E030E040E251E4F6
:1019F0000E94DB361F5FF6CFA70196010E94773663
:101A00002B013C010E9448374B015C012AE0BC01DC
:101A1000A401CE0114DF7C01E20CF31C1123B9F107
:101A2000C501B4010E9445359B01AC01C301B2015F
:101A30000E9476364B015C016EE2CE010E941D02CF
:101A4000E80EF91E115018F120E030E040E251E4B8
:101A5000C501B4010E94A6352B013C010E94483704
:101A60004B01B12CA12C2AE0B501A401CE01E7DE87
:101A7000E80EF91EC501B4010E9445359B01AC0179
:101A8000C301B2010E9476364B015C01DBCFC70176
:101A9000DF91CF911F91FF90EF90DF90CF90BF909B
:101AA000AF909F908F907F906F905F904F903F90FE
:101AB0002F9008956115710509F09FCE90E080E0A8
:101AC0000895CF93DF934BDD1092DF0D65E073E057
:101AD00081EE9CE00E948D33EC01892B91F06091A6
:101AE000DF0D80E046DDBE0180E49FE0E3DF809112
:101AF000DF0D8F5F8093DF0D65E073E090E080E0A5
:101B0000E9CFDF91CF9108952ADD60E080E031DDFB
:101B100067E073E080E49FE0CDDF61E080E029DDF5
:101B200064E173E080E49FE0C5CF19DD60E080E010
:101B300020DD65E273E080E49FE0BCDF61E080E0EF
:101B400018DD66E373E080E49FE0B4CF08DD60E079
:101B500080E00FDD6DE373E080E49FE0ABCFFFDC5E
:101B600060E080E006DD6EE473E080E49FE0A2DFE9
:101B700061E080E0FEDC61E673E080E49FE09ACF04
:101B8000EEDC60E080E0F5DC68E673E080E49FE096
:101B900091DF61E080E0EDDC6AE773E080E49FE0E4
:101BA00089CFDDDC60E080E0E4DC6AE873E080E4BB
:101BB0009FE080CFD4DC60E080E0DBDC67E973E0AD
:101BC00080E49FE077CFFC0180819181009711F044
:101BD0000C94673360E070E0CB0108950F931F937E
:101BE000CF93DF938C01EB01FC0180819181009701
:101BF000E1F06881798161157105A9F04281538115
:101C00002C813D814217530770F00E941C3A8C8151
:101C10009D81F801958384831D821C82DF91CF9181
:101C20001F910F9108950E94983888819981F80139
:101C3000918380838A819B81938382838C819D8120
:101C400095838483198218821B821A82E5CFCF93F1
:101C5000DF93EC0188819981009711F00E949838F8
:101C6000198218821D821C821B821A82DF91CF91F9
:101C70000895FC0180819181009711F00C949838AF
:101C800008950F931F93CF93DF93EC01888199817F
:101C9000009759F02A813B812617370730F081E001
:101CA000DF91CF911F910F9108958B016F5F7F4F4F
:101CB0000E942139009759F0998388831B830A83F6
:101CC0002C813D81232B59F7FC011082E8CF80E065
:101CD000E7CFEF92FF920F931F93CF93DF9361159E
:101CE000710541F480E0DF91CF911F910F91FF903A
:101CF000EF90089541155105A9F07B01EC010C818D
:101D00001D81040F151FB801BCDF882359F32881FA
:101D100039818C819D81B701820F931F0E941C3AEB
:101D20001D830C8381E0DFCFCF93DF93EC01FB01B8
:101D300001900020E9F73197AF01461B570BC9DF2F
:101D4000811102C0CE0183DFCE01DF91CF910895D2
:101D5000CF93DF93EC01FB01448155816081718158
:101D6000B8DF811102C0CE0172DFCE01DF91CF91C9
:101D70000895CF93DF931F921F92CDB7DEB769838B
:101D80001A8241E050E0BE016F5F7F4FA2DF0F90EB
:101D90000F90DF91CF910895CF93DF93EC01E8810D
:101DA000F98180819181E5DF8A819B8101969B8306
:101DB0008A83DF91CF910895EF92FF920F931F9343
:101DC000CF93DF93EC01E880F980D7018D919C914E
:101DD000FC01048115816115710549F0FB01019039
:101DE0000020E9F73197AF01461B570B72DFD7018F
:101DF000ED91FC91848195812A813B81820F931F13
:101E0000801B910B9B838A83DF91CF911F910F9150
:101E1000FF90EF9008950F931F93CF93DF93CDB76B
:101E2000DEB766970FB6F894DEBF0FBECDBF9C013C
:101E3000CB011E8AFE0176960AE010E0B8010E94EE
:101E40007C37805D8293CB010097C1F7BF01C90148
:101E5000B3DF66960FB6F894DEBF0FBECDBFDF913D
:101E6000CF911F910F910895FF920F931F93CF93DE
:101E7000DF936115710541F46BEA73E0DF91CF9157
:101E80001F910F91FF9098CF8B01EC0162E2CE0180
:101E900083DFF80161918F01662351F0EAEEF2E0F1
:101EA000F080FF20A1F38181681751F03296F8CFBE
:101EB00062E2CE01DF91CF911F910F91FF906CCF25
:101EC0006CE5CE0169DF6F2DE2CF0F931F93CF93A7
:101ED000DF938C01EB016BE7CE015EDFF80102813D
:101EE000138101151105B1F0F80162817381CE01F2
:101EF000BBDF6AE3CE0150DFBE01C801049611D0FA
:101F0000F801008111810115110521F06CE2CE016B
:101F100043DFE7CF6DE7CE01DF91CF911F910F91A6
:101F20003BCF2F923F924F925F926F927F928F9210
:101F30009F92AF92BF92CF92DF92EF92FF920F9358
:101F40001F93CF93DF93CDB7DEB76C970FB6F8949E
:101F5000DEBF0FBECDBFDC01ED91FC911197319733
:101F6000E830F10508F0D2C11B018C018827E45448
:101F7000F04F8F4F0C94CD37D311CD11FB11DC11E5
:101F8000D911A911C811C40FFD014280538064808A
:101F90007580A3019201C301B2010E9441356BEB30
:101FA00073E0811103C220E030E0A901C301B20156
:101FB0000E94413587FF07C06DE2C101EDDE77FA6F
:101FC000709477F8709420E030E0A901C301B20169
:101FD0000E944135882389F0A3019201C301B20117
:101FE0000E9477369B01AC01C301B2010E944135CA
:101FF0006FEB73E0882309F4D9C120E836E948E1A2
:102000005BE4C301B2010E94743787FD7FC0A6E97B
:10201000EA2EA2E0FA2EB6E6CB2EB2E0DB2E1EE7C9
:10202000A12E12E0B12E00E210E0188E1F8AD70117
:102030005E914E913E912E917D01C301B2010E94AD
:10204000743787FD11C0F60124893589468957897F
:10205000C301B2010E94A6352B013C018F89988DE6
:10206000800F911F988F8F8B1595079594E0C91A53
:10207000D108AE14BF04D9F699249A9420E030E038
:10208000A901C301B2010E94743718160CF045C0B3
:102090002CEA35EC47E257E3C301B2010E94413517
:1020A0001816DCF1A92DB4E0AB0250011124D12C9B
:1020B000C12CEFEF9E1689F17501EC0CFD1CF701A8
:1020C000E25BFD4FA3019201608171818281938166
:1020D0000E94743718169CF4F701E258FD4F2081D6
:1020E000318142815381C301B2010E94A6352B0187
:1020F0003C018F89988D801B910B988F8F8B159544
:1021000007959A9494E0C91AD108D3CF00E210E061
:10211000E5E09E2E188E1F8AB1CFC301B2010E9446
:1021200048376B017C014B015C0106E080E492E4DE
:10213000AFE0B0E0898F9A8FAB8FBC8F102F01502A
:102140009AE089169104A104B104C8F0698D7A8DD2
:102150008B8D9C8D2AE030E040E050E00E948F376C
:10216000298F3A8F4B8F5C8FC501B4012AE030E094
:1021700040E050E00E948F3749015A01DFCFC7018C
:10218000B6010E9445359B01AC01C301B2010E941A
:1021900076364B015C01698D7A8D8B8D9C8D0E940A
:1021A00045359B01AC01C501B4010E94A6354B0128
:1021B0005C010E9448372B013C010E9445359B0180
:1021C000AC01C501B4010E9476369B01AC010E94AE
:1021D00077360E944837460E571E681E791E898D35
:1021E0009A8DAB8DBC8D481659066A067B06D8F0D1
:1021F0009FEFC91AD90AE90AF90AAF89B88DAB2B42
:1022000039F1BAE0CB16D104E104F10408F1EF8909
:10221000F88D3196F88FEF8B412C512C3201C12C67
:10222000D12C7601C3945AE0852E912CA12CB12C8F
:10223000C301B201A50194010E948F37672B682B5F
:10224000692B51F4111644F429013A011150F0CFD1
:10225000412C512C3201E7CF1E8ACE0146969A8F2F
:10226000898F4AE0842E912CA12CB12CC701B60194
:10227000A50194010E948F37605DA98DBA8D6E9380
:10228000BA8FA98F69017A01C114D104E104F10464
:1022900069F7BD01C10190DD112349F1188A6E0172
:1022A000B0E1CB0ED11C012F76013AE0832E912CA8
:1022B000A12CB12C015068F0C301B201A501940119
:1022C0000E948F37605DF60162936F0129013A0128
:1022D000F1CF612F70E0F701E61BF70B31978EE22B
:1022E0008083609570956E0D7F1DC10165DD8F89BE
:1022F000988D97FF24C068EC73E0C1015DDD6F89A4
:10230000788D719561957109C10185DD6C960FB667
:10231000F894DEBF0FBECDBFDF91CF911F910F911B
:10232000FF90EF90DF90CF90BF90AF909F908F90F5
:102330007F906F905F904F903F902F900895AF895E
:10234000B88DAB2B19F365E6C10126DD6F89788D59
:10235000DBCFFD01028113816BE5C1011DDDD801D9
:1023600012960D911C910115110571F0B101C80172
:102370000296D7DDF801008111810115110521F0C8
:102380006CE2C10109DDEFCF6DE5C10105DDBECF16
:1023900012968D919C9199DDB9CFFD016281738177
:1023A000C10162DDB3CF12966D917C91C10104DD54
:1023B000ADCF6DE2C101F0DCF801628173818481EF
:1023C00095811E8A8E010A5E1F4F2AE0C22ED12CF3
:1023D000E12CF12CA70196010E948F37605DD80196
:1023E0006E938D01B901CA016115710581059105D1
:1023F00089F7BD01DBCFFD0182819381A481B58185
:1024000060EB73E0892B8A2B8B2B81F665EB73E0F5
:10241000CDCFEF92FF920F931F93CF93DF93EC01F9
:102420007B018A01BA012DDC81110AC0CE010FDCCB
:10243000CE01DF91CF911F910F91FF90EF90089502
:102440001D830C83B701888199810E941C3AF0CFCB
:10245000FB0101900020E9F73197AF01461B570BB4
:10246000D8CFCF93DF931F921F92CDB7DEB7FC0179
:1024700011821082138212821582148269831A8259
:10248000BE016F5F7F4FE4DF0F900F90DF91CF9120
:102490000895CF93DF93EC01FB018617970741F076
:1024A000608171816115710539F044815581B1DF19
:1024B000CE01DF91CF910895CADBFACFFC011182E2
:1024C00010821382128215821482E3CFFC011182E2
:1024D00010821382128215821482FB010190002067
:1024E000E9F73197AF01461B570B93CFCF93DF939B
:1024F00000D000D0CDB7DEB7BC0188E69FE0C9DFD1
:102500006BEC73E0CE010196E1DF68E67FE0CE017F
:1025100001961EDCBC0182E69FE0BBDFCE01019686
:10252000A8DB26960FB6F894DEBF0FBECDBFDF91B5
:10253000CF910895CF93DF9300D000D0CDB7DEB711
:10254000BC018EEF9FE0A5DF65ED73E0CE01019643
:10255000BDDF6EEF7FE0CE010196FADB68EE73E03F
:10256000E3DBBC0186EE9FE094DFCE01019681DBC8
:1025700066EE7FE088E99FE08CDF26960FB6F89440
:10258000DEBF0FBECDBFDF91CF9108955F926F92F6
:102590007F928F929F92AF92BF92CF92DF92EF92F3
:1025A000FF920F931F93CF93DF93CDB7DEB72C9796
:1025B0000FB6F894DEBF0FBECDBF7C016B01842E39
:1025C000B22E532EFB018081F70184838281938197
:1025D00021E020930D0E24E220932F0E10920E0E78
:1025E0001092300E60E00E94590660E0F70182818F
:1025F00093810E9459066FEFF701828193810E94B7
:102600005906182D100F61E0610FF7018281938147
:102610000E945906612F6095F701828193810E9483
:10262000590664EDF701828193810E9459068C0C52
:102630009D2C911C14EDF70182819381C814D9045B
:10264000C9F4CB2CD52C5601A00EB11CF701828108
:102650009381AC14BD0499F14601F60160810E949A
:102660005906882371F0FFEFCF1ADF0AF401808149
:10267000180FECCF3601F60160810E9459068111D6
:1026800017C08DEF2C960FB6F894DEBF0FBECDBFEE
:10269000DF91CF911F910F91FF90EF90DF90CF903E
:1026A000BF90AF909F908F907F906F905F900895B4
:1026B000FFEFCF1ADF0AF3018081180FBCCF612F23
:1026C00061950E94590660E0F701828193810E9422
:1026D000590681E00E94540186E0EEE2F2E0DE015C
:1026E000179601900D928A95E1F70BE010E067E0F4
:1026F00084E20E94B3011092E50D8093E40D8111F4
:102700000BC061E070E080E090E00E947404015032
:10271000110969F78EEFB6CFF701828193810E948C
:10272000510680FFEECF8E010F5F1F4F6E01F7E065
:10273000CF0ED11C5801F701828193810E9451066E
:10274000F80181938F01CE16DF06A9F746E050E02D
:10275000B601C5010E94FD3921E0892B09F420E072
:10276000822F81958FCF0F931F93CF93DF938B0190
:10277000FC01C281D381209759F06A817B810115C8
:10278000110519F06115710549F46017710759F4C5
:10279000CE01DF91CF911F910F910895C8010E9442
:1027A000133A892BA9F30990D881C02DE4CFEF9279
:1027B000FF920F931F93CF93DF938C0162EF73E02F
:1027C000D2DFEC01892B91F4C8010E943B0AEC0195
:1027D000892B41F480E0DF91CF911F910F91FF9001
:1027E000EF90089582EF93E09B838A838091680F36
:1027F0009091690F892B19F1D8018D919C910091CD
:102800006C0F10916D0F0F5F1F4FDC01ED91FC916C
:102810000190F081E02DB80119957C010097D1F26B
:102820006091680F7091690FA8010E940A3A82E0D6
:1028300090E09D838C83FF82EE8281E0CCCF82E0AA
:1028400090E09D838C831F821E82F7CFCF93DF930E
:10285000CDB7DEB7AA970FB6F894DEBF0FBECDBFD7
:102860002CE53FE03AA729A79E01275D3F4F3EA3F5
:102870002DA318A61FA2FC01628173818081918122
:1028800072DFFC0190E080E0309799F096E034969A
:10289000DE01119601900D929A95E1F786E0FE0116
:1028A0003196DE01179601900D928A95E1F78981A4
:1028B0009A8198878F8386E0FE013796DE011D9608
:1028C00001900D928A95E1F786E0FE013D96DE01CA
:1028D000539601900D928A95E1F786E0FE0173967A
:1028E000DE01599601900D928A95E1F786E0FE018E
:1028F0007996DE015F9601900D928A95E1F7BE010F
:102900006B5D7F4FCE014F960CDB8FA198A5AA96E9
:102910000FB6F894DEBF0FBECDBFDF91CF91089503
:10292000CF93DF93EB01FC01628173818081918100
:102930001ADFFC01892B09F452C084819581833010
:10294000910548F5019708F44AC00680F781E02D0B
:10295000309709F444C0808161E070E0843749F128
:102960008B32B9F18D32B1F5319691E070E060E0D3
:102970004AE0819120ED280F2A3070F5469F9001A2
:10298000479F300D1124682F880F770B6053710912
:10299000620F731FEECF8530910548F0059799F0CF
:1029A00066817781808591850E94433702C0668168
:1029B000778181E0288139812617370709F080E087
:1029C000DF91CF9108956681778171956195710945
:1029D000F0CF319690E0CACF9111F7CFEACF70E0F7
:1029E00060E0E7CFEF92FF920F931F93CF93DF93B7
:1029F0008C01EB017A01B7DE009741F4C8010E9417
:102A00003B0A0097C9F0FC01D383C283F7014081E0
:102A100051816281738124E030E0FC01358324839D
:102A2000468357836087718781E0DF91CF911F9143
:102A30000F91FF90EF90089580E0F7CFEF92FF9213
:102A40000F931F93CF93DF938C01EB017A018BDE01
:102A5000009741F4C8010E943B0A009799F0FC01DD
:102A6000D383C28326E0F701DC01149601900D9216
:102A70002A95E1F781E0DF91CF911F910F91FF90AF
:102A8000EF90089580E0F7CFAF92BF92CF92DF92A0
:102A9000EF92FF920F931F93CF93DF9300D000D05C
:102AA000CDB7DEB78C01FC018681811104C00E9484
:102AB000D5096C0142C081508683819191917F013B
:102AC0000E945C0A6C016BE7C7010E94DD07882346
:102AD00071F36DE7C7010E94DD0781112AC0C801AB
:102AE0000E9451085C01892B11F36AE3C7010E941F
:102AF000DD078823E1F21A821982BE016F5F7F4FE2
:102B0000C8012DD0882399F2AE014F5F5F4FB50108
:102B1000C60194DF882359F26DE7C7010E94DD07E3
:102B2000811107C06CE2C7010E94DD078111D7CF78
:102B3000BECFF80186818F5F8683C60126960FB6C9
:102B4000F894DEBF0FBECDBFDF91CF911F910F91E3
:102B5000FF90EF90DF90CF90BF90AF900895AF922D
:102B6000BF92CF92DF92EF92FF920F931F93CF937A
:102B7000DF9300D000D0CDB7DEB78C016B015C01D4
:102B800082E0A80EB11CC5010E949D07D8011296D3
:102B9000ED91FC91139780818B3501F18B3709F40E
:102BA0007EC0FF24F394873219F0823209F0F12CB1
:102BB000C8010E945108009709F454C021E030E098
:102BC000FF2009F475C022E030E0D60111963C9355
:102BD0002E9313969C938E93129745C0F80186818D
:102BE000811104C00E94E7097C0137C0815016960C
:102BF0008C9316978D919C910E94700A7C016BE5D5
:102C0000C5010E94DD07882369F36DE5C5010E94B7
:102C1000DD0781111EC01A821982BE016F5F7F4FCE
:102C2000C8019DDF8823F1F2BE016F5F7F4FC701AE
:102C30000E94080A8823B1F26DE5C5010E94DD07F4
:102C4000811107C06CE2C5010E94DD078111E3CF4D
:102C5000C9CFF80186818F5F8683D7018D919C91C2
:102C6000892B99F4F12C8F2D26960FB6F894DEBFA0
:102C70000FBECDBFDF91CF911F910F91FF90EF90CD
:102C8000DF90CF90BF90AF90089586E090E0F6017E
:102C900091838083F382E282FF24F394E4CFC8011E
:102CA000F3DEDC012D913C91232BE1F227E030E0B3
:102CB000F6013183208393838283EECFAF92BF925C
:102CC000CF92DF92EF92FF920F931F93CF93DF93F8
:102CD00000D000D0CDB7DEB78C01FC018681811118
:102CE00004C00E94D5096C0142C081508683819145
:102CF00091917F010E945C0A6C016BE7C7010E9401
:102D00008807882371F36DE7C7010E948807811146
:102D10002AC0C8010E94F2075C01892B11F36AE303
:102D2000C7010E9488078823E1F21A821982BE0136
:102D30006F5F7F4FC8012DD0882399F2AE014F5F9E
:102D40005F4FB501C6017ADE882359F26DE7C701EE
:102D50000E948807811107C06CE2C7010E948807A2
:102D60008111D7CFBECFF80186818F5F8683C601E0
:102D700026960FB6F894DEBF0FBECDBFDF91CF9180
:102D80001F910F91FF90EF90DF90CF90BF90AF9089
:102D90000895AF92BF92CF92DF92EF92FF920F937E
:102DA0001F93CF93DF9300D000D0CDB7DEB78C0157
:102DB0006B015C0182E0A80EB11CC5010E944807AE
:102DC000D8011296ED91FC91139780818B3501F11A
:102DD0008B3709F47EC0FF24F394873219F08232D6
:102DE00009F0F12CC8010E94F207009709F454C0C1
:102DF00021E030E0FF2009F475C022E030E0D60188
:102E000011963C932E9313969C938E93129745C0E4
:102E1000F8018681811104C00E94E7097C0137C056
:102E2000815016968C9316978D919C910E94700AF2
:102E30007C016BE5C5010E948807882369F36DE575
:102E4000C5010E94880781111EC01A821982BE0125
:102E50006F5F7F4FC8019DDF8823F1F2BE016F5F76
:102E60007F4FC7010E94080A8823B1F26DE5C501B2
:102E70000E948807811107C06CE2C5010E94880783
:102E80008111E3CFC9CFF80186818F5F8683D70197
:102E90008D919C91892B99F4F12C8F2D26960FB64C
:102EA000F894DEBF0FBECDBFDF91CF911F910F9180
:102EB000FF90EF90DF90CF90BF90AF90089586E0A5
:102EC00090E0F60191838083F382E282FF24F39401
:102ED000E4CFC801F3DEDC012D913C91232BE1F21C
:102EE00027E030E0F6013183208393838283EECFA5
:102EF0003F924F925F926F927F928F929F92AF928A
:102F0000BF92CF92DF92EF92FF920F931F93CF93D6
:102F1000DF93CDB7DEB7C650D2400FB6F894DEBF10
:102F20000FBECDBF3C016A017B0168EF72E0CE01AC
:102F30008F5F9D4FCBDAA8EEB3E0A70196010E9408
:102F40005D366B017C0119820E94A4044B015C0177
:102F5000F30184819581892B09F4FCC000811181E2
:102F60006BEF73E0C8010E94133A892B09F50E94A8
:102F7000A404681979098A099B096C157D058E05D9
:102F80009F0508F033C18AE090E10E9425051816DC
:102F900019066CF78AE090E10E943C058E3339F700
:102FA0006AEF70E080E090E00E94740411E0EFC0EE
:102FB00069E478E0C8010E94133A892B41F06DEF73
:102FC00073E0C8010E94133A892B09F0C3C00E9424
:102FD000A404681979098A099B096C157D058E0579
:102FE0009F0508F003C18AE090E10E9425051816AC
:102FF00019066CF78AE090E10E943C05811109C036
:1030000080914309909144090196909344098093DB
:10301000430980914309909144090297C1F66AEFF0
:1030200070E080E090E00E947404109244091092D5
:103030004309BCCF442443940E94A404681979092D
:103040008A099B096C157D058E059F0508F09DC0BA
:103050008AE090E10E942505181619066CF78AE0AF
:1030600090E10E943C05582E8091080B882329F09E
:10307000652D81E39EE00E941D028091000B882354
:1030800019F1FCE25F1204C010924209309241092A
:1030900080914209882329F0652D80EE9FE00E94EF
:1030A000B90E80E2581202C0309242098091410963
:1030B000882351F080EE9FE00E94E30D7093FF0A99
:1030C0006093FE0A1092000BEDE05E1619F0FAE034
:1030D0005F1249C0E1E0F0E0EC0FFD1FE00FF11FCF
:1030E00010828AE05812A8CF8981882309F4A2CFE0
:1030F000BE016F5F7F4FCE018F5F9D4FA9D9FE014B
:103100003196CE018F5F9D4F11928E179F07E1F789
:10311000CB5FDD4F28813981C550D240F3018481D6
:1031200095812817390709F061C0CF5FDD4F88818D
:103130009981C150D24060817181009709F446C0E5
:103140006115710569F4232B09F430CFFC018081EE
:1031500090E049C0412C10E000E0332433946CCF60
:103160000E94133A40C0E1E0F0E0EC0FFD1FE00FD9
:10317000F11F5082B801C3010E940A02FC01808144
:1031800085115ACF0F5F1F4F57CF442079F1CE01E1
:103190008F5F9D4F0E94390E812FCA5FDD4F0FB6A2
:1031A000F894DEBF0FBECDBFDF91CF911F910F917D
:1031B000FF90EF90DF90CF90BF90AF909F908F9057
:1031C0007F906F905F904F903F90089561157105CB
:1031D00009F4ECCE232B09F4E9CEFB01808190E0C9
:1031E000919581959109892B09F4E0CE10E0CFCF1C
:1031F000AF92BF92CF92DF92EF92FF920F931F9305
:10320000CF93DF93CDB7DEB72C970FB6F894DEBF20
:103210000FBECDBF68EF72E0CE01079657D90E946E
:10322000A4046B017C018091080B882331F06FEFBF
:1032300073E081E39EE00E945A0D6FEF73E08AE035
:1032400090E10E945A0D0E94A4046C197D098E0918
:103250009F0968397A438105910508F427C161E423
:1032600074E0CE01019632D945E050E060E070E0B4
:10327000CE0101963DDECE0101960E94390E60918D
:103280004509CE010196EDD8BE016F5F7F4FCE019B
:1032900007960E94EE0DCE0101960E94390E6091B4
:1032A0004609CE0107960E94B90ECE0107960E94EC
:1032B000E30D162F60914809CE010196D2D8BE01C8
:1032C0006F5F7F4FCE0107960E94EE0DCE010196F3
:1032D0000E94390E60914909CE0107960E94B90EED
:1032E000CE0107960E94E30D062F60914B09CE0197
:1032F0000196B7D8BE016F5F7F4FCE0107960E943F
:10330000EE0DCE0101960E94390E60914C09CE015E
:1033100007960E94B90ECE0107960E94E30DB62EC5
:1033200060914E09CE0101969CD8BE016F5F7F4F20
:10333000CE0107960E94EE0DCE0101960E94390E35
:1033400060914F09CE0107960E94B90ECE010796F3
:103350000E94E30DF62E60915109CE01019681D8AD
:10336000BE016F5F7F4FCE0107960E94EE0DCE012A
:1033700001960E94390E60915209CE0107960E9473
:10338000B90ECE0107960E94E30DA62E6091540956
:10339000CE01019666D8BE016F5F7F4FCE010796C2
:1033A0000E94EE0DCE0101960E94390E60915509E2
:1033B000CE0107960E94B90ECE0107960E94E30D3A
:1033C000462F80914110E12F012E000CFF0BE80FDA
:1033D000F11D87FDFA95AF2DFF0CBB0B20E13EE000
:1033E0000E94DC376B017C01AA2DAA0CBB0B2CE3DD
:1033F00030E00E94DC37C60ED71EE81EF91E042EF0
:10340000000C550B660B770BC40ED51EE61EF71E7F
:10341000DF0120E833E341EE51E00E94E237C60EBF
:10342000D71EE81EF91EA02FAA0FBB0BA95DBF4E29
:103430000D90BC91A02DAB0DB11DB7FCBA95CF017D
:10344000029697FD03969595879595958795A80F74
:10345000B91F119720E831E541E050E00E94E237C2
:10346000C60ED71EE81EF91E137049F403303CF453
:1034700080E8C81A81E5D80A81E0E80AF108CE019F
:1034800007960E94390EC701B6012C960FB6F89424
:10349000DEBF0FBECDBFDF91CF911F910F91FF9087
:1034A000EF90DF90CF90BF90AF9008958AE090E1C9
:1034B0000E942505181619060CF0C5CE8AE090E189
:1034C0000E943C058093010B9091080B992329F0F1
:1034D000682F81E39EE00E941D022091010B2232A1
:1034E00029F48091020B8F5F8093020B8091020B75
:1034F0008130D9F4223209F4A6CE8091030B909149
:10350000040BA091050BB091060BFC01EB5BF64F91
:1035100020830196A11DB11D8093030B9093040B92
:10352000A093050BB093060B8ECE823009F08BCEA4
:10353000E091030BF091040BEB5BF64F10821092BD
:10354000030B1092040B1092050B1092060B1092B5
:10355000020B8091080B882309F481CE0E940C0C89
:103560006AE074E081E39EE00E945A0D85E499E0F0
:103570000E946A0C74CECF92DF92EF92FF921F935B
:10358000CF93DF9300D000D0CDB7DEB70E94A40464
:103590006B017C010E94A4046C197D098E099F09AE
:1035A00068397A4381059105C8F568EE73E080E0DB
:1035B00090E00E9474048091080B882331F06CEB3A
:1035C0007FE081E39EE00E9424026CEB7FE08AE0D2
:1035D00090E10E94240261E474E0CE0101960E9411
:1035E000661245E050E060E070E0CE01019680DCBC
:1035F000182FCE0101960E94390E112359F2812F06
:1036000026960FB6F894DEBF0FBECDBFDF91CF91E7
:103610001F91FF90EF90DF90CF90089510E0EFCFD3
:10362000CF92DF92EF92FF921F93CF93DF9300D060
:1036300000D0CDB7DEB70E94A4046B017C010E94CC
:10364000A4046C197D098E099F0968397A438105A4
:10365000910508F04DC068EE73E080E090E00E94B4
:1036600074048091080B882331F066EB7FE081E3DE
:103670009EE00E94240266EB7FE08AE090E10E94D7
:10368000240265E174E0CE0101960E94661245E0D5
:1036900050E060E070E0CE0101962ADC182FCE01E8
:1036A00001960E94390E112351F261E474E0CE01BB
:1036B00001960E94661245E050E060E070E0CE01A5
:1036C000019616DC182FCE0101960E94390E1123A7
:1036D00061F3812F26960FB6F894DEBF0FBECDBFE3
:1036E000DF91CF911F91FF90EF90DF90CF900895E1
:1036F00010E0EFCF2F923F924F925F926F927F92A6
:103700008F929F92AF92BF92CF92DF92EF92FF92F1
:103710000F931F93CF93DF93CDB7DEB7CB51D2403A
:103720000FB6F894DEBF0FBECDBFCC5EDD4F688311
:1037300079838A839B83C451D240C85EDD4F28833E
:1037400039834A835B83C851D240AE014C5E5D4FE2
:103750006FE174E08091540F9091550F43D9AE0101
:10376000485E5D4F63E375E08091540F9091550F73
:1037700039D98091540F9091550F19D88091540FD9
:103780009091550F7E0127EFE21A2DEFF20A26E500
:103790003FE0F70131832083FA82E9821C821B8299
:1037A0008E010F5F1F4FB8010E94650F8091080BBB
:1037B000882341F083E294E00E946A0C86E59FE052
:1037C0000E94110C8091080B882331F066E87FE09D
:1037D00081E39EE00E94240266E87FE08AE090E1B7
:1037E0000E94240261E474E0C8010E94661245E070
:1037F00050E060E070E0C8017BDBD82EC8010E9479
:10380000390EDD2009F403C18091080B882331F0C3
:1038100068E97FE081E39EE00E94240268E97FE09E
:103820008AE090E10E94240261E474E0C8010E94F1
:1038300066124AE050E060E070E0C80159DBD82E23
:10384000C8010E94390E8091080BDD2009F401C1E6
:1038500061E374E0C8010E9466124AE050E060E053
:1038600070E0C80145DBD82EC8010E94390E809156
:10387000080BDD2009F4EDC0882331F06EE97FE00C
:1038800081E39EE00E9424026EE97FE08AE090E1FD
:103890000E9424026BEF73E0C8010E9466124AE0A6
:1038A00050E060E070E0C80123DBD82EC8010E9420
:1038B000390EDD2009F4ABC062E370E080E090E0F7
:1038C0000E9474040E94890962E67FE0C8010E9498
:1038D0005E12C8010E944509C8010E94390E66E5C2
:1038E0007FE0C7010E945E1264E77FE0C8010E948A
:1038F0005E12B701C8010E94EF08C8010E94390E8C
:10390000C7010E94390E6AE18AE090E10E94C90471
:103910006CE374E0C8010E9466124AE050E060E087
:1039200070E0C801E5DAD82EC8010E94390EDD200A
:1039300009F46DC064E372E086E59FE00E942812FE
:103940000E94A4042B013C011092030B1092040B63
:103950001092050B1092060B1092020B25E4222EFA
:1039600029E0322E3CE6832E34E0932ECC24C394FF
:1039700080914009811152C00E94A4046419750904
:103980008609970960327E448105910508F0FAC1E5
:103990008AE090E10E942505181619060CF0F0C186
:1039A0008AE090E10E943C058093010B9091080B06
:1039B000992329F0682F81E39EE00E941D02209147
:1039C000010B2B3709F076C0C092020BD090020B8E
:1039D00091E0D91276C080EE820F8F3548F6809143
:1039E000030B9091040BA091050BB091060BFC0109
:1039F000EB5BF64F20830196A11DB11D8093030B55
:103A00009093040BA093050BB093060BB1CF64E326
:103A100072E086E59FE00E942812D12C8D2DC55EB4
:103A2000DD4F0FB6F894DEBF0FBECDBFDF91CF9153
:103A30001F910F91FF90EF90DF90CF90BF90AF90CC
:103A40009F908F907F906F905F904F903F902F90BE
:103A50000895882331F062EC7FE081E39EE00E94CC
:103A6000240262EC7FE08AE090E10E94240264E498
:103A700074E0C8010E94661245E050E060E070E02A
:103A8000C80136DAF82EC8010E94390EFF2009F469
:103A9000BECFC6DD882349F064E372E086E59FE08F
:103AA0000E94281294E0D92EB9CF65DD8823A1F3B6
:103AB000B7DDF2CF2D3709F089CF82E08093020B7A
:103AC00085CFE2E0DE1254CF8091030B9091040B7E
:103AD000A091050BB091060BFC01EB5BF64F208328
:103AE0000196A11DB11D8B5B964FFC0110821092B7
:103AF000030B1092040B1092050B1092060B109200
:103B0000020B8091080B882361F00E940C0C6CE47E
:103B100074E081E39EE00E945A0D85E499E00E94E2
:103B20006A0C64EA7FE08AE090E10E94240263E686
:103B300074E0C8010E9466124AE050E060E070E064
:103B4000C801D6D9C8010E94390E89E090E08C0FD7
:103B50009D1F9C838B83E0E0F2E0FE83ED8318865B
:103B60001F8288EE92E09A838983F7011183008394
:103B700033822282358224822AE02683C7019ED89E
:103B80005C01F701918380839382828282E090E0DE
:103B9000CE5EDD4F99838883C251D240BE016E5EF6
:103BA0007D4FC7010E949014882349F164E372E0BD
:103BB0008CE59FE00E942812F701B182A08287E77E
:103BC00094E093838283C7010E9426146CE57FE012
:103BD00084E090E10E9449128091080B882341F013
:103BE00084E090E10E94110C8CE59FE00E94110C92
:103BF00064E372E08CE59FE00E9428120FCFF7018A
:103C0000B182A0829382828281E090E0C05FDD4F2A
:103C100099838883C051D240BE01605F7D4FC70148
:103C20000E949014882309F4A8C064E372E08CE534
:103C30009FE00E9428128091080B882331F06FE7E3
:103C400074E081E39EE00E945A0DF701B182A082E8
:103C500089E994E093838283C7010E9426148091AE
:103C6000080B882379F06CE57FE0C7010E945E12A3
:103C700067EA74E0C7010E94940E0E94110CC7010C
:103C80000E94390E80915C0F90915D0F40E050E0F2
:103C9000BA01009721F00E946433AB01BC0140934C
:103CA000100B5093110B6093120B7093130B8091B8
:103CB000080B882339F022E081E39EE00E94770C14
:103CC0000E940C0C64E372E08CE59FE00E942812D5
:103CD000F701B182A0828EEA94E093838283C701C8
:103CE0000E94261480915C0F90915D0F009709F45B
:103CF00040C00E946433609300027093010280937D
:103D000002029093030264E372E08CE59FE00E945C
:103D100028128091080B882331F06AEB74E081E36C
:103D20009EE00E945A0DF701B182A0828CEF98E0CC
:103D300093838283C7010E9426148091080B8823F5
:103D400079F06CE57FE0C7010E945E126EEC74E0D2
:103D5000C7010E94940E0E94110CC7010E94390EE7
:103D600064E372E08CE59FE00E942812DD24D39486
:103D700055CE60E070E0CB01BECFC0924009F8CDD7
:103D80000000F6CD64E372E086E59FE00E94281211
:103D90008091080B882351F082ED94E00E946A0C18
:103DA00064EA7FE081E39EE00E94240264EA7FE00F
:103DB0008AE090E10E94240263E674E0C8010E9458
:103DC00066124AE050E060E070E0C80191D8C80196
:103DD0000E94390E83E0D82E21CE1F93CF93DF931C
:103DE00000D000D0CDB7DEB78091080B882331F02A
:103DF00062EC7FE081E39EE00E94240262EC7FE0BF
:103E00008AE090E10E94240264E474E0CE0101960D
:103E10000E94661245E050E060E070E0CE0101963D
:103E200067D8182FCE0101960E94390E1123D9F0C0
:103E300062E370E080E090E00E947404F1DB8111A5
:103E400012C099DB882379F062E370E080E090E0B3
:103E50000E947404E5DB882331F062E370E080E0C7
:103E600090E00E94740480E026960FB6F894DEBFBE
:103E70000FBECDBFDF91CF911F910895AF92BF923A
:103E8000CF92DF92EF92FF920F931F93CF93DF9326
:103E9000CDB7DEB7CF50D2400FB6F894DEBF0FBE1D
:103EA000CDBF8091080B882331F06EEC7FE081E379
:103EB0009EE00E9424026EEC7FE08AE090E10E9486
:103EC000240261E474E08E010F5F1F4FC8010E945D
:103ED000661245E050E060E070E0C80109D8F82EB5
:103EE000C8010E94390EFF2009F4C3C061E374E0E9
:103EF000C8010E9466124AE050E060E070E0C8012C
:103F00000E947817F82EC8010E94390EFF2009F48C
:103F1000A5C08091080B882331F06EE97FE081E332
:103F20009EE00E9424026EE97FE08AE090E10E9418
:103F300024026BEF73E0C8010E9466124AE050E071
:103F400060E070E0C8010E947817F82EC8010E9456
:103F5000390E8091080BFF2009F46EC0882331F0E0
:103F600064ED7FE081E39EE00E94240264ED7FE047
:103F70008AE090E10E9424026AE18AE090E10E94D6
:103F8000C9046CE374E0C8010E9466124AE050E084
:103F900060E070E0C8010E947817F82EC8010E9406
:103FA000390EFF2009F450C00E94A4046B017C016B
:103FB00082E0B82EAA24A3940E94A4046C197D095F
:103FC0008E099F0960327E448105910508F05CC02E
:103FD0008AE090E10E942505181619066CF78AE020
:103FE00090E10E943C058093010B90EE980F9F3565
:103FF00018F78B3709F04EC0A092020B9091020B7C
:10400000913009F04DC04091030B5091040B609129
:10401000050B7091060BFA01EB5BF64F80834F5F47
:104020005F4F6F4F7F4F4093030B5093040B609390
:10403000050B7093060BC0CF882321F08BEE94E024
:104040000E946A0C88E07FC08091080B882321F0D1
:1040500088EF94E00E946A0C83E075C0BEDE809118
:10406000080B882321F085E095E00E946A0C82E02D
:104070006AC0B3DE8091080B882321F082E195E0CD
:104080000E946A0C81E05FC08091080B811128C1F9
:1040900087E059C08D3709F0B1CFB092020BAECF97
:1040A000923009F089CF4091030B5091040B60913D
:1040B000050B7091060BFA01EB5BF64F80834F5FA7
:1040C0005F4F6F4F7F4F4B5B564FFA01108210923C
:1040D000030B1092040B1092050B1092060B10921A
:1040E000020B8091080B882361F00E940C0C6CE499
:1040F00074E081E39EE00E945A0D85E499E00E94FD
:104100006A0C64EA7FE08AE090E10E94240263E6A0
:1041100074E0C8010E9466124AE050E060E070E07E
:10412000C8010E947817F82EC8010E94390EF110BC
:104130001CC08091080B882321F08FE195E00E943C
:104140006A0C4BDE84E0C15FDD4F0FB6F894DEBF32
:104150000FBECDBFDF91CF911F910F91FF90EF90D8
:10416000DF90CF90BF90AF900895CE0109969C83C9
:104170008B8380E092E09E838D8318861F8288EE79
:1041800092E09A838983C75FDD4F19830883C95002
:10419000D24085E499E0C55FDD4F99838883CB5099
:1041A000D240C35FDD4F99838883CD50D2408AE0EF
:1041B000C15FDD4F8883CF50D240CE01875F9D4FD6
:1041C0000E945E1618861F826CE275E00E94B3138F
:1041D0008C01009709F473C0FC01E480F580F1E0E4
:1041E000EF16F10469F4FC016681778161157105B0
:1041F00039F08BEA93E00E94133A892B09F45FC0EF
:10420000F1E0EF1AF10822E0E216F10408F057C0DD
:10421000F801068117818091080B8823A9F068E3D3
:1042200075E081E39EE00E945A0D65E975E081E347
:104230009EE00E945A0DB80181E39EE00E945A0D53
:1042400085E995E00E946A0C68E375E08AE090E1F8
:104250000E945A0D65E975E08AE090E10E945A0DCE
:10426000B8018AE090E10E945A0D65E975E08AE0A4
:1042700090E10E945A0D6CE975E08AE090E10E949D
:104280005A0D61E474E0CE01875F9D4F0E94661273
:1042900045E050E060E070E0CE01875F9D4F0E94F6
:1042A0007817182FCE01875F9D4F0E94390E80919D
:1042B000080B112339F0811109C085E044CF10E0CB
:1042C00000E0A9CF811107C086E03DCF81E495E0F1
:1042D0000E946A0CF2CF83E595E00E946A0CF4CF4D
:1042E00080E695E00E946A0CD3CE1F920F920FB623
:1042F0000F9211240BB60F922F933F934F935F931E
:104300006F937F938F939F93AF93BF93EF93FF939D
:1043100081E39EE00E94A502FF91EF91BF91AF91D2
:104320009F918F917F916F915F914F913F912F91CD
:104330000F900BBE0F900FBE0F901F9018951F92FD
:104340000F920FB60F9211240BB60F922F938F93EB
:104350009F93EF93FF93E091410EF091420E808185
:10436000E091470EF091480E82FD1DC09081809132
:104370004A0E8F5F8F7320914B0E821741F0E091B0
:104380004A0EF0E0EF5CF14F958F80934A0EFF915B
:10439000EF919F918F912F910F900BBE0F900FBEB9
:1043A0000F901F9018958081F2CF1F920F920FB639
:1043B0000F9211242F933F938F939F93AF93BF93AB
:1043C0008091F50A9091F60AA091F70AB091F80A47
:1043D0003091F40A23E0230F2D3758F50196A11DE3
:1043E000B11D2093F40A8093F50A9093F60AA093E6
:1043F000F70AB093F80A8091F90A9091FA0AA0910D
:10440000FB0AB091FC0A0196A11DB11D8093F90A27
:104410009093FA0AA093FB0AB093FC0ABF91AF9164
:104420009F918F913F912F910F900FBE0F901F90F2
:10443000189526E8230F0296A11DB11DD2CF1F9219
:104440000F920FB60F9211240BB60F922F933F933A
:104450004F935F936F937F938F939F93AF93BF938C
:10446000EF93FF93E0911602F09117021995FF91D7
:10447000EF91BF91AF919F918F917F916F915F91DC
:104480004F913F912F910F900BBE0F900FBE0F9049
:104490001F9018951F920F920FB60F9211240BB612
:1044A0000F922F933F934F935F936F937F938F93CD
:1044B0009F93AF93BF93EF93FF93E0911402F0911A
:1044C00015021995FF91EF91BF91AF919F918F9137
:1044D0007F916F915F914F913F912F910F900BBE04
:1044E0000F900FBE0F901F9018951F920F920FB64E
:1044F0000F9211240BB60F922F933F934F935F931C
:104500006F937F938F939F93AF93BF93EF93FF939B
:10451000E0910A02F0910B021995FF91EF91BF9182
:10452000AF919F918F917F916F915F914F913F914B
:104530002F910F900BBE0F900FBE0F901F901895EC
:104540001F920F920FB60F9211240BB60F922F935A
:104550003F934F935F936F937F938F939F93AF930B
:10456000BF93EF93FF93E0910802F0910902199530
:10457000FF91EF91BF91AF919F918F917F916F913B
:104580005F914F913F912F910F900BBE0F900FBEF7
:104590000F901F9018951F920F920FB60F92112433
:1045A0000BB60F922F933F934F935F936F937F932D
:1045B0008F939F93AF93BF93EF93FF93E09112027A
:1045C000F09113021995FF91EF91BF91AF919F91D7
:1045D0008F917F916F915F914F913F912F910F90AC
:1045E0000BBE0F900FBE0F901F9018951F920F9249
:1045F0000FB60F9211240BB60F922F933F934F9348
:104600005F936F937F938F939F93AF93BF93EF933A
:10461000FF93E0911002F09111021995FF91EF9133
:10462000BF91AF919F918F917F916F915F914F91CA
:104630003F912F910F900BBE0F900FBE0F901F90C8
:1046400018951F920F920FB60F9211240BB60F926E
:104650002F933F934F935F936F937F938F939F938A
:10466000AF93BF93EF93FF93E0910E02F0910F028F
:104670001995FF91EF91BF91AF919F918F917F918C
:104680006F915F914F913F912F910F900BBE0F90C3
:104690000FBE0F901F9018951F920F920FB60F929A
:1046A00011240BB60F922F933F934F935F936F9309
:1046B0007F938F939F93AF93BF93EF93FF93E0917B
:1046C0000C02F0910D021995FF91EF91BF91AF91FE
:1046D0009F918F917F916F915F914F913F912F911A
:1046E0000F900BBE0F900FBE0F901F9018951F924A
:1046F0000F920FB60F9211240BB60F922F933F9388
:104700004F935F936F937F938F939F93AF93BF93D9
:10471000EF93FF93E091DF0CF091E00C309749F0BC
:10472000A685B7858585968D91FF16C09C918923B6
:10473000B1F4FF91EF91BF91AF919F918F917F91D4
:104740006F915F914F913F912F910F900BBE0F9002
:104750000FBE0F901F9018959C91892351F7A38944
:10476000B4899C918589809589238C9386899789C2
:104770000197F1F7608D718DA685B785558538E075
:1047800020E0CB010197F1F7822F90E09595879576
:10479000282F4C91452309F02068315091F7868DE0
:1047A00081FD20958091DE0C90E001968F73992712
:1047B0003091DD0C381799F0A091DE0CB0E0AC54CC
:1047C000B54F2C938093DE0C828D938D0197F1F77A
:1047D000A389B4898C919589892B8C93AACF868DD6
:1047E0008160868FF1CF1F920F920FB60F92112426
:1047F0000BB60F922F933F934F935F936F937F93DB
:104800008F939F93AF93BF93EF93FF938091B900E2
:10481000887F803609F44DC008F040C0883209F422
:10482000A9C028F5803109F49DC0C8F4882309F493
:10483000FBC0883009F496C0FF91EF91BF91AF9112
:104840009F918F917F916F915F914F913F912F91A8
:104850000F900BBE0F900FBE0F901F9018958831D0
:1048600009F488C0803241F780930A0E14C0803466
:1048700009F49DC040F48033B9F38833E9F680939E
:104880000A0E85ECB0C0803509F485C0883509F47E
:1048900096C0883489F60E946706CECF883909F41D
:1048A0008CC038F5883729F050F4883611F08037FD
:1048B00019F683E080930C0E1092B30A57C0883823
:1048C00009F47BC0803919F0803809F0B5CF8091A8
:1048D000B30A803208F071C0E091B30A81E08E0F14
:1048E0008093B30A8091BB00F0E0ED56F54F8083D2
:1048F0003DC0803B39F0E0F4803A09F479C0883A51
:1049000009F09ACF84E080930C0E1092920A1092D4
:10491000910AE091E20DF091E30D19958091910AD1
:1049200081110FC081E08093910A1092710A09C031
:10493000803C09F4A6CF883C09F4A3CF883B09F05A
:104940007BCFE091920A81E08E0F8093920AF0E093
:10495000EF58F54F80818093BB009091920A80912F
:10496000910A29C08091E70D8093BB0085EC80936C
:10497000BC0062CF9091090E8091080E981758F5EF
:10498000E091090E81E08E0F8093090EF0E0E8516E
:10499000F24F8081E9CFE091090E81E08E0F809384
:1049A000090E8091BB00F0E0E851F24F80839091B6
:1049B000090E8091080E9817C8F285E8D8CFE091CB
:1049C000090E81E08E0F8093090E8091BB00F0E00C
:1049D000E851F24F808380910B0E81115CCF81E012
:1049E0008093E60D84EA8093BC0010920C0E24CFD5
:1049F00085EC8093BC0010920C0E8091B30A80323B
:104A000030F4E091B30AF0E0ED56F54F108260917A
:104A1000B30A70E0E091E00DF091E10D83E99AE0D6
:104A200019951092B30A08CF10920A0E34CFCF9383
:104A3000DF938CE49FE00E94390E86E59FE00E94A0
:104A4000390E8CE59FE00E94390E82E69FE00E94BD
:104A5000390E88E69FE00E94390E8EE69FE00E94A4
:104A6000390E84E79FE00E94390E8AE79FE00E949A
:104A7000390E80E89FE00E94390EC0EEDFE02697F5
:104A8000CE010E94390E8FE0C638D807C1F780EEFC
:104A90009FE00E94390E86EE9FE00E94390E8CEE58
:104AA0009FE00E94390E82EF9FE00E94390E88EF4E
:104AB0009FE00E94390E8EEF9FE00E94390E84E045
:104AC00090E10E94390E86ED92E090930B10809356
:104AD0000A108AE090E1DF91CF910C945D05CF93AD
:104AE000DF9300D000D01F92CDB7DEB71092340E06
:104AF0001092330E48EE53E060E070E04093350EC4
:104B00005093360E6093370E7093380E8AE992E018
:104B10009093320E8093310E85EC90E090933E0E90
:104B200080933D0E84EC90E09093400E80933F0E76
:104B300080EC90E09093420E8093410E81EC90E0E7
:104B40009093440E8093430E82EC90E09093460E37
:104B50008093450E86EC90E09093480E8093470E2C
:104B600010924A0E10924B0E10924C0E10924D0E57
:104B70001092320F1092310F4093330F5093340F35
:104B80006093350F7093360F8CEA92E09093300F5C
:104B900080932F0F8EEB92E090933C0F80933B0F0E
:104BA0008FE29FE090933E0F80933D0F10923F0F56
:104BB0008BE39FE090932E0F80932D0F8AE490E17A
:104BC000909345108093441080E092E090934710BA
:104BD00080934610109249101092481088EE92E08F
:104BE000909343108093421088E1E6E3F2E0A9E25B
:104BF000B0E101900D928A95E1F78EE1809341102A
:104C000010920D1010920C1040930E1050930F1034
:104C1000609310107093111086ED92E090930B103A
:104C200080930A10109221101092201010922310DD
:104C3000109222101092251010922410109227101A
:104C400010922610609128106E7F6D7F609328105F
:104C50006695617081E068278BE00E94620361E0E5
:104C60008BE00E941E04E4E0F2E0E491E0931A106D
:104C7000EEEBF1E0E491F0E0EE0FFF1FE756FE4FA0
:104C80008591949190931C1080931B1060E08AE0B2
:104C90000E941E048091281081FD04C061E08AE01A
:104CA0000E9462038AE080931610E3E0F2E0E49150
:104CB000E0931710EDEBF1E0E491F0E0EE0FFF1F51
:104CC000E158FE4F8591949190931910809318109C
:104CD00064E372E084E090E10E9466126DE675E0A4
:104CE0008EEF9FE00E94661267E875E088EF9FE014
:104CF0000E94661265ED73E0CE0101960E94661275
:104D000068EF7FE0CE0101960E94A80E67E975E08A
:104D10000E94940EBC0182EF9FE00E945E12CE01C1
:104D200001960E94390E6FE975E08CEE9FE00E94BB
:104D3000661265ED73E0CE0101960E9466126EEF79
:104D40007FE0CE0101960E94A80E68EE73E00E94FB
:104D5000940EBC0186EE9FE00E945E12CE01019689
:104D60000E94390E64E372E080EE9FE00E946612BA
:104D70006EEB75E086E89FE00E94661265EC75E0D8
:104D80008CE89FE00E9466126AED75E082E99FE080
:104D90000E94661266EE7FE088E99FE00E945E1244
:104DA00065EE75E08EE99FE00E94661262EF75E0A5
:104DB00084EA9FE00E94661260E076E08AEA9FE063
:104DC0000E9466126BE076E080EB9FE00E94661224
:104DD00064E176E086EB9FE00E94661260E276E096
:104DE0008CEB9FE00E9466126DE276E082EC9FE021
:104DF0000E9466126AE376E088EC9FE00E946612E9
:104E000062EF7FE08EEC9FE00E945E126CEE7FE02E
:104E100084ED9FE00E945E1268E476E08AED9FE0F8
:104E20000E94661263E576E080E89FE00E946612C9
:104E300069E976E08AE79FE00E9466126CEE76E010
:104E400084E79FE00E9466126BEF76E08EE69FE0BB
:104E50000E9466126CE077E088E69FE00E9466128E
:104E60006BEC73E0CE0101960E94661268E67FE06B
:104E7000CE0101960E94A80EBC0182E69FE00E942E
:104E80005E12CE0101960E94390E68EF72E08CE549
:104E90009FE00E94661268EF72E086E59FE00E9444
:104EA00066128091800F9091810F009711F488EF26
:104EB00092E022E430E13A8329839C838B833E8312
:104EC0002D838AE08F83CE0101960E944415909332
:104ED000550F8093540F80917A0F90917B0F00971C
:104EE00011F488EF92E022E430E13A8329839C8335
:104EF0008B833E832D838AE08F83CE0101960E94AF
:104F000044159093530F8093520F1092430F1092B9
:104F1000420F8AEC92E09093410F8093400F87E21A
:104F20008093440F84E18093490F84E080934A0F7B
:104F300010924B0F68EF72E08CE49FE00E946612C3
:104F400027960FB6F894DEBF0FBECDBFDF91CF918D
:104F50000895CF93DF93CDB7DEB764970FB6F8947B
:104F6000DEBF0FBECDBF789484B5826084BD84B5AA
:104F7000816084BD85B5826085BD85B5816085BD54
:104F800080916E00816080936E001092810080910C
:104F90008100826080938100809181008160809394
:104FA0008100809180008160809380008091B100B9
:104FB00084608093B1008091B00081608093B000E4
:104FC0008091910082608093910080919100816036
:104FD00080939100809190008160809390008091F7
:104FE000A10082608093A1008091A10081608093E4
:104FF000A1008091A00081608093A0008091210198
:105000008260809321018091210181608093210140
:105010008091200181608093200180917A008460DA
:1050200080937A0080917A00826080937A008091E8
:105030007A00816080937A0080917A008068809302
:105040007A001092C10061E08CE00E941E0461E0D1
:105050008CE00E946203E091410EF091420E82E0EA
:105060008083E0913D0EF0913E0E1082E0913F0E64
:10507000F091400E80E180831092490EE091450E40
:10508000F091460E86E08083E091430EF091440E4D
:10509000808180618083E091430EF091440E808195
:1050A00088608083E091430EF091440E8081806897
:1050B0008083E091430EF091440E80818F7D808348
:1050C0000E94EE031092450F80914A0F823018F033
:1050D00098E09093450F8093480F62E370E080E082
:1050E00090E00E94740460914B0F80E49FE00E9466
:1050F0001B0768EE73E080E090E00E94740460E3B8
:1051000080E49FE00E94840A5BE4E52E56E4F52EDD
:10511000C7010197F1F760E380E49FE00E94840AF1
:10512000C7010197F1F760E380E49FE00E94840AE1
:1051300083E592E00197F1F760E280E49FE00E944E
:10514000840A6091450F606240E080E49FE00E9425
:105150009A0A84E08093460F40E06CE080E49FE090
:105160000E949A0A0E94AF0A82E08093470F40E0B3
:1051700066E080E49FE00E949A0A40E062E080E4FA
:105180009FE00E949A0A8BE39FE10197F1F788E084
:1051900080934B0F60E080E49FE00E941B0761E07A
:1051A0008CE10E941E0460E08CE10E94620361E0D9
:1051B0008BE10E941E0460E08BE10E9462036E019D
:1051C00027E0C20ED11C64E5262E6CE0362E81E36A
:1051D0009EE00E94900218161906C4F481E39EE036
:1051E0000E946E029091BC0CE92FF0E0E85AF34F58
:1051F00080838A3009F022C31092BC0C8091580C35
:105200008434D1F18CF5833409F499C08091570C22
:10521000811129C18091330B811123C00E94AF0AF3
:1052200060E080E00E94B90A6FE777E080E49FE0E9
:105230000E945A0D61E080E00E94B90A61E977E0BE
:1052400080E49FE00E945A0D63E080E00E94B90A6A
:1052500065EA77E080E49FE00E945A0D81E0809348
:10526000330B0E943203B3CF853499F08F3471F63B
:1052700081E08093570CCACF8091590C843431F06F
:10528000853421F681E08093080BC0CF1092080B83
:10529000BDCF8091590C8E3429F18935F9F481E024
:1052A000809319020E94AF0A60E080E00E94B90A70
:1052B00062E177E080E49FE00E945A0D61E080E0C7
:1052C0000E94B90A65E277E080E49FE00E945A0DEF
:1052D00068EE73E080E090E00E94740481E08093C7
:1052E000560C94CF109219020E94AF0A60E080E041
:1052F0000E94B90A69E377E080E49FE00E945A0DBA
:1053000061E080E00E94B90A6CE477E080E49FE00D
:105310000E945A0D62E080E00E94B90A62E177E0E3
:1053200080E49FE00E945A0D63E080E00E94B90A89
:105330006BE577E080E49FE00E945A0DCFCF80912B
:10534000590C893481F1823509F060CF80915A0C73
:10535000843591F0893551F08E3409F057CF109291
:10536000550C1092540C0E94610D16C081E0809380
:10537000550C8093540C4ACF1092550C1092540C3B
:105380000E94AF0A60E080E00E94B90A6CE677E014
:1053900080E49FE00E945A0D68E873E180E090E0AD
:1053A0000E94740433CF80915A0C833409F427C2CD
:1053B000E4F4813409F404C2ABE5BCE0E8E4FCE0C9
:1053C000823409F023CF8D9181938A3009F012C283
:1053D00088E49CE00E9464336093440C7093450C15
:1053E0008093460C9093470C11CF8D3431F18E345D
:1053F00009F00CCF80915B0C8093330C80915C0C96
:105400008093340C80915D0C8093350C80915E0C00
:105410008093360C80915F0C8093370C63E37CE0C3
:10542000CE0101960E946612CE0101960E9476126C
:10543000CE0101960E94390EE9CE2BE53CE0A1EEAB
:10544000BCE0AD01415E5C40F90181919F018D930B
:105450008A30B9F7FA01EF51F34F10828091570C5F
:10546000882309F480CF80911802882309F4B3C2FD
:1054700060E875E280E090E00E94730561E080E3FF
:105480000E941E0461E080E30E9462030E94A40463
:105490002B013C010E94A40464197509860997092F
:1054A00068397A438105910508F052C068EE73E0CF
:1054B00080E090E00E9474048091080B882321F022
:1054C0008AEB97E00E946A0C8091080B882331F0E8
:1054D00068EC7FE081E39EE00E94240268EC7FE0BC
:1054E0008AE090E10E94240261E474E0CE0101961A
:1054F0000E94661242E050E060E070E0CE0101964A
:105500000E947817082FCE0101960E94390E8AE07A
:1055100090E1002309F496C10E945D0564E670E005
:1055200080E090E00E94740460EC72E180E090E022
:105530000E94730564E670E080E090E00E947404CD
:105540008091080B882321F08BEC97E00E946A0C75
:105550000E94A4042B013C010E94A4046419750953
:105560008609970968397A438105910558F568EEEF
:1055700073E080E090E00E9474048091080B88231F
:1055800031F066E87FE081E39EE00E94240266E855
:105590007FE08AE090E10E94240261E474E0CE01A1
:1055A00001960E94661242E050E060E070E0CE0199
:1055B00001960E947817082FCE0101960E94390E9D
:1055C000002351F20E94A4042B013C010E94A40478
:1055D000641975098609970968397A438105910527
:1055E00010F00C945F3368EE73E080E090E00E946E
:1055F00074048091080B882331F06AED7FE081E329
:105600009EE00E9424026AED7FE08AE090E10E9421
:10561000240261EF77E0CE0101960E94661245E018
:1056200050E060E070E0CE0101960E947817082FEC
:10563000CE0101960E94390E002341F261E474E02C
:10564000CE0101960E94661245E050E060E070E0F5
:10565000CE0101960E947817082FCE0101960E9474
:10566000390E002359F381E08093320B0E94AF0A78
:1056700060E080E00E94B90A64E079E080E49FE0A5
:105680000E945A0D60ED77E080E090E00E94740483
:105690000E94A4042B013C010E94A4046419750912
:1056A0008609970968397A438105910508F04CC04D
:1056B00068EE73E080E090E00E9474048091080B33
:1056C000882331F06AEA7FE081E39EE00E942402B1
:1056D0006AEA7FE08AE090E10E9424026EEF77E0C0
:1056E000CE0101960E94661245E050E060E070E055
:1056F000CE0101960E947817082FCE0101960E94D4
:10570000390E002349F261E474E0CE0101960E9453
:10571000661245E050E060E070E0CE0101960E9424
:105720007817082FCE0101960E94390E002359F3F5
:105730000E94AF0A60E080E00E94B90A67E179E068
:1057400080E49FE00E945A0D60ED77E080E090E0F9
:105750000E9474040E94A4042B013C0181E0809308
:10576000000B0E94A4046419750986099709683919
:105770007A438105910508F464C11D3409F4D9C147
:105780000CF0A3C0183409F4ECC11C3409F0A3C018
:105790000E94AF0A60E080E00E94B90A69E078E008
:1057A00080E49FE00E945A0D61E080E00E94B90A07
:1057B00060E278E080E49FE00E945A0D1CE48BC018
:1057C0008091340BEBE5FCE0A5E3BBE091919D9368
:1057D0009232E1F78F5F8230C9F71092340B65E3A4
:1057E0007BE0CE0101960E946612CE0101960E94D6
:1057F0009A121ECE2E163F0609F0E5CD07CDABE579
:10580000BCE0E8E3FCE08D9181938A3091F488E379
:105810009CE05AD722E539E44DE15BE30E94A635CE
:10582000609304027093050280930602909307022E
:10583000EDCC3CE0E434F30731F7E8CC9F5F909384
:10584000BC0CE4CC0E945D0564E670E080E090E072
:105850000E94740460EC72E180E090E00E947305A5
:1058600064E670E080E090E00E9474048091080B90
:10587000882321F080EE97E00E946A0C8091080B4B
:10588000882331F068EC7FE081E39EE00E942402EF
:1058900068EC7FE08AE090E10E94240261E474E019
:1058A000CE0101960E94661242E050E060E070E096
:1058B000CE0101960E947817082FCE0101960E9412
:1058C000390E002309F4E6CD3BCE1E3409F419C18C
:1058D000153509F4FEC060ED77E080E090E00E94AD
:1058E00074040E94101B882309F453C10E94D10D37
:1058F00060ED77E080E090E00E9474040E94AF0ABF
:1059000060E080E00E94B90A69E378E080E49FE00B
:105910000E945A0D61E080E00E94B90A6BE478E0D1
:1059200080E49FE00E945A0D60ED77E080E090E017
:105930000E94740443E0E42EF12C1092030B1092A9
:10594000040B1092050B1092060B1092020B109292
:10595000010B8091080B882331F066E87FE081E33A
:105960009EE00E94240266E87FE08AE090E10E94C7
:10597000240261E474E0CE0101960E94661245E0C3
:1059800050E060E070E0CE0101960E947817782E1A
:10599000CE0101960E94390E772009F405C10E94BC
:1059A0003E1F853009F00AC181E08093310B809160
:1059B000310B811131C10E94AF0D60ED77E080E0C5
:1059C00090E00E94740460ED77E080E090E00E9437
:1059D000740410921802F2E0F093ED0E80912D0FF6
:1059E00090912E0FDC01ED91FC910480F581E02D6A
:1059F00000E030E020E041E06DEE7EE01995882384
:105A000009F421C11092300B0E94AF0A60E080E0DF
:105A10000E94B90A61E878E080E49FE00E945A0D94
:105A200061E080E00E94B90A64E978E080E49FE0E8
:105A30000E945A0D68EE73E080E090E00E947404CA
:105A400010CC68EE73E080E090E00E9474048091D6
:105A5000080B882331F060EB7FE081E39EE00E9439
:105A6000240260EB7FE08AE090E10E94240266EE6F
:105A700073E0CE0101960E94661245E050E060E0BE
:105A800070E0CE0101960E947817082FCE01019692
:105A90000E94390E002309F464CE8091FE0A909191
:105AA000FF0A833091056CF19C01235031092B30A2
:105AB000310508F46DCE2B5031092C303105C8F179
:105AC0002C5031092630310508F44BC0809709F479
:105AD00054CE0E94AF0A60E080E00E94B90A69E0FB
