:100000000C94A2010C94B6240C948B240C946024C0
:100010000C9435240C940A240C94DF230C94B42300
:100020000C9489230C94E1240C94E1240C94E12495
:100030000C94D3010C94D3010C94D3010C94D301F0
:100040000C94D3010C94D3010C94D3010C94D301E0
:100050000C94D3010C94D3010C94D3010C943F2342
:100060000C94D3010C9409230C94DF220C94D3013B
:100070000C94D3010C94D3010C94D3010C94D301B0
:100080000C94D3010C94D3010C94D3010C94D301A0
:100090000C94D3010C94D3010C94D3010C945E25E1
:1000A0000C94D3010C94D3010C94D3010C94D30180
:1000B0000C94D3010C94D3010C94D3010C94D30170
:1000C0000C94D3010C94D3010C94D3010C94D30160
:1000D0000C94D3010C94D3010C94D3010C94D30150
:1000E0000C94D3010C94DD120C943A040C94470444
:1000F0000C94F5120C943F070C9450270C94630455
:100100000C94EA060C94292E0C942C070C94EF0204
:100110000C9473070C94B3020C94E3120C94FD132B
:100120000C941C040C9436040C9417040C94EA12DE
:100130000C94F4260C94BA120C9469040C943D04AB
:100140000C94A42D0C9403030C9432040C94E00240
:100150000C944D040C94A50B0C9446070C942E049F
:100160000C9439050C9451050C9414130C947702DB
:100170000C94EE2D0C9451040C94F12A0C94490328
:100180000C94C2050C945F040C949D020C94AB0B70
:100190000C9432020C94E4060C94082E0C94520534
:1001A0000C946D040C9411030C94CF100C94CB2D73
:1001B0000C945B040C94F1120C946F0A0C94AE0531
:1001C0000C9476020C9443040C941D070C94550473
:1001D0000C94B6070C9496030C94E12B0C943C2ED3
:1001E0000C9433024E414E494E495459494E46CD26
:1001F000CCCC3D0AD7233C17B7D13877CC2B3295DE
:1002000095E6241FB14F0A000020410000C84200BB
:10021000401C4620BCBE4CCA1B0E5AAEC59D740085
:10022000002100240027002A002D003000330001A7
:10023000010000040107010A0100000A0B02090C79
:100240000D0E08070304010000000000000000007C
:10025000000000000000000000000000000000009E
:10026000000000000012111000000000000000005B
:10027000000000000000000000000000000000007E
:100280000020002300260029002C002F003200004F
:1002900001000003010601090100002200250028D9
:1002A000002B002E0031003400020100000501087F
:1002B000010B0105050505070508080808020202EB
:1002C000020A0A08080404040401010101010101F1
:1002D000010303030303030303040707070C0C0CC8
:1002E0000C0C0C0C0C0202020206060606060606A0
:1002F000060B0B0B0B0B0B0B0B010210202008083D
:100300001020401020408002010201080402010177
:100310000204081020408080402010080402018060
:1003200004020180402010080402010804020101B7
:1003300002040810204080010204081020408000C0
:100340005027F42611241FBECFEFD1E2DEBFCDBF70
:1003500000E00CBF26E1A6E3B9E001C01D92A63281
:10036000B207E1F719E0A0E0B2E0E8E6FAE700E062
:100370000BBF02C007900D92A633B107D9F711E069
:10038000C1EAD1E000E006C021970109802FFE01FB
:100390000E94B53AC03AD10780E00807A9F70E9449
:1003A00098290C94223D0C940000982F2091FE1166
:1003B00081E0213208F043C08091DA118111FCCF35
:1003C0008091FD1132E03093DA119093D9119FEFB3
:1003D0009093D8111092D7112093D611ADEDB1E1C1
:1003E000E6EBF1E190E0291331C01092B511909144
:1003F000B511880F892B8093B5118091B41181308C
:1004000049F51092B4118091B5118093BB00809191
:10041000BC0083FDF8CF85EC8093BC008091DA119D
:100420008230E1F38091D8118F3FB1F08091D811E3
:100430008032A1F08091D811803391F084E0109245
:10044000DC111092FE111092DB1108953D91319351
:100450009F5FC9CF85EEE0CF80E0F1CF82E0EFCFA4
:1004600083E0EDCF089508959091DA119111FCCFBA
:1004700091E09093DA119093D9112FEF2093D81136
:100480001092D711260F2093D6119093B511909109
:10049000B511880F892B8093B5118091B4118130EB
:1004A000F9F41092B4118091B5118093BB00809142
:1004B000BC0083FDF8CF85EC8093BC008091DA11FD
:1004C0008130E1F38091D711861710F46091D71134
:1004D000A6EBB1E1EBE8F0E180E0861303C00895FC
:1004E00085EEEACF9D9191938F5FF7CF089580912C
:1004F000E30E9091E40EA091E50EB091E60E019608
:10050000A11DB11D8093E30E9093E40EA093E50E20
:10051000B093E60E0895FC012481358162177307BC
:1005200020F480819181009729F41092CB0E8BECFE
:100530009EE00895860F971F08950895DC01ED91C0
:10054000FC910190F081E02D1994DB0114964D91FE
:100550005C9115976D917C91DC01ED91FC9102808D
:10056000F381E02D1994AF92BF92CF92DF92EF9278
:10057000FF920F931F93CF93DF936C017B018B014D
:10058000040F151FEB015E01AE18BF08C017D1079D
:1005900059F06991D601ED91FC910190F081E02D27
:1005A000C6011995892B79F7C501DF91CF911F916C
:1005B0000F91FF90EF90DF90CF90BF90AF90089594
:1005C000FC01538D448D252F30E0842F90E0821B59
:1005D000930B541710F0CF96089501970895FC01DE
:1005E000918D828D981761F0A28DAE0FBF2FB11D36
:1005F0005D968C91928D9F5F9F73928F90E008958E
:100600008FEF9FEF0895FC01918D828D981731F047
:10061000828DE80FF11D858D90E008958FEF9FEF9B
:100620000895FC01918D228D892F90E0805C9F4F71
:10063000821B91098F73992708958FEF91E10E9492
:10064000110321E0892B09F420E0822F0895FC0199
:10065000A48DA80FB92FB11DA35ABF4F2C91848D23
:1006600090E001968F739927848FA689B7892C9380
:10067000A089B1898C91837080648C93938D848DD3
:10068000981306C00288F389E02D80818F7D8083D6
:100690000895EF92FF920F931F93CF93DF93EC0196
:1006A00081E0888F9B8D8C8D98131AC0E889F98919
:1006B000808185FF15C09FB7F894EE89FF8960831C
:1006C000E889F98980818370806480839FBF81E09D
:1006D00090E0DF91CF911F910F91FF90EF900895DF
:1006E000F62E0B8D10E00F5F1F4F0F731127E02EBA
:1006F0008C8D8E110CC00FB607FCFACFE889F989F2
:10070000808185FFF5CFCE010E942703F1CFEB8DCD
:10071000EC0FFD2FF11DE35AFF4FF0829FB7F894C5
:100720000B8FEA89FB8980818062CFCFCF93DF93E3
:10073000EC01888D8823B9F0AA89BB89E889F989F9
:100740008C9185FD03C0808186FD0DC00FB607FC2E
:10075000F7CF8C9185FFF2CF808185FFEDCFCE0161
:100760000E942703E9CFDF91CF91089580E090E0C8
:10077000892B29F00E941D0381110E94000080E056
:1007800090E0892B49F080E090E0892B29F00E94CD
:10079000000081110E94000080E090E0892B49F068
:1007A00080E090E0892B29F00E94000081110E94D6
:1007B000000080E090E0892B49F080E090E0892BF8
:1007C00029F00E94000081110C9400000895282F48
:1007D00030E0F901E75CFD4F9491F901E750FD4FDE
:1007E00044912D543D4FF9012491222309F435C041
:1007F000992311F191509231F8F4E92FF0E0882714
:10080000EB5FFB4F8F4F0C94B53A36043A04170454
:100810002E0432041C043D04430447044D045104D7
:1008200055045B045F041C04630469046D04809137
:1008300080008F7780938000E22FF0E0EE0FFF1FA3
:10084000E756FD4FA591B4918FB7F894EC916111E3
:1008500048C040954E234C938FBF089580918000EF
:100860008F7DE8CF80918000877FE4CF84B58F773C
:1008700084BDE2CF84B58F7DFBCF8091B0008F77B0
:100880008093B000D9CF8091B0008F7DF9CF809157
:1008900090008F7780939000CFCF809190008F7DD4
:1008A000F9CF80919000877FF5CF8091A0008F775E
:1008B0008093A000C1CF8091A0008F7DF9CF80915F
:1008C000A000877FF5CF809120018F778093200152
:1008D000B3CF809120018F7DF9CF80912001877F58
:1008E000F5CF4E2BB8CF1092B3111092B2111092D7
:1008F000DC111092FE111092DA1181E08093D9116F
:100900001092B41161E084E10E94E70361E085E1A7
:100910000E94E703E9EBF0E080818E7F8083808195
:100920008D7F808388E48093B80085E48093BC0049
:1009300082E392E09093B1118093B01183E392E04F
:100940009093AF118093AE110895CF93DF9390E011
:10095000FC01E750FD4F24918D549D4FFC01849183
:100960008823D1F090E0880F991FFC01E15EFD4FD4
:10097000A591B491FC01E756FD4FC591D491611149
:100980000EC09FB7F8948C91E22FE0958E238C9344
:100990002881E223E8839FBFDF91CF9108958FB72D
:1009A000F894EC91E22BEC938FBFF6CF3FB7F8941D
:1009B0008091C70E9091C80EA091C90EB091CA0E39
:1009C00026B5A89B05C02F3F19F00196A11DB11DAA
:1009D0003FBFBA2FA92F982F8827BC01CD01620FE6
:1009E000711D811D911D42E0660F771F881F991FA1
:1009F0004A95D1F708958F929F92AF92BF92CF926E
:100A0000DF92EF92FF924B015C010E94D6046B01D2
:100A10007C010E94D6046C197D098E099F09683EED
:100A2000734081059105A8F321E0821A9108A1087D
:100A3000B10888EEC80E83E0D81EE11CF11C8114B9
:100A40009104A104B10429F7FF90EF90DF90CF90BB
:100A5000BF90AF909F908F9008952FB7F8946091BA
:100A6000C30E7091C40E8091C50E9091C60E2FBF1B
:100A700008952091AD103091AE102817390771F408
:100A80009091AB108091AC10981741F0E091AB10B1
:100A9000F0E0EE53F54F808190E008958FEF9FEFE7
:100AA00008950895EF92FF920F931F93CF93DF93D2
:100AB000DC015C96ED90FC905D97E114F10479F413
:100AC00081E090E013969C938E93129790E080E0E3
:100AD000DF91CF911F910F91FF90EF900895519664
:100AE000ED91FC91529750968C915097982F90953C
:100AF0000FB75E962C915E97122F127021FD6095B4
:100B0000F8942081112319F1282B2083E7012197E4
:100B1000F1F728E0462F50E0308160FF1AC0382BF3
:100B20003083E7012197F1F7BA0175956795215058
:100B300089F7112381F08081892380830FBF5C9620
:100B40008D919C910197F1F781E090E0C1CF29232D
:100B5000DCCF3923E5CF9081892BEFCF2091AD10E9
:100B60003091AE102817390751F48091AC102091C4
:100B7000AB1090E09C5F821B91099370089590E008
:100B800080E008952091AD103091AE1028173907FC
:100B900099F49091AB108091AC10981769F0E091A6
:100BA000AB10F0E0EE53F54F80819091AB109F5F5A
:100BB0009093AB1090E008958FEF9FEF0895E09130
:100BC000AD10F091AE10E817F90769F4A389B48964
:100BD0009C918589809589238C931092AE101092F8
:100BE000AD1081E0089580E008959B01AC01109262
:100BF000F9131092F8131092F7131092F613109243
:100C0000F5131092F41360E079E08DE390E00E9418
:100C1000963AC90103979093FB138093FA1380913E
:100C2000EA1396EF980F943048F06EEC680F64303A
:100C300028F062EC680F683008F06EC0B901769554
:100C40006795635171097093F5136093F413B901BB
:100C5000655071097093F7136093F613B901660F2D
:100C6000771F260F371F36952795369527952C50D9
:100C700031093093F9132093F813943050F02EEC8F
:100C8000280F243030F022EC280FF0E0E0E028308C
:100C900010F4E8E6F0E02081943028F032EC380FD0
:100CA000383008F464C031E0232B943048F09EECD7
:100CB000980F943028F08E53F0E0E0E0883010F484
:100CC000E8E6F0E020832091EA1336EF320F34306B
:100CD00008F44FC08EEC820F843008F44AC082ECD6
:100CE000820F883008F448C090E080E09093F213BF
:100CF0008093F113343008F042C02650330B81E06A
:100D000001C0880F2A95EAF78093F3138091FA13B4
:100D10009091FB130197F1F78091F8139091F913DB
:100D2000892B21F18091AD109091AE1023E18E3D81
:100D30009207E1F0009711F00E94DF058091FC130B
:100D40008E7F8093FC131092AC101092AB108EED3E
:100D500093E19093AE108093AD10E091F113F09178
:100D6000F21380819091F313892B8083089534E0EE
:100D70009BCF8BE690E0BACF8DE690E0B7CF88E0CE
:100D8000223309F4C1CF84E0233309F4BDCF82E0DC
:100D9000243309F4B9CF82EC820F883018F42E5333
:100DA000330BADCF81E0B0CFDC01ED91FC9102843B
:100DB000F385E02D19950895DC01ED91FC910190EA
:100DC000F081E02D1995089564EF71E080E090E0E6
:100DD0000C94FB040C94730485ED8093BC0080910B
:100DE000BC0084FDFCCF1092DA11089520919F0A77
:100DF000260F3327331F21323105ECF42091DA110D
:100E0000FC0190E080E0243069F082E00895A09138
:100E10009F0A2191AC014158554FA40FB52FB11D28
:100E20002C930196861798F380919F0A680F609320
:100E30009F0A80E0089581E00895E091B3118091C8
:100E4000B211E81730F4F0E0E557FF4E808190E0F2
:100E500008958FEF9FEF08959091B3118091B21193
:100E60002FEF3FEF981748F4E92FF0E0E557FF4EDA
:100E7000208130E09F5F9093B311C9010895809164
:100E8000B2119091B311891B990B0895CF92DF9203
:100E9000EF92FF920F931F93CF93DF937C01CB01CF
:100EA0008A012091DB11222389F0EB016B01C40E32
:100EB000D51ECC15DD0569F06991D701ED91FC9146
:100EC0000190F081E02DC7011995F3CF642F0E94A6
:100ED000F606C801DF91CF911F910F91FF90EF901F
:100EE000DF90CF900895CF93DF931F92CDB7DEB7F9
:100EF00069832091DB112223F9F02091FE11203229
:100F000058F021E030E0FC013383228390E080E060
:100F10000F90DF91CF9108958091DC11E82FF0E0E0
:100F2000E352FE4E998190838F5F8093DC11809312
:100F3000FE1181E090E0ECCF61E0CE0101960E94CD
:100F4000F606F7CFFC01248131E03093DB112093CA
:100F5000FD111092DC111092FE118385682B8DEF2C
:100F600092E10E94730781E00C94D50190E080E04B
:100F7000089580339CF08A3324F08F3524F08B372A
:100F800024F481E0089581344CF08B35D4F393ED53
:100F9000980F81E09230B0F380E008958B32B9F77A
:100FA000F0CFFC01A081B1818C918D3021F03CF417
:100FB00089508230A8F51196B183A083F3CF803297
:100FC000D1F38F3209F0089511968C9111978A32DE
:100FD00019F08F32C1F008951196B183A083A081DA
:100FE000B181CD0101969183808311968C911197E7
:100FF0008823B1F08A3299F712968C9112978F322A
:1010000071F71396D9CFA081B181CD01019691835B
:10101000808311968C91882319F08A30A1F7C2CF72
:1010200008951F93CF93DF93EC01162F0E94D107F1
:10103000E881F9818081181308C03196F983E8832B
:1010400081E0DF91CF911F91089580E0FACFFC01FC
:10105000A081B1818C918D3021F03CF48950823097
:10106000A8F51196B183A083F3CF8032D1F38F32EC
:1010700009F0089511968C9111978A3219F08F32E8
:10108000C1F008951196B183A083A081B181CD01F3
:1010900001969183808311968C9111978823B1F0EA
:1010A0008A3299F712968C9112978F3271F71396B4
:1010B000D9CFA081B181CD01019691838083119612
:1010C0008C91882319F08A30A1F7C2CF08951F931D
:1010D000CF93DF93EC01162F0E942708E881F98156
:1010E0008081181308C03196F983E88381E0DF918D
:1010F000CF911F91089580E0FACFEF92FF921F9356
:10110000CF93DF93EC01EC80FD8002960E94D10723
:10111000EA81FB811081173211F0123259F53196B4
:10112000FB83EA83EA81FB8180818823C9F19F01E7
:101130002F5F3F4F3B832A83181791F18C3579F449
:101140008181AEEEB2E09C91992321F0891310C009
:1011500011968C91882321F13296FB83EA83EC81EE
:10116000FD819F012F5F3F4F3D832C838083DACF2A
:101170001296E9CF812F0E94B907EC81FD819F0172
:101180002F5F3F4F882361F08A819B8101969B836B
:101190008A833D832C831083EA81FB811081EACF0F
:1011A000EC81FD81CF0101969D838C831082C70164
:1011B000DF91CF911F91FF90EF900895CF92DF9232
:1011C000FF920F931F93CF93DF938C01DC01149652
:1011D000CD91DC91CA80DB808E819F81C80ED91EA3
:1011E000C80102960E942708D8011296ED91FC9141
:1011F000F080B7E2FB1619F082E2F81241C0319696
:10120000D8011396FC93EE931297D8011296ED91A4
:10121000FC9113978081882309F454C09F012F5FAC
:101220003F4F13963C932E931297F81609F44AC039
:101230008C3591F48181AEEEB2E09C91992321F03E
:1012400089131CC011968C918823E1F13296D80144
:101250001396FC93EE9312974E815F819A012F5F54
:101260003F4F6C817D816217730778F2EA81FB81C1
:10127000E40FF51F3F832E838083C7CF1296DDCF07
:101280008F2D0E94B9074E815F819A012F5F3F4FDA
:101290006C817D818823B1F0F80182819381019670
:1012A000938382836217730738F0EA81FB81E40F2E
:1012B000F51F3F832E83F082D8011296ED91FC91A9
:1012C000F080DECF2E813F81C90101964C815D8186
:1012D0004817590780F0EA81FB81E20FF31F9F83D3
:1012E0008E831082C601DF91CF911F910F91FF90E5
:1012F000DF90CF900895D12CC12CF4CFAF92BF9244
:10130000CF92DF92EF92FF920F931F93CF93DF93D1
:101310005C017B01FC0114810581C12FD02FFB01F1
:10132000C480D58060E38EED93E10E945205BE013A
:101330006C0D7D1D6E5F7F4F8EED93E10E94520517
:1013400060E0CF3FD1050CF0602F8EED93E10E945D
:101350005205612F8EED93E10E94520510E000E0EE
:101360000C171D076CF4B801C5010E948B02FC012B
:1013700060818EED93E10E9452050F5F1F4FF0CF09
:10138000D0E0C0E0CC15DD0564F4BE01C7010E94C9
:101390008B02FC0160818EED93E10E945205219643
:1013A000F1CFDF91CF911F910F91FF90EF90DF90E0
:1013B000CF90BF90AF900895EF92FF920F931F933D
:1013C000CF93DF937C01FC0114810581C12FD02FC5
:1013D00062E88EED93E10E945205BE016B5F7F4F84
:1013E0008EED93E10E94520560E08EED93E10E9444
:1013F00052056AE08EED93E10E94520560E0CF3F16
:10140000D1050CF0602F8EED93E10E945205612F03
:101410008EED93E10E94520510E000E00C171D07CD
:101420006CF4B801C7010E948B02FC0160818EED53
:1014300093E10E9452050F5F1F4FF0CF60E08EEDE9
:1014400093E1DF91CF911F910F91FF90EF900C945A
:10145000520560E18EED93E10E9452056CE08EED45
:1014600093E10E94520560E08EED93E10E945205E7
:1014700064E08EED93E10E9452056DE48EED93E100
:101480000E94520561E58EED93E10E94520564E5EC
:101490008EED93E10E94520564E58EED93E10E948A
:1014A000520564E08EED93E10E94520562E08EEDFC
:1014B00093E10E94520560E08EED93E10E94520597
:1014C0006FE08EED93E10E94520560E08EED93E1B6
:1014D0000E94520560E08EED93E10C945205FC01F0
:1014E00086819781680F791F2481358126173707F8
:1014F00038F022813381820F931F778366830895AA
:1015000090E080E008958091460981110BC010920F
:10151000430910924209109245091092440981E052
:101520008093460982E499E0089580913A098111F7
:101530000BC0109237091092360910923909109297
:10154000380981E080933A0986E399E00895DB0148
:10155000109749F0ED91FC9111970190F081E02DE9
:10156000BC01CD01199490E080E008950F931F9382
:10157000CF93DF93EC018B016881798188E090E063
:101580000E94A70ADC01892B39F011961C921E9249
:1015900013961C921E921297EA81FB81309721F4D8
:1015A000BB83AA8307C0FC01808191810097D9F792
:1015B000B183A08380E0109741F086E0F801129695
:1015C00001900D928A95E1F781E0DF91CF911F9113
:1015D0000F910895CF93DF93EC01688179818AE0C0
:1015E00090E00E94A70A009729F0FC011182108266
:1015F00015821482EA81FB81309721F49B838A83D0
:1016000008C0F9012081318121153105D1F791837D
:101610008083DF91CF910895CF93DF93EC01BC01DC
:1016200084E090E00E94A70A009741F0FC01D1837A
:10163000C08313821282DF91CF910895DF91CF9101
:101640000C94830ACF93DF93EC01BC0184E090E01B
:101650000E94A70A009741F0FC01D183C083138246
:101660001282DF91CF910895DF91CF910C94950A6A
:101670000F931F93CF938C01C62F0E94A2076C2F4C
:101680006460C8010E94A2076C2F6B7FC8010E9492
:10169000A20783EC90E00197F1F7CF911F910F9192
:1016A00008950F931F93CF93DF938C01D62FC42FF0
:1016B000607F642B0E94380B80E1D89FB001112419
:1016C0006C2BC801DF91CF911F910F910C94380BB7
:1016D00040E061E08EE093E10E94510B8BE39FE1DB
:1016E0000197F1F70895CF93DF9300D000D01F92B8
:1016F0001F92CDB7DEB798E0E0E2F2E0DE0111968E
:1017000001900D929A95E1F790911613961710F4A7
:101710006FEF690F262F30E0220F331F41E050E0BA
:101720004C0F5D1F240F351FF9016081680F606841
:1017300040E08EE093E128960FB6F894DEBF0FBE2E
:10174000CDBFDF91CF910C94510B41E00E94510B22
:1017500081E090E008956F927F928F929F92AF9276
:10176000BF92CF92DF92EF92FF920F931F93CF938E
:10177000DF9300D000D0CDB7DEB78C01B62EA72EF8
:10178000742E690186E0E8E2F2E0DE011196019034
:101790000D928A95E1F7F12CE12C66E084E20E943B
:1017A00034021092B3118093B211811112C061E022
:1017B00070E080E090E00E94FB048FEFE81AF80AE6
:1017C000C114D10451F3CE14DF0438F78FEF9FEF2B
:1017D00010C0F801828193810E94D40680FFE7CF78
:1017E000F801828193810E94D406882339F18DEF1C
:1017F0009FEFF12CE12C98E0992E980E692DF0E2E4
:10180000F91508F460E284E20E9434021092B311E8
:101810008093B211811147C061E070E080E090E0F8
:101820000E94FB048FEFE81AF80AC114D10431F3C7
:10183000CE14DF0418F78FEF9FEF45C0F8018281C7
:1018400093810E94D4068111D2CFF80182819381C5
:101850000E94D4068F3F59F6F801828193810E943D
:10186000D406682E81E08093DB1184E28093FD1121
:101870001092DC111092FE11CE0101967C014E01F6
:1018800097E0890E911CF70161917F01F801828137
:1018900093810E94DC06E814F904A9F781E00E9414
:1018A000D501862DA6CFF801828193810E94D406AE
:1018B00080FFB2CFF801828193810E94D4068823F1
:1018C000B9F08DEF9FEF26960FB6F894DEBF0FBEEE
:1018D000CDBFDF91CF911F910F91FF90EF90DF90DF
:1018E000CF90BF90AF909F908F907F906F90089512
:1018F000F801828193810E94D4068111E2CFF80120
:10190000828193810E94D4068F3FD9F6F8018281AB
:1019100093810E94D406F82EF801828193810E945F
:10192000D4068F0D71F6F801E480DD24D394DE0C2B
:10193000828193810E94D406853D19F6F801828147
:1019400093810E94D406D812BCCFFA94FA948CEFFB
:101950009FEF7F1408F4B7CFF6EDEF0E9B2CCB2C46
:10196000DA2CF801828193812C2D29192F1538F456
:101970000E94D406F60181936F01E80EF2CF0E9417
:10198000D4068E0D09F09DCFF801828193810E94CB
:10199000D4068F2D90E097CFFB0101900020E9F74E
:1019A0003197AF01461B570BDC01ED91FC91028092
:1019B000F381E02D199464EF73E08FEF91E10C94C3
:1019C000CC0CCF93DF93BC018FEF91E10E94A50275
:1019D000EC010E94DB0C8C0F9D1FDF91CF910895CD
:1019E0008F929F92AF92BF92EF92FF920F931F93AD
:1019F000CF93DF93CDB7DEB7A1970FB6F894DEBFD4
:101A00000FBECDBF7C01FA01CB0119A2223008F430
:101A10002AE08E010F5D1F4F822E912CB12CA12C3C
:101A2000BF01A50194010E94743AF901CA016A300C
:101A30000CF5605DD8016E938D01232B242B252B93
:101A400079F790E080E0109721F0BD01C7010E9476
:101A5000CC0CA1960FB6F894DEBF0FBECDBFDF91C0
:101A6000CF911F910F91FF90EF90BF90AF909F90FB
:101A70008F900895695CDECFCF93DF93BC018FEF29
:101A800091E10E94CC0CEC010E94DB0C8C0F9D1F9D
:101A9000DF91CF9108952F923F924F925F926F9274
:101AA0007F928F929F92AF92BF92CF92DF92EF92EE
:101AB000FF921F93CF93DF93EC016A017B01722E9B
:101AC000AB019601CB01B6010E945B3A69EF72E06F
:101AD000811126C046015701E894B7F82FEF3FEF78
:101AE0004FE75FE7C501B4010E945B3A81110CC06A
:101AF0002FEF3FEF4FE75FE7C501B4010E940038C9
:101B00006DEF72E0181664F02FEF3FEF4FE75FE4E0
:101B1000C701B6010E94563A1816B4F461E073E0AA
:101B2000CE01DF91CF911F91FF90EF90DF90CF908A
:101B3000BF90AF909F908F907F906F905F904F90ED
:101B40003F902F900C94CC0C2FEF3FEF4FE75FECC2
:101B5000C701B6010E94003887FDE0CF20E030E0E9
:101B6000A901C701B6010E940038312C212C87FF42
:101B700009C06DE2CE010E949E021C01F7FAF094AA
:101B8000F7F8F09410E060E070E080E09FE37116F9
:101B900041F020E030E040E251E40E94AE391F5FA6
:101BA000F6CFA70196010E9442392B013C010E9409
:101BB000273A4B015C012AE0BC01A401CE010E943E
:101BC000F00C7C01E20CF31C1123C1F1C501B4013E
:101BD0000E9405389B01AC01C301B2010E9441394A
:101BE0004B015C016EE2CE010E949E02E80EF91EDE
:101BF000115020F120E030E040E251E4C501B40191
:101C00000E9466382B013C010E94273A4B01B12CFF
:101C1000A12C2AE0B501A401CE010E94F00CE80E2F
:101C2000F91EC501B4010E9405389B01AC01C30136
:101C3000B2010E9441394B015C01DACFC701DF914B
:101C4000CF911F91FF90EF90DF90CF90BF90AF901A
:101C50009F908F907F906F905F904F903F902F90CC
:101C600008956115710511F00C94CC0C90E080E0A2
:101C70000895CF93DF930E94680B1092AD1165E039
:101C800073E08FEA90E10E944136EC01892BA1F0CC
:101C90006091AD1180E00E94730BBE018EE093E174
:101CA0000E94310E8091AD118F5F8093AD1165E080
:101CB00073E090E080E0E7CFDF91CF9108950E943C
:101CC000680B60E080E00E94730B67E073E08EE0D9
:101CD00093E10E94310E61E080E00E94730B64E1A9
:101CE00073E08EE093E10C94310E0E94680B60E08B
:101CF00080E00E94730B65E273E08EE093E10E9446
:101D0000310E61E080E00E94730B66E373E08EE0C9
:101D100093E10C94310E0E94680B60E080E00E9419
:101D2000730B6DE373E08EE093E10C94310E0E942F
:101D3000680B60E080E00E94730B6EE473E08EE05D
:101D400093E10E94310E61E080E00E94730B61E636
:101D500073E08EE093E10C94310E0E94680B60E01A
:101D600080E00E94730B68E673E08EE093E10E94CE
:101D7000310E61E080E00E94730B6AE773E08EE051
:101D800093E10C94310E0E94680B60E080E00E94A9
:101D9000730B6AE873E08EE093E10C94310E0E94BD
:101DA000680B60E080E00E94730B67E973E08EE0EF
:101DB00093E10C94310EFC0180819181009711F028
:101DC0000C941A3660E070E0CB0108950F931F93D6
:101DD000CF93DF938C01EB01FC018081918100970F
:101DE000E1F06881798161157105A9F04281538123
:101DF0002C813D814217530770F00E940C3D8C816D
:101E00009D81F801958384831D821C82DF91CF918F
:101E10001F910F9108950E94833B88819981F80159
:101E2000918380838A819B81938382838C819D812E
:101E300095838483198218821B821A82E5CFCF93FF
:101E4000DF93EC0188819981009711F00E94833B18
:101E5000198218821D821C821B821A82DF91CF9107
:101E60000895FC0180819181009711F00C94833BCF
:101E700008950F931F93CF93DF93EC01888199818D
:101E8000009759F02A813B812617370730F081E00F
:101E9000DF91CF911F910F9108958B016F5F7F4F5D
:101EA0000E940C3C009759F0998388831B830A8316
:101EB0002C813D81232B59F7FC011082E8CF80E073
:101EC000E7CFEF92FF920F931F93CF93DF936115AC
:101ED000710541F480E0DF91CF911F910F91FF9048
:101EE000EF90089541155105B1F07B01EC010C8193
:101EF0001D81040F151FB8010E94390F882351F36B
:101F0000288139818C819D81B701820F931F0E94A6
:101F10000C3D1D830C8381E0DECFCF93DF93EC017A
:101F2000FB0101900020E9F73197AF01461B570BE9
:101F30000E94610F811103C0CE010E941F0FCE01CC
:101F4000DF91CF910895CF93DF93EC01FB014481A2
:101F50005581608171810E94610F811103C0CE01A2
:101F60000E941F0FCE01DF91CF910895CF93DF9391
:101F70001F921F92CDB7DEB769831A8241E050E00D
:101F8000BE016F5F7F4F0E94610F0F900F90DF9136
:101F9000CF910895CF93DF93EC01E881F98180819F
:101FA00091810E94B60F8A819B8101969B838A83CF
:101FB000DF91CF910895EF92FF920F931F93CF93EC
:101FC000DF93EC01E880F980D7018D919C91FC01B1
:101FD000048115816115710551F0FB01019000200C
:101FE000E9F73197AF01461B570B0E94610FD701EC
:101FF000ED91FC91848195812A813B81820F931F11
:10200000801B910B9B838A83DF91CF911F910F914E
:10201000FF90EF9008950F931F93CF93DF93CDB769
:10202000DEB766970FB6F894DEBF0FBECDBF9C013A
:10203000CB011E8AFE0176960AE010E0B8010E94EC
:10204000603A805D8293CB010097C1F7BF01C9015F
:102050000E94DB0F66960FB6F894DEBF0FBECDBFB1
:10206000DF91CF911F910F910895FF920F931F93CE
:10207000CF93DF936115710549F46BEA73E0DF914B
:10208000CF911F910F91FF900C94DB0F8B01EC010E
:1020900062E2CE010E94CA0FF80161918F016623AE
:1020A00051F0EAEEF2E0F080FF2099F381816817A9
:1020B00059F03296F8CF62E2CE01DF91CF911F91B5
:1020C0000F91FF900C94CA0F6CE5CE010E94CA0FCD
:1020D0006F2DDFCF0F931F93CF93DF938C01EB0115
:1020E0006BE7CE010E94CA0FF8010281138101152E
:1020F0001105D1F0F80162817381CE010E94351083
:102100006AE3CE010E94CA0FBE01C80104960E9474
:102110009C10F801008111810115110529F06CE274
:10212000CE010E94CA0FE3CF6DE7CE01DF91CF91C0
:102130001F910F910C94CA0F2F923F924F925F9272
:102140006F927F928F929F92AF92BF92CF92DF92C7
:10215000EF92FF920F931F93CF93DF93CDB7DEB72C
:102160006C970FB6F894DEBF0FBECDBFDC01ED91CA
:10217000FC9111973197E830F10508F0D7C11B01A8
:102180008C018827E953FF4E8F4F0C94B53AEA1221
:10219000E3121413F512F112BA12DD12CF10FD0181
:1021A0004280538064807580A3019201C301B20113
:1021B0000E9400386BEB73E081110FC220E030E029
:1021C000A901C301B2010E94003887FF08C06DE277
:1021D000C1010E94CA0F77FA709477F8709420E0DA
:1021E00030E0A901C301B2010E940038882389F0C0
:1021F000A3019201C301B2010E9442399B01AC01CB
:10220000C301B2010E9400386FEB73E0882309F428
:10221000E4C120E836E948E15BE4C301B2010E9471
:10222000563A87FD7FC0A6E9EA2EA2E0FA2EB6E66E
:10223000CB2EB2E0DB2E1EE7A12E12E0B12E00E283
:1022400010E0188E1F8AD7015E914E913E912E911B
:102250007D01C301B2010E94563A87FD11C0F6010B
:102260002489358946895789C301B2010E9466389D
:102270002B013C018F89988D800F911F988F8F8B38
:102280001595079594E0C91AD108AE14BF04D9F684
:1022900099249A9420E030E0A901C301B2010E9480
:1022A000563A18160CF045C02CEA35EC47E257E3D5
:1022B000C301B2010E9400381816DCF1A92DB4E068
:1022C000AB0250011124D12CC12CEFEF9E1689F1E5
:1022D0007501EC0CFD1CF701E25BFD4FA3019201BF
:1022E00060817181828193810E94563A18169CF414
:1022F000F701E258FD4F2081318142815381C301B2
:10230000B2010E9466382B013C018F89988D801B99
:10231000910B988F8F8B159507959A9494E0C91A15
:10232000D108D3CF00E210E0E5E09E2E188E1F8A80
:10233000B1CFC301B2010E94273A6B017C014B016E
:102340005C0106E080E492E4AFE0B0E0898F9A8F10
:10235000AB8FBC8F102F01509AE089169104A10415
:10236000B104C8F0698D7A8D8B8D9C8D2AE030E0A8
:1023700040E050E00E94743A298F3A8F4B8F5C8F77
:10238000C501B4012AE030E040E050E00E94743A18
:1023900049015A01DFCFC701B6010E9405389B01F0
:1023A000AC01C301B2010E9441394B015C01698D4E
:1023B0007A8D8B8D9C8D0E9405389B01AC01C501E7
:1023C000B4010E9466384B015C010E94273A2B0140
:1023D0003C010E9405389B01AC01C501B4010E947B
:1023E00041399B01AC010E9442390E94273A460EB6
:1023F000571E681E791E898D9A8DAB8DBC8D48162F
:1024000059066A067B06D8F09FEFC91AD90AE90A6D
:10241000F90AAF89B88DAB2B39F1BAE0CB16D104EC
:10242000E104F10408F1EF89F88D3196F88FEF8B14
:10243000412C512C3201C12CD12C7601C3945AE08D
:10244000852E912CA12CB12CC301B201A5019401C0
:102450000E94743A672B682B692B51F4111644F4CF
:1024600029013A011150F0CF412C512C3201E7CF14
:102470001E8ACE0146969A8F898F4AE0842E912C2F
:10248000A12CB12CC701B601A50194010E94743A98
:10249000605DA98DBA8D6E93BA8FA98F69017A019B
:1024A000C114D104E104F10469F7BD01C1010E9426
:1024B000DB0F112351F1188A6E01B0E1CB0ED11C54
:1024C000012F76013AE0832E912CA12CB12C0150E2
:1024D00068F0C301B201A50194010E94743A605DE5
:1024E000F60162936F0129013A01F1CF612F70E08B
:1024F000F701E61BF70B31978EE2808360957095AC
:102500006E0D7F1DC1010E94DB0F8F89988D97FF93
:1025100026C068EC73E0C1010E94DB0F6F89788DE3
:10252000719561957109C1010E940B106C960FB6EF
:10253000F894DEBF0FBECDBFDF91CF911F910F91F9
:10254000FF90EF90DF90CF90BF90AF909F908F90D3
:102550007F906F905F904F903F902F900895AF893C
:10256000B88DAB2B19F365E6C1010E94CA0F6F89C4
:10257000788DD9CFFD01028113816BE5C1010E94E5
:10258000CA0FD80112960D911C910115110581F009
:10259000B101C80102960E949C10F80100811181CE
:1025A0000115110529F06CE2C1010E94CA0FEDCF9F
:1025B0006DE5C1010E94CA0FB9CF12968D919C9111
:1025C0000E946A10B3CFFD0162817381C1010E9434
:1025D0003510ACCF12966D917C91C1010E94DB0F3A
:1025E000A5CF6DE2C1010E94CA0FF801628173811B
:1025F000848195811E8A8E010A5E1F4F2AE0C22EB9
:10260000D12CE12CF12CA70196010E94743A605D57
:10261000D8016E938D01B901CA016115710581055B
:10262000910589F7BD01D9CFFD0182819381A481F4
:10263000B58160EB73E0892B8A2B8B2B71F665EBF0
:1026400073E0CBCFEF92FF920F931F93CF93DF9363
:10265000EC017B018A01BA010E94390F81110BC084
:10266000CE010E941F0FCE01DF91CF911F910F91DC
:10267000FF90EF9008951D830C83B70188819981A5
:102680000E940C3DF0CFFB0101900020E9F731974B
:10269000AF01461B570B0C942213CF93DF931F926D
:1026A0001F92CDB7DEB7FC01118210821382128215
:1026B0001582148269831A82BE016F5F7F4F0E9468
:1026C00043130F900F90DF91CF910895CF93DF9335
:1026D000EC01FB018617970749F060817181611554
:1026E000710541F0448155810E942213CE01DF9192
:1026F000CF9108950E941F0FF9CFFC011182108223
:1027000013821282158214820C946613FC011182CA
:1027100010821382128215821482FB010190002024
:10272000E9F73197AF01461B570B0C942213CF9357
:10273000DF9300D000D0CDB7DEB7BC0186E393E1D4
:102740000E9466136BEC73E0CE0101960E94861323
:1027500066E373E1CE0101960E94A30FBC0180E302
:1027600093E10E946613CE0101960E94310F2696D6
:102770000FB6F894DEBF0FBECDBFDF91CF910895A5
:10278000CF93DF9300D000D0CDB7DEB7BC0182ED90
:1027900093E10E9466136AED73E0CE0101960E94F8
:1027A000861362ED73E1CE0101960E94A30F6DEED8
:1027B00073E00E948D0FBC0184EB93E10E946613CD
:1027C000CE0101960E94310F64EB73E186E693E13E
:1027D0000E9466138091D60E882331F066E673E17D
:1027E0008FEF91E10E94A50226960FB6F894DEBF06
:1027F0000FBECDBFDF91CF9108955F926F927F9210
:102800008F929F92AF92BF92CF92DF92EF92FF9200
:102810000F931F93CF93DF93CDB7DEB72C970FB6EF
:10282000F894DEBF0FBECDBF7C016B01842EB22EAB
:10283000532EFB018081F70184838281938121E003
:102840002093DB1124E22093FD111092DC111092F1
:10285000FE1160E00E94DC0660E0F7018281938156
:102860000E94DC066FEFF701828193810E94DC06F3
:10287000182D100F61E0610FF701828193810E9492
:10288000DC06612F6095F701828193810E94DC064E
:1028900064EDF701828193810E94DC068C0C9D2CF3
:1028A000911C14EDF70182819381C814D904C9F4F5
:1028B000CB2CD52C5601A00EB11CF701828193813F
:1028C000AC14BD0499F14601F60160810E94DC065A
:1028D000882371F0FFEFCF1ADF0AF4018081180F0F
:1028E000ECCF3601F60160810E94DC06811117C031
:1028F0008DEF2C960FB6F894DEBF0FBECDBFDF91E3
:10290000CF911F910F91FF90EF90DF90CF90BF90EC
:10291000AF909F908F907F906F905F900895FFEFA2
:10292000CF1ADF0AF3018081180FBCCF612F6195A8
:102930000E94DC0660E0F701828193810E94DC0640
:1029400081E00E94D50186E0EEE2F2E0DE0117961A
:1029500001900D928A95E1F70BE010E067E084E2C8
:102960000E9434021092B3118093B21181110BC0F6
:1029700061E070E080E090E00E94FB0401501109EA
:1029800069F78EEFB6CFF701828193810E94D4065A
:1029900080FFEECF8E010F5F1F4F6E01F7E0CF0E6D
:1029A000D11C5801F701828193810E94D406F8015D
:1029B00081938F01CE16DF06A9F746E050E0B601FD
:1029C000C5010E94ED3C21E0892B09F420E0822F13
:1029D00081958FCF0F931F93CF93DF938B01FC01D2
:1029E000C281D381209759F06A817B81011511053D
:1029F00019F06115710549F46017710759F4CE019A
:102A0000DF91CF911F910F910895C8010E94033D5E
:102A1000892BA9F30990D881C02DE4CFEF92FF92C2
:102A20000F931F93CF93DF938C0167EF73E00E94A6
:102A3000EA14EC01892B91F4C8010E94EA0AEC0126
:102A4000892B41F480E0DF91CF911F910F91FF908E
:102A5000EF90089587EF93E09B838A8380913613EC
:102A600090913713892B19F1D8018D919C91009188
:102A70003A1310913B130F5F1F4FDC01ED91FC9156
:102A80000190F081E02DB80119957C010097D1F2F9
:102A90006091361370913713A8010E94FA3C82E0CE
:102AA00090E09D838C83FF82EE8281E0CCCF82E038
:102AB00090E09D838C831F821E82F7CFCF93DF939C
:102AC000CDB7DEB7AA970FB6F894DEBF0FBECDBF65
:102AD0002AE233E13AA729A79E01275D3F4F3EA393
:102AE0002DA318A61FA2FC016281738180819181B0
:102AF0000E94EA14FC0190E080E0309799F096E0A3
:102B00003496DE01119601900D929A95E1F786E0D8
:102B1000FE013196DE01179601900D928A95E1F73C
:102B200089819A8198878F8386E0FE013796DE013E
:102B30001D9601900D928A95E1F786E0FE013D9683
:102B4000DE01539601900D928A95E1F786E0FE0131
:102B50007396DE01599601900D928A95E1F786E011
:102B6000FE017996DE015F9601900D928A95E1F75C
:102B7000BE016B5D7F4FCE014F960E949C108FA1CE
:102B800098A5AA960FB6F894DEBF0FBECDBFDF9111
:102B9000CF910895CF93DF93EB01FC0162817381A4
:102BA000808191810E94EA14FC01892B09F452C0B2
:102BB000848195818330910548F5019708F44AC0D6
:102BC0000680F781E02D309709F444C0808161E0F0
:102BD00070E0843749F18B32B9F18D32B1F531961D
:102BE00091E070E060E04AE0819120ED280F2A300A
:102BF00070F5469F9001479F300D1124682F880F74
:102C0000770B60537109620F731FEECF853091050A
:102C100048F0059799F066817781808591850E94BB
:102C2000203A02C06681778181E0288139812617A8
:102C3000370709F080E0DF91CF91089566817781B1
:102C4000719561957109F0CF319690E0CACF9111DD
:102C5000F7CFEACF70E060E0E7CFEF92FF920F93FB
:102C60001F93CF93DF938C01EB017A010E94EA144A
:102C7000009741F4C8010E94EA0A0097C9F0FC01DC
:102C8000D383C283F701408151816281738124E043
:102C900030E0FC0135832483468357836087718746
:102CA00081E0DF91CF911F910F91FF90EF900895F8
:102CB00080E0F7CFEF92FF920F931F93CF93DF93B4
:102CC0008C01EB017A010E94EA14009741F4C801DB
:102CD0000E94EA0A009799F0FC01D383C28326E0A0
:102CE000F701DC01149601900D922A95E1F781E03D
:102CF000DF91CF911F910F91FF90EF90089580E0A9
:102D0000F7CFAF92BF92CF92DF92EF92FF920F93E5
:102D10001F93CF93DF9300D000D0CDB7DEB78C01E7
:102D2000FC018681811104C00E94830A6C0144C0A9
:102D300081508683819191917F010E940C0B6C01DF
:102D40006BE7C7010E946708882371F36DE7C7012D
:102D50000E94670881112CC0C8010E94DE085C0136
:102D6000892B11F36AE3C7010E9467088823E1F207
:102D70001A821982BE016F5F7F4FC8010E94EE1652
:102D8000882391F2AE014F5F5F4FB501C6010E94EB
:102D90005A16882349F26DE7C7010E94670881111E
:102DA00007C06CE2C7010E9467088111D5CFBCCF74
:102DB000F80186818F5F8683C60126960FB6F89448
:102DC000DEBF0FBECDBFDF91CF911F910F91FF905E
:102DD000EF90DF90CF90BF90AF900895AF92BF92E9
:102DE000CF92DF92EF92FF920F931F93CF93DF93D7
:102DF00000D000D0CDB7DEB78C016B015C0182E062
:102E0000A80EB11CC5010E942708D8011296ED91A9
:102E1000FC91139780818B3501F18B3709F47FC0CA
:102E2000FF24F394873219F0823209F0F12CC801A3
:102E30000E94DE08009709F455C021E030E0FF2031
:102E400009F477C022E030E0D60111963C932E932E
:102E500013969C938E93129746C0F8018681811138
:102E600004C00E94950A7C0138C0815016968C934C
:102E700016978D919C910E94220B7C016BE5C501F8
:102E80000E946708882369F36DE5C5010E94670801
:102E900081111FC01A821982BE016F5F7F4FC80166
:102EA0000E94EE168823E9F2BE016F5F7F4FC701D3
:102EB0000E94B60A8823A9F26DE5C5010E94670841
:102EC000811107C06CE2C5010E9467088111E2CF41
:102ED000C8CFF80186818F5F8683D7018D919C9141
:102EE000892B99F4F12C8F2D26960FB6F894DEBF1E
:102EF0000FBECDBFDF91CF911F910F91FF90EF904B
:102F0000DF90CF90BF90AF90089586E090E0F601FB
:102F100091838083F382E282FF24F394E4CFC8019B
:102F20000E948116DC012D913C91232BD9F227E0E0
:102F300030E0F6013183208393838283EDCFAF921B
:102F4000BF92CF92DF92EF92FF920F931F93CF9396
:102F5000DF9300D000D0CDB7DEB78C01FC018681B5
:102F6000811104C00E94830A6C0144C08150868391
:102F7000819191917F010E940C0B6C016BE7C7015D
:102F80000E941108882371F36DE7C7010E941108A0
:102F900081112CC0C8010E947D085C01892B11F3AE
:102FA0006AE3C7010E9411088823E1F21A8219829C
:102FB000BE016F5F7F4FC8010E940C18882391F2F9
:102FC000AE014F5F5F4FB501C6010E945A168823BC
:102FD00049F26DE7C7010E941108811107C06CE238
:102FE000C7010E9411088111D5CFBCCFF80186819D
:102FF0008F5F8683C60126960FB6F894DEBF0FBE9C
:10300000CDBFDF91CF911F910F91FF90EF90DF9097
:10301000CF90BF90AF900895AF92BF92CF92DF92C2
:10302000EF92FF920F931F93CF93DF9300D000D0C6
:10303000CDB7DEB78C016B015C0182E0A80EB11C3C
:10304000C5010E94D107D8011296ED91FC9113970A
:1030500080818B3501F18B3709F47FC0FF24F39415
:10306000873219F0823209F0F12CC8010E947D08E4
:10307000009709F455C021E030E0FF2009F477C043
:1030800022E030E0D60111963C932E9313969C9348
:103090008E93129746C0F8018681811104C00E9468
:1030A000950A7C0138C0815016968C9316978D91A5
:1030B0009C910E94220B7C016BE5C5010E941108C6
:1030C000882369F36DE5C5010E94110881111FC0B5
:1030D0001A821982BE016F5F7F4FC8010E940C18CF
:1030E0008823E9F2BE016F5F7F4FC7010E94B60AD5
:1030F0008823A9F26DE5C5010E941108811107C05E
:103100006CE2C5010E9411088111E2CFC8CFF8011D
:1031100086818F5F8683D7018D919C91892B99F44D
:10312000F12C8F2D26960FB6F894DEBF0FBECDBFC3
:10313000DF91CF911F910F91FF90EF90DF90CF9093
:10314000BF90AF90089586E090E0F6019183808370
:10315000F382E282FF24F394E4CFC8010E949F1718
:10316000DC012D913C91232BD9F227E030E0F601D0
:103170003183208393838283EDCF3F924F925F927E
:103180006F927F928F929F92AF92BF92CF92DF9277
:10319000EF92FF920F931F93CF93DF93CDB7DEB7DC
:1031A000C650D2400FB6F894DEBF0FBECDBF3C0173
:1031B0006A017B0168EF72E0CE018F5F9D4F0E9434
:1031C0008613A8EEB3E0A70196010E9427396B0190
:1031D0007C0119820E942D054B015C01F301848161
:1031E0009581892B09F4FDC00081118160E074E0B4
:1031F000C8010E94033D892B09F50E942D0568191D
:1032000079098A099B096C157D058E059F0508F0D3
:1032100034C18EED93E10E94AE05181619066CF7C5
:103220008EED93E10E94C2058E3339F76AEF70E0AC
:1032300080E090E00E94FB0411E0F0C066E578E0D9
:10324000C8010E94033D892B41F062E074E0C8018F
:103250000E94033D892B09F0C4C00E942D05681906
:1032600079098A099B096C157D058E059F0508F073
:1032700004C18EED93E10E94AE05181619066CF795
:103280008EED93E10E94C205811109C08091510920
:10329000909152090196909352098093510980911F
:1032A0005109909152090297C1F66AEF70E080E0EF
:1032B00090E00E94FB041092520910925109BCCF79
:1032C000442443940E942D05681979098A099B09B1
:1032D0006C157D058E059F0508F09EC08EED93E16F
:1032E0000E94AE05181619066CF78EED93E10E9448
:1032F000C205582E8091D60E882329F0652D8FEFB8
:1033000091E10E949E028091CE0E882319F1FCE289
:103310005F1204C01092500930924F0980915009F9
:10332000882329F0652D8EEA93E10E94B60F80E292
:10333000581202C03092500980914F09882351F0F1
:103340008EEA93E10E94DB0E7093CD0E6093CC0E5B
:103350001092CE0EEDE05E1619F0FAE05F124AC050
:10336000E1E0F0E0EC0FFD1FE00FF11F10828AE0BA
:103370005812A8CF8981882309F4A2CFBE016F5FBC
:103380007F4FCE018F5F9D4F0E944313FE01319608
:10339000CE018F5F9D4F11928E179F07E1F7CB5F94
:1033A000DD4F28813981C550D240F3018481958158
:1033B0002817390709F061C0CF5FDD4F88819981F7
:1033C000C150D24060817181009709F446C06115F7
:1033D000710569F4232B09F42FCFFC01808190E063
:1033E00049C0412C10E000E0332433946BCF0E949D
:1033F000033D40C0E1E0F0E0EC0FFD1FE00FF11FE6
:103400005082B801C3010E948B02FC0180818511AA
:1034100059CF0F5F1F4F56CF442079F1CE018F5FF8
:103420009D4F0E94310F812FCA5FDD4F0FB6F89478
:10343000DEBF0FBECDBFDF91CF911F910F91FF90E7
:10344000EF90DF90CF90BF90AF909F908F907F9044
:103450006F905F904F903F9008956115710509F44A
:10346000EBCE232B09F4E8CEFB01808190E091950F
:1034700081959109892B09F4DFCE10E0CFCFAF926F
:10348000BF92CF92DF92EF92FF920F931F93CF9351
:10349000DF93CDB7DEB72C970FB6F894DEBF0FBE23
:1034A000CDBF68EF72E0CE0107960E9486130E949E
:1034B0002D056B017C018091D60E882331F064E0EC
:1034C00074E08FEF91E10E94310E64E074E08EEDC4
:1034D00093E10E94310E0E942D056C197D098E0921
:1034E0009F0968397A438105910508F42FC166E484
:1034F00074E0CE0101960E94861345E050E060E042
:1035000070E0CE0101960E94BD18CE0101960E9486
:10351000310F60915309CE0101960E944D13BE01F7
:103520006F5F7F4FCE0107960E94E60ECE01019697
:103530000E94310F60915409CE0107960E94B60F88
:10354000CE0107960E94DB0E162F60915609CE0120
:1035500001960E944D13BE016F5F7F4FCE0107960B
:103560000E94E60ECE0101960E94310F609157092C
:10357000CE0107960E94B60FCE0107960E94DB0E81
:10358000062F60915909CE0101960E944D13BE018C
:103590006F5F7F4FCE0107960E94E60ECE01019627
:1035A0000E94310F60915A09CE0107960E94B60F12
:1035B000CE0107960E94DB0EB62E60915C09CE010B
:1035C00001960E944D13BE016F5F7F4FCE0107969B
:1035D0000E94E60ECE0101960E94310F60915D09B6
:1035E000CE0107960E94B60FCE0107960E94DB0E11
:1035F000F62E60915F09CE0101960E944D13BE0127
:103600006F5F7F4FCE0107960E94E60ECE010196B6
:103610000E94310F60916009CE0107960E94B60F9B
:10362000CE0107960E94DB0EA62E60916209CE01A4
:1036300001960E944D13BE016F5F7F4FCE0107962A
:103640000E94E60ECE0101960E94310F609163093F
:10365000CE0107960E94B60FCE0107960E94DB0EA0
:10366000462F80911514E12F012E000CFF0BE80F5F
:10367000F11D87FDFA95AF2DFF0CBB0B20E13EE05D
:103680000E94C43A6B017C01AA2DAA0CBB0B2CE34F
:1036900030E00E94C43AC60ED71EE81EF91E042E62
:1036A000000C550B660B770BC40ED51EE61EF71EDD
:1036B000DF0120E833E341EE51E00E94CB3AC60E31
:1036C000D71EE81EF91EA02FAA0FBB0BA550BC4E9B
:1036D0000D90BC91A02DAB0DB11DB7FCBA95CF01DB
:1036E000029697FD03969595879595958795A80FD2
:1036F000B91F119720E831E541E050E00E94CB3A34
:10370000C60ED71EE81EF91E137049F403303CF4B0
:1037100080E8C81A81E5D80A81E0E80AF108CE01FC
:1037200007960E94310FC701B6012C960FB6F89488
:10373000DEBF0FBECDBFDF91CF911F910F91FF90E4
:10374000EF90DF90CF90BF90AF9008958EED93E112
:103750000E94AE05181619060CF0BDCE8EED93E151
:103760000E94C2058093CF0E9091D60E992329F026
:10377000682F8FEF91E10E949E022091CF0E22329E
:1037800029F48091D00E8F5F8093D00E8091D00E5F
:103790008130D9F4223209F49ECE8091D10E9091DD
:1037A000D20EA091D30EB091D40EFC01ED5AF64F7B
:1037B00020830196A11DB11D8093D10E9093D20E4E
:1037C000A093D30EB093D40E86CE823009F083CE70
:1037D000E091D10EF091D20EED5AF64F1082109278
:1037E000D10E1092D20E1092D30E1092D40E1092CF
:1037F000D00E8091D60E882309F479CE0E94DB0C7E
:103800006FE074E08FEF91E10E94310E83E599E063
:103810000E943C0D6CCECF92DF92EF92FF921F93ED
:10382000CF93DF9300D000D0CDB7DEB70E942D0537
:103830006B017C010E942D056C197D098E099F0981
:1038400068397A4381059105D0F568EE73E080E030
:1038500090E00E94FB048091D60E882331F06AE844
:1038600073E18FEF91E10E94A5026AE873E18EEDAA
:1038700093E10E94A50266E474E0CE0101960E94E5
:10388000861345E050E060E070E0CE0101960E94B2
:10389000BD18182FCE0101960E94310F112351F24D
:1038A000812F26960FB6F894DEBF0FBECDBFDF91F5
:1038B000CF911F91FF90EF90DF90CF90089510E08F
:1038C000EFCFCF92DF92EF92FF921F93CF93DF93D0
:1038D00000D000D0CDB7DEB70E942D056B017C0172
:1038E0000E942D056C197D098E099F0968397A435C
:1038F0008105910508F04FC068EE73E080E090E02C
:103900000E94FB048091D60E882331F064E873E1B5
:103910008FEF91E10E94A50264E873E18EED93E1DF
:103920000E94A5026AE174E0CE0101960E9486130E
:1039300045E050E060E070E0CE0101960E94BD18C5
:10394000182FCE0101960E94310F112349F266E42F
:1039500074E0CE0101960E94861345E050E060E0DD
:1039600070E0CE0101960E94BD18182FCE0101967D
:103970000E94310F112359F3812F26960FB6F89428
:10398000DEBF0FBECDBFDF91CF911F91FF90EF90B3
:10399000DF90CF90089510E0EFCF2F923F924F929B
:1039A0005F926F927F928F929F92AF92BF92CF92CF
:1039B000DF92EF92FF920F931F93CF93DF93CDB7D8
:1039C000DEB7CB51D2400FB6F894DEBF0FBECDBFED
:1039D000CC5EDD4F688379838A839B83C451D24058
:1039E000C85EDD4F288339834A835B83C851D24048
:1039F000AE014C5E5D4F64E274E0809122139091C1
:103A000023130E942D16AE01485E5D4F68E375E0FA
:103A100080912213909123130E942D1680912213DE
:103A2000909123130E940E158091221390912313DD
:103A30007E0127EFE21A2DEFF20A24E233E1F701CB
:103A400031832083FA82E9821C821B828E010F5F00
:103A50001F4FB8010E946A108091D60E882341F052
:103A600088E294E00E943C0D84E293E10E94E10C24
:103A70008091D60E882331F064E573E18FEF91E1F8
:103A80000E94A50264E573E18EED93E10E94A50218
:103A900066E474E0C8010E94861345E050E060E0EF
:103AA00070E0C8010E94BD18D82EC8010E94310FD5
:103AB000DD2009F407C18091D60E882331F066E637
:103AC00073E18FEF91E10E94A50266E673E18EED4E
:103AD00093E10E94A50266E474E0C8010E94861387
:103AE0004AE050E060E070E0C8010E94BD18D82EA6
:103AF000C8010E94310F8091D60EDD2009F404C167
:103B000066E374E0C8010E9486134AE050E060E07A
:103B100070E0C8010E94BD18D82EC8010E94310F64
:103B20008091D60EDD2009F4EFC0882331F06CE6D9
:103B300073E18FEF91E10E94A5026CE673E18EEDD7
:103B400093E10E94A50260E074E0C8010E94861320
:103B50004AE050E060E070E0C8010E94BD18D82E35
:103B6000C8010E94310FDD2009F4ACC062E370E0AF
:103B700080E090E00E94FB040E94290A60E373E168
:103B8000C8010E947D13C8010E94DC09C8010E947F
:103B9000310F64E273E1C7010E947D1362E473E1B7
:103BA000C8010E947D13B701C8010E947E09C801A7
:103BB0000E94310FC7010E94310F6AE18EED93E13F
:103BC0000E94520561E474E0C8010E9486134AE035
:103BD00050E060E070E0C8010E94BD18D82EC80116
:103BE0000E94310FDD2009F46DC064E372E084E2CD
:103BF00093E10E9443130E942D052B013C0110927A
:103C0000D10E1092D20E1092D30E1092D40E1092AA
:103C1000D00E23E5222E29E0322E31E7832E34E028
:103C2000932ECC24C39480914E09811152C00E94DE
:103C30002D05641975098609970960327E4481054E
:103C4000910508F000C28EED93E10E94AE051816B2
:103C500019060CF0F6C18EED93E10E94C205809327
:103C6000CF0E9091D60E992329F0682F8FEF91E116
:103C70000E949E022091CF0E2B3709F07AC0C0928D
:103C8000D00ED090D00E91E0D9127AC080EE820F83
:103C90008F3548F68091D10E9091D20EA091D30E1F
:103CA000B091D40EFC01ED5AF64F20830196A11D70
:103CB000B11D8093D10E9093D20EA093D30EB093EA
:103CC000D40EB1CF64E372E084E293E10E94431327
:103CD000D12C8D2DC55EDD4F0FB6F894DEBF0FBE23
:103CE000CDBFDF91CF911F910F91FF90EF90DF90AB
:103CF000CF90BF90AF909F908F907F906F905F908C
:103D00004F903F902F900895882331F060E973E140
:103D10008FEF91E10E94A50260E973E18EED93E1DE
:103D20000E94A50269E474E0C8010E94861345E080
:103D300050E060E070E0C8010E94BD18F82EC80194
:103D40000E94310FFF2009F4BDCF0E94611C88231F
:103D500049F064E372E084E293E10E94431394E04B
:103D6000D92EB7CF0E940B1C882399F30E94611CA7
:103D7000F0CF2D3709F085CF82E08093D00E81CF30
:103D8000E2E0DE1250CF8091D10E9091D20EA09140
:103D9000D30EB091D40EFC01ED5AF64F208301965C
:103DA000A11DB11D8D5A964FFC0110821092D10EAB
:103DB0001092D20E1092D30E1092D40E1092D00EFA
:103DC0008091D60E882361F00E94DB0C61E574E0DF
:103DD0008FEF91E10E94310E83E599E00E943C0D46
:103DE00062E773E18EED93E10E94A50268E674E05C
:103DF000C8010E9486134AE050E060E070E0C8010C
:103E00000E94BD18C8010E94310F89E090E08C0F1C
:103E10009D1F9C838B83E0E0F2E0FE83ED83188698
:103E20001F8288EE92E09A838983F70111830083D1
:103E300033822282358224822AE02683C7010E94AF
:103E40009F175C01F701918380839382828282E0D5
:103E500090E0CE5EDD4F99838883C251D240BE018F
:103E60006E5E7D4FC7010E94CA15882349F164E345
:103E700072E08AE293E10E944313F701B182A082CB
:103E80008CE794E093838283C7010E945E156AE207
:103E900073E188ED93E10E9466138091D60E88232A
:103EA00041F088ED93E10E94E10C8AE293E10E94E7
:103EB000E10C64E372E08AE293E10E94431309CFCC
:103EC000F701B182A0829382828281E090E0C05F9C
:103ED000DD4F99838883C051D240BE01605F7D4F22
:103EE000C7010E94CA15882309F4A8C064E372E0E0
:103EF0008AE293E10E9443138091D60E882331F029
:103F000064E874E08FEF91E10E94310EF701B18215
:103F1000A0828EE994E093838283C7010E945E159C
:103F20008091D60E882379F06AE273E1C7010E947E
:103F30007D136CEA74E0C7010E948D0F0E94E10CB2
:103F4000C7010E94310F80912A1390912B1340E0FA
:103F500050E0BA01009721F00E941636AB01BC0177
:103F60004093DE0E5093DF0E6093E00E7093E10EEF
:103F70008091D60E882339F022E08FEF91E10E94E4
:103F80004B0D0E94DB0C64E372E08AE293E10E9435
:103F90004313F701B182A08283EB94E09383828381
:103FA000C7010E945E1580912A1390912B130097F0
:103FB00009F440C00E94163660930002709301021B
:103FC000809302029093030264E372E08AE293E139
:103FD0000E9443138091D60E882331F06FEB74E07A
:103FE0008FEF91E10E94310EF701B182A08289E04A
:103FF00099E093838283C7010E945E158091D60E5B
:10400000882379F06AE273E1C7010E947D1363EDB2
:1040100074E0C7010E948D0F0E94E10CC7010E944D
:10402000310F64E372E08AE293E10E944313DD24DE
:10403000D3944FCE60E070E0CB01BECFC0924E096A
:10404000F2CD0000F0CD64E372E084E293E10E94DF
:1040500043138091D60E882351F087ED94E00E949F
:104060003C0D62E773E18FEF91E10E94A50262E7E8
:1040700073E18EED93E10E94A50268E674E0C80149
:104080000E9486134AE050E060E070E0C8010E94A0
:10409000BD18C8010E94310F83E0D82E1ACE1F939D
:1040A000CF93DF9300D000D0CDB7DEB78091D60E8E
:1040B000882331F060E973E18FEF91E10E94A5025E
:1040C00060E973E18EED93E10E94A50269E474E07A
:1040D000CE0101960E94861345E050E060E070E05A
:1040E000CE0101960E94BD18182FCE0101960E94A4
:1040F000310F1123F1F062E370E080E090E00E9464
:10410000FB040E94611C811114C00E940B1C8823B7
:1041100081F062E370E080E090E00E94FB040E9486
:10412000611C882331F062E370E080E090E00E943F
:10413000FB0480E026960FB6F894DEBF0FBECDBF1D
:10414000DF91CF911F910895AF92BF92CF92DF92EE
:10415000EF92FF920F931F93CF93DF93CDB7DEB70C
:10416000CF50D2400FB6F894DEBF0FBECDBF8091C6
:10417000D60E882331F06CE973E18FEF91E10E9454
:10418000A5026CE973E18EED93E10E94A50266E45D
:1041900074E08E010F5F1F4FC8010E94861345E037
:1041A00050E060E070E0C8010E94BD18F82EC80120
:1041B0000E94310FFF2009F4C4C066E374E0C80117
:1041C0000E9486134AE050E060E070E0C8010E945F
:1041D000BD18F82EC8010E94310FFF2009F4A5C0B8
:1041E0008091D60E882331F06CE673E18FEF91E178
:1041F0000E94A5026CE673E18EED93E10E94A50298
:1042000060E074E0C8010E9486134AE050E060E07C
:1042100070E0C8010E94BD18F82EC8010E94310F3D
:104220008091D60EFF2009F46EC0882331F062EA37
:1042300073E18FEF91E10E94A50262EA73E18EEDD6
:1042400093E10E94A5026AE18EED93E10E9452057E
:1042500061E474E0C8010E9486134AE050E060E027
:1042600070E0C8010E94BD18F82EC8010E94310FED
:10427000FF2009F450C00E942D056B017C0182E0F3
:10428000B82EAA24A3940E942D056C197D098E09CD
:104290009F0960327E448105910508F05EC08EED75
:1042A00093E10E94AE05181619066CF78EED93E1A6
:1042B0000E94C2058093CF0E90EE980F9F3518F79D
:1042C0008B3709F050C0A092D00E9091D00E913053
:1042D00009F04FC04091D10E5091D20E6091D30E93
:1042E0007091D40EFA01ED5AF64F80834F5F5F4F05
:1042F0006F4F7F4F4093D10E5093D20E6093D30EE9
:104300007093D40EC0CF882321F080EF94E00E94F8
:104310003C0D88E082C08091D60E882321F08DEF7D
:1043200094E00E943C0D83E078C00E944F20809171
:10433000D60E882321F08AE095E00E943C0D82E0B1
:104340006CC00E944F208091D60E882321F087E117
:1043500095E00E943C0D81E060C08091D60E8111F5
:1043600029C187E05AC08D3709F0AFCFB092D00E87
:10437000ACCF923009F087CF4091D10E5091D20E40
:104380006091D30E7091D40EFA01ED5AF64F8083EE
:104390004F5F5F4F6F4F7F4F4D5A564FFA0110825C
:1043A0001092D10E1092D20E1092D30E1092D40E03
:1043B0001092D00E8091D60E882361F00E94DB0C03
:1043C00061E574E08FEF91E10E94310E83E599E0A1
:1043D0000E943C0D62E773E18EED93E10E94A5021D
:1043E00068E674E0C8010E9486134AE050E060E08D
:1043F00070E0C8010E94BD18F82EC8010E94310F5C
:10440000F1101DC08091D60E882321F084E295E042
:104410000E943C0D0E944F2084E0C15FDD4F0FB62B
:10442000F894DEBF0FBECDBFDF91CF911F910F91EA
:10443000FF90EF90DF90CF90BF90AF900895CE01A6
:1044400009969C838B8380E092E09E838D831886FF
:104450001F8288EE92E09A838983C75FDD4F1983BC
:104460000883C950D24083E599E0C55FDD4F998349
:104470008883CB50D240C35FDD4F99838883CD5072
:10448000D2408AE0C15FDD4F8883CF50D240CE0159
:10449000875F9D4F0E949F1718861F8261E375E01A
:1044A0000E94EA148C01009709F473C0FC01E480B7
:1044B000F580F1E0EF16F10469F4FC016681778183
:1044C0006115710539F08BEA93E00E94033D892B59
:1044D00009F45FC0F1E0EF1AF10822E0E216F104FE
:1044E00008F057C0F801068117818091D60E882305
:1044F000A9F06DE375E08FEF91E10E94310E69EA5A
:1045000075E08FEF91E10E94310EB8018FEF91E1DC
:104510000E94310E89EA95E00E943C0D6DE375E042
:104520008EED93E10E94310E69EA75E08EED93E124
:104530000E94310EB8018EED93E10E94310E69EABE
:1045400075E08EED93E10E94310E64EF73E08EED25
:1045500093E10E94310E66E474E0CE01875F9D4FC7
:104560000E94861345E050E060E070E0CE01875F76
:104570009D4F0E94BD18182FCE01875F9D4F0E944E
:10458000310F8091D60E112339F0811109C085E0D9
:1045900044CF10E000E0A9CF811107C086E03DCFF5
:1045A00086E495E00E943C0DF2CF88E595E00E94FC
:1045B0003C0DF4CF85E695E00E943C0DD2CE1F92D3
:1045C0000F920FB60F9211240BB60F922F933F93B9
:1045D0004F935F936F937F938F939F93AF93BF930B
:1045E000EF93FF938FEF91E10E942703FF91EF91EB
:1045F000BF91AF919F918F917F916F915F914F91FB
:104600003F912F910F900BBE0F900FBE0F901F90F8
:1046100018951F920F920FB60F9211240BB60F929E
:104620002F938F939F93EF93FF93E0910F12F0914D
:1046300010128081E0911512F091161282FD1DC0BA
:104640009081809118128F5F8F73209119128217B9
:1046500041F0E0911812F0E0E150FE4E958F80930A
:104660001812FF91EF919F918F912F910F900BBE98
:104670000F900FBE0F901F9018958081F2CF1F9260
:104680000F920FB60F9211242F933F938F939F9306
:10469000AF93BF938091C30E9091C40EA091C50EAD
:1046A000B091C60E3091C20E23E0230F2D3758F57E
:1046B0000196A11DB11D2093C20E8093C30E90934D
:1046C000C40EA093C50EB093C60E8091C70E9091F4
:1046D000C80EA091C90EB091CA0E0196A11DB11DC0
:1046E0008093C70E9093C80EA093C90EB093CA0EC4
:1046F000BF91AF919F918F913F912F910F900FBEDE
:104700000F901F90189526E8230F0296A11DB11D4A
:10471000D2CF1F920F920FB60F9211240BB60F92A9
:104720002F933F934F935F936F937F938F939F93B9
:10473000AF93BF93EF93FF93E0911602F0911702AE
:104740001995FF91EF91BF91AF919F918F917F91BB
:104750006F915F914F913F912F910F900BBE0F90F2
:104760000FBE0F901F9018951F920F920FB60F92C9
:1047700011240BB60F922F933F934F935F936F9338
:104780007F938F939F93AF93BF93EF93FF93E091AA
:104790001402F09115021995FF91EF91BF91AF911D
:1047A0009F918F917F916F915F914F913F912F9149
:1047B0000F900BBE0F900FBE0F901F9018951F9279
:1047C0000F920FB60F9211240BB60F922F933F93B7
:1047D0004F935F936F937F938F939F93AF93BF9309
:1047E000EF93FF93E0910A02F0910B021995FF916C
:1047F000EF91BF91AF919F918F917F916F915F9159
:104800004F913F912F910F900BBE0F900FBE0F90C5
:104810001F9018951F920F920FB60F9211240BB68E
:104820000F922F933F934F935F936F937F938F9349
:104830009F93AF93BF93EF93FF93E0910802F091A2
:1048400009021995FF91EF91BF91AF919F918F91BF
:104850007F916F915F914F913F912F910F900BBE80
:104860000F900FBE0F901F9018951F920F920FB6CA
:104870000F9211240BB60F922F933F934F935F9398
:104880006F937F938F939F93AF93BF93EF93FF9318
:10489000E0911202F09113021995FF91EF91BF91EF
:1048A000AF919F918F917F916F915F914F913F91C8
:1048B0002F910F900BBE0F900FBE0F901F90189569
:1048C0001F920F920FB60F9211240BB60F922F93D7
:1048D0003F934F935F936F937F938F939F93AF9388
:1048E000BF93EF93FF93E0911002F091110219959D
:1048F000FF91EF91BF91AF919F918F917F916F91B8
:104900005F914F913F912F910F900BBE0F900FBE73
:104910000F901F9018951F920F920FB60F921124AF
:104920000BB60F922F933F934F935F936F937F93A9
:104930008F939F93AF93BF93EF93FF93E0910E02FA
:10494000F0910F021995FF91EF91BF91AF919F9157
:104950008F917F916F915F914F913F912F910F9028
:104960000BBE0F900FBE0F901F9018951F920F92C5
:104970000FB60F9211240BB60F922F933F934F93C4
:104980005F936F937F938F939F93AF93BF93EF93B7
:10499000FF93E0910C02F0910D021995FF91EF91B8
:1049A000BF91AF919F918F917F916F915F914F9147
:1049B0003F912F910F900BBE0F900FBE0F901F9045
:1049C00018951F920F920FB60F9211240BB60F92EB
:1049D0002F933F934F935F936F937F938F939F9307
:1049E000AF93BF93CF93DF93EF93FF93E091AD101D
:1049F000F091AE10309749F0A685B7858585968DE4
:104A000091FF18C09C918923C1F4FF91EF91DF9130
:104A1000CF91BF91AF919F918F917F916F915F9156
:104A20004F913F912F910F900BBE0F900FBE0F90A3
:104A30001F9018959C91892341F7A389B4899C9173
:104A40008589809589238C93868997890197F1F7C9
:104A5000608D718DC685D785558598E080E0DB0136
:104A60001197F1F7282F30E035952795822F48814F
:104A7000452309F08068915091F7968D91FD8095BE
:104A80009091AC109F5F2091AB10921799F0A0917C
:104A9000AC10B0E0AE53B54F8C939093AC10828DB8
:104AA000938D0197F1F7A389B4898C919589892B0E
:104AB0008C93ABCF868D8160868FF1CF1F920F9242
:104AC0000FB60F9211240BB60F922F933F934F9373
:104AD0005F936F937F938F939F93AF93BF93EF9366
:104AE000FF938091B900887F803609F44DC008F0AB
:104AF00040C0883209F4A9C028F5803109F49DC06E
:104B0000C8F4882309F4FBC0883009F496C0FF91EB
:104B1000EF91BF91AF919F918F917F916F915F9135
:104B20004F913F912F910F900BBE0F900FBE0F90A2
:104B30001F901895883109F488C0803241F780931E
:104B4000D81114C0803409F49DC040F48033B9F307
:104B50008833E9F68093D81185ECB0C0803509F42C
:104B600085C0883509F496C0883489F60E94EC0621
:104B7000CECF883909F48CC038F5883729F050F445
:104B8000883611F0803719F683E08093DA1110929D
:104B9000C10A57C0883809F47BC0803919F08038C1
:104BA00009F0B5CF8091C10A803208F071C0E09160
:104BB000C10A81E08E0F8093C10A8091BB00F0E0B2
:104BC000EF55F54F80833DC0803B39F0E0F4803AEB
:104BD00009F479C0883A09F09ACF84E08093DA1119
:104BE0001092A00A10929F0AE091B011F091B111B9
:104BF000199580919F0A81110FC081E080939F0ACF
:104C000010927F0A09C0803C09F4A6CF883C09F4C1
:104C1000A3CF883B09F07BCFE091A00A81E08E0F03
:104C20008093A00AF0E0E158F54F80818093BB00AB
:104C30009091A00A80919F0A29C08091B51180931C
:104C4000BB0085EC8093BC0062CF9091D71180911E
:104C5000D611981758F5E091D71181E08E0F809307
:104C6000D711F0E0EA54FE4E8081E9CFE091D711F0
:104C700081E08E0F8093D7118091BB00F0E0EA5461
:104C8000FE4E80839091D7118091D6119817C8F26B
:104C900085E8D8CFE091D71181E08E0F8093D711AE
:104CA0008091BB00F0E0EA54FE4E80838091D911E0
:104CB00081115CCF81E08093B41184EA8093BC00C1
:104CC0001092DA1124CF85EC8093BC001092DA1197
:104CD0008091C10A803230F4E091C10AF0E0EF55D2
:104CE000F54F10826091C10A70E0E091AE11F09131
:104CF000AF1181EA9AE019951092C10A08CF10927B
:104D0000D81134CFBC0186EC93E10C9466130F9359
:104D10001F93CF93DF9300D000D0CDB7DEB78C01C7
:104D200065ED73E0CE0101960E948613B801CE01B5
:104D300001960E94A30F64EF73E00E948D0FBC01E7
:104D40008AEB93E10E946613CE0101960E94310F17
:104D50006AEB73E182EA93E10E94661326960FB62E
:104D6000F894DEBF0FBECDBFDF91CF911F910F91A1
:104D70000895CF93DF9300D000D0CDB7DEB7BC014C
:104D80008CEC93E10E9466136AED73E0CE0101960C
:104D90000E9486136CEC73E1CE0101960E94A30F72
:104DA0006BEE73E00E948D0F66EC73E10E94A30F1F
:104DB00064EF73E00E948D0FBC0180EC93E10E94D0
:104DC0006613CE0101960E94310F60EC73E18CE90D
:104DD00093E10E94661326960FB6F894DEBF0FBECD
:104DE000CDBFDF91CF910895CF93DF938AE193E117
:104DF0000E94310F84E293E10E94310F8AE293E135
:104E00000E94310F80E393E10E94310F86E393E12A
:104E10000E94310F8CE393E10E94310F82E493E111
:104E20000E94310F88E493E10E94310F8EE493E1F8
:104E30000E94310FCEEAD3E12697CE010E94310FB6
:104E400083E1C435D807C1F78EEA93E10E94310FA0
:104E500084EB93E10E94310F8AEB93E10E94310FC2
:104E600080EC93E10E94310F86EC93E10E94310FB8
:104E70008CEC93E10E94310F82ED93E10E94310F9F
:104E800088ED93E10E94310F86ED92E09093DF135D
:104E90008093DE138EED93E1DF91CF910C94DF05CB
:104EA000CF93DF9300D000D01F92CDB7DEB7109222
:104EB00002121092011248EE53E060E070E040935D
:104EC00003125093041260930512709306128AE93C
:104ED00092E0909300128093FF1185EC90E0909304
:104EE0000C1280930B1284EC90E090930E1280933E
:104EF0000D1280EC90E09093101280930F1281ECD1
:104F000090E0909312128093111282EC90E09093B3
:104F100014128093131286EC90E0909316128093F3
:104F20001512109218121092191210921A12109251
:104F30001B12109200131092FF1240930113509312
:104F4000021360930313709304138CEA92E090931E
:104F5000FE128093FD128EEB92E090930A138093E1
:104F600009138DEF92E190930C1380930B13109221
:104F70000D1389E093E19093FC128093FB128EE174
:104F800094E1909319148093181480E092E0909328
:104F90001B1480931A1410921D1410921C1488EE86
:104FA00092E0909317148093161488E1E6E3F2E000
:104FB000ADEFB3E101900D928A95E1F78EE1809318
:104FC00015141092E1131092E0134093E2135093E2
:104FD000E3136093E4137093E51386ED92E09093EE
:104FE000DF138093DE131092F5131092F4131092D6
:104FF000F7131092F6131092F9131092F8131092FF
:10500000FB131092FA136091FC136E7F6D7F609317
:10501000FC136695617081E068278BE00E94E703CE
:1050200061E08BE00E94A504E4E0F3E0E491E0930A
:10503000EE13EEEBF2E0E491F0E0EE0FFF1FE75627
:10504000FD4F859194919093F0138093EF1360E05E
:105050008AE00E94A5048091FC1381FD04C061E0F8
:105060008AE00E94E7038AE08093EA13E3E0F3E03A
:10507000E491E093EB13EDEBF2E0E491F0E0EE0F5E
:10508000FF1FE158FD4F859194919093ED1380930C
:10509000EC1364E372E088ED93E10E94861362E70B
:1050A00075E082ED93E10E9486136CE875E08CEC6C
:1050B00093E10E94861364EA75E086EC93E10E9416
:1050C00086136AED73E0CE0101960E9486136CECA4
:1050D00073E1CE0101960E94A30F6BEE73E00E9474
:1050E0008D0F66EC73E10E94A30F64EF73E00E94E2
:1050F0008D0FBC0180EC93E10E947D13CE010196DF
:105100000E94310F6BEA75E08AEB93E10E948613EF
:105110006AED73E0CE0101960E94861362ED73E1A1
:10512000CE0101960E94A30F6DEE73E00E948D0FD9
:10513000BC0184EB93E10E947D13CE0101960E9495
:10514000310F64E372E08EEA93E10E94861363EC10
:1051500075E084E593E10E9486136AEC75E08AE5C8
:1051600093E10E9486136FED75E080E693E10E9463
:10517000861364EB73E186E693E10E947D136AEE89
:1051800075E08CE693E10E94861367EF75E082E795
:1051900093E10E94861365E076E088E793E10E9440
:1051A000861360E176E08EE793E10E94861369E161
:1051B00076E084E893E10E94861365E276E08AE86F
:1051C00093E10E94861362E376E080E993E10E9416
:1051D00086136FE376E086E993E10E94861360EC24
:1051E00073E18CE993E10E947D136AEB73E182EA3B
:1051F00093E10E947D136DE476E088EA93E10E94DA
:10520000861368E576E08EE493E10E9486136EE9EA
:1052100076E088E493E10E94861361EF76E082E411
:1052200093E10E94861360E077E08CE393E10E94B3
:10523000861361E177E086E393E10E9486136BECCD
:1052400073E0CE0101960E94861366E373E1CE01FE
:1052500001960E94A30FBC0180E393E10E947D139D
:10526000CE0101960E94310F68EF72E08AE293E16D
:105270000E94861368EF72E084E293E10E94861335
:1052800080914E1390914F13009711F488EF92E0A4
:1052900026E134E13A8329839C838B833E832D83EB
:1052A0008AE08F83CE0101960E948116909323138A
:1052B000809322138091481390914913009711F421
:1052C00088EF92E026E134E13A8329839C838B8343
:1052D0003E832D838AE08F83CE0101960E94811642
:1052E0009093211380932013109211131092101396
:1052F0008AEC92E090930F1380930E1387E28093D1
:10530000121384E18093171384E080931813109292
:10531000191368EF72E08AE193E10E9486132796E1
:105320000FB6F894DEBF0FBECDBFDF91CF910895C9
:10533000CF93DF93CDB7DEB764970FB6F894DEBF97
:105340000FBECDBF789484B5826084BD84B5816082
:1053500084BD85B5826085BD85B5816085BD809140
:105360006E00816080936E001092810080918100B8
:1053700082608093810080918100816080938100B0
:10538000809180008160809380008091B100846072
:105390008093B1008091B00081608093B0008091D3
:1053A0009100826080939100809191008160809350
:1053B0009100809190008160809390008091A10085
:1053C00082608093A1008091A10081608093A10000
:1053D0008091A00081608093A00080912101826073
:1053E000809321018091210181608093210180912E
:1053F000200181608093200180917A0084608093F5
:105400007A0080917A00826080937A0080917A009D
:10541000816080937A0080917A00806880937A001E
:105420001092C10061E08CE00E94A50461E08CE074
:105430000E94E703E0910F12F091101282E0808346
:10544000E0910B12F0910C121082E0910D12F0918C
:105450000E1280E1808310921712E0911312F091E6
:10546000141286E08083E0911112F0911212808173
:1054700080618083E0911112F09112128081886026
:105480008083E0911112F0911212808180688083F4
:10549000E0911112F091121280818F7D80830E9421
:1054A00073041092131380911813823018F098E04F
:1054B000909313138093161362E370E080E090E002
:1054C0000E94FB04609119138EE093E10E94A207F1
:1054D00068EE73E080E090E00E94FB0460E38EE001
:1054E00093E10E94380BFBE4EF2EF6E4FF2EC70198
:1054F0000197F1F760E38EE093E10E94380BC7015A
:105500000197F1F760E38EE093E10E94380B83E5A9
:1055100092E00197F1F760E28EE093E10E94380B90
:1055200060911313606240E08EE093E10E94510BA2
:1055300084E08093141340E06CE08EE093E10E94DD
:10554000510B0E94680B82E08093151340E066E0E7
:105550008EE093E10E94510B40E062E08EE093E127
:105560000E94510B8BE39FE10197F1F788E0809354
:10557000191360E08EE093E10E94A20761E08CE1E4
:105580000E94A50460E08CE10E94E703A6E7CA2E12
:10559000A2E0DA2E7E0127E0E20EF11CB1E02B2E14
:1055A000B0E13B2E8FEF91E10E941103181619060E
:1055B000C4F48FEF91E10E94EF0290918A10E92FDD
:1055C000F0E0EA5DFF4E80838A3009F0C4C3109298
:1055D0008A10809126108434D1F18CF5833409F43B
:1055E00099C080912510811102C18091010F811114
:1055F00023C00E94680B60E080E00E94730B6CE89F
:1056000077E08EE093E10E94310E61E080E00E943D
:10561000730B6EE977E08EE093E10E94310E63E058
:1056200080E00E94730B62EB77E08EE093E10E94D2
:10563000310E81E08093010F0E94B603B3CF853411
:1056400099F08F3471F681E080932510CACF809154
:105650002710843431F0853421F681E08093D60E12
:10566000C0CF1092D60EBDCF809127108E3429F175
:105670008935F9F481E0809319020E94680B60E09B
:1056800080E00E94730B67E177E08EE093E10E9477
:10569000310E61E080E00E94730B6AE277E08EE0F9
:1056A00093E10E94310E68EE73E080E090E00E948A
:1056B000FB0481E08093241094CF109219020E9481
:1056C000680B60E080E00E94730B6EE377E08EE091
:1056D00093E10E94310E61E080E00E94730B61E56E
:1056E00077E08EE093E10E94310E62E080E00E945C
:1056F000730B67E177E08EE093E10E94310E63E087
:1057000080E00E94730B60E677E08EE093E10E94F8
:10571000310ECFCF80912710893481F1823509F085
:1057200060CF80912810843591F0893551F08E3406
:1057300009F057CF10922310109222100E94390EB8
:1057400016C081E080932310809322104ACF1092DC
:105750002310109222100E94680B60E080E00E94EB
:10576000730B61E777E08EE093E10E94310E68E809
:1057700073E180E090E00E94FB0433CFE0912810B9
:10578000E154E43108F02DCF0E2E000CFF0B8827DA
:10579000E353F44D8F4F0C94B53AA42DEE2D082E03
:1057A000F12AF12AF12AF12AF12AF12AF12AF12A21
:1057B000F12AE12BCB2DF12AF12AF12AF12A3C2EF4
:1057C000292E29E230E1AFEAB0E1AD014F5A504154
:1057D000F90181919F018D938A30B9F7FA01E15562
:1057E000FF4E108280912510882309F4A7CF809165
:1057F0001802882309F47CC360E875E280E090E039
:105800000E94F50561E080E30E94A50461E080E369
:105810000E94E7030E942D052B013C010E942D05EB
:10582000641975098609970968397A4381059105D4
:1058300008F052C068EE73E080E090E00E94FB0444
:105840008091D60E882321F087EC97E00E943C0DD2
:105850008091D60E882331F066E973E18FEF91E1F4
:105860000E94A50266E973E18EED93E10E94A50214
:1058700066E474E0CE0101960E94861342E050E097
:1058800060E070E0CE0101960E94BD18082FCE01A5
:1058900001960E94310F8EED93E1002309F45FC25F
:1058A0000E94DF0564E670E080E090E00E94FB0467
:1058B00060EC72E180E090E00E94F50564E670E043
:1058C00080E090E00E94FB048091D60E882321F0B6
:1058D00088ED97E00E943C0D0E942D052B013C01B4
:1058E0000E942D05641975098609970968397A435C
:1058F0008105910558F568EE73E080E090E00E9424
:10590000FB048091D60E882331F064E573E18FEFBC
:1059100091E10E94A50264E573E18EED93E10E949E
:10592000A50266E474E0CE0101960E94861342E06F
:1059300050E060E070E0CE0101960E94BD18082F93
:10594000CE0101960E94310F002351F20E942D05D5
:105950002B013C010E942D056419750986099709E0
:1059600068397A438105910510F00C94113668EE80
:1059700073E080E090E00E94FB048091D60E8823C3
:1059800031F068EA73E18FEF91E10E94A50268EAC5
:1059900073E18EED93E10E94A5026EEF77E0CE01F8
:1059A00001960E94861345E050E060E070E0CE0171
:1059B00001960E94BD18082FCE0101960E94310F5A
:1059C000002341F266E474E0CE0101960E94861342
:1059D00045E050E060E070E0CE0101960E94BD1805
:1059E000082FCE0101960E94310F002359F381E068
:1059F0008093000F0E94680B60E080E00E94730BB0
:105A000061E179E08EE093E10E94310E60ED77E094
:105A100080E090E00E94FB040E942D052B013C01D8
:105A20000E942D05641975098609970968397A431A
:105A30008105910508F04CC068EE73E080E090E0CD
:105A40000E94FB048091D60E882331F068E773E151
:105A50008FEF91E10E94A50268E773E18EED93E17B
:105A60000E94A5026BE078E0CE0101960E948613A9
:105A700045E050E060E070E0CE0101960E94BD1864
:105A8000082FCE0101960E94310F002349F266E4EF
:105A900074E0CE0101960E94861345E050E060E07C
:105AA00070E0CE0101960E94BD18082FCE0101962C
:105AB0000E94310F002359F30E94680B60E080E0E0
:105AC0000E94730B64E279E08EE093E10E94310E54
:105AD00060ED77E080E090E00E94FB040E942D05DD
