:100000000C9492010C9401220C94D6210C94AB21F7
:100010000C9480210C9455210C942A210C94FF20DF
:100020000C94D4200C942C220C942C220C942C2272
:100030000C94C3010C94C3010C94C3010C94C30130
:100040000C94C3010C94C3010C94C3010C94C30120
:100050000C94C3010C94C3010C94C3010C948A202A
:100060000C94C3010C9454200C942A200C94C301CA
:100070000C94C3010C94C3010C94C3010C94C301F0
:100080000C94C3010C94C3010C94C3010C94C301E0
:100090000C94C3010C94C3010C94C3010C94A922C9
:1000A0000C94C3010C94C3010C94C3010C94C301C0
:1000B0000C94C3010C94C3010C94C3010C94C301B0
:1000C0000C94C3010C94C3010C94C3010C94C301A0
:1000D0000C94C3010C94C3010C94C3010C94C30190
:1000E0000C94C3010C9445040C9466020C942204F5
:1000F0000C94F3020C9424060C9442050C946B06A9
:100100000C94A3020C9407040C940C120C94EB12A4
:100110000C9422020C94ED110C940C040C945304D6
:100120000C941E040C94AE060C94C70F0C94290575
:100130000C949D0A0C9441050C9437240C943E06B3
:100140000C945D040C9433040C9423020C94E91178
:100150000C942D040C9437060C9486030C942604FE
:100160000C94AF050C9467020C944F040C943D045E
:100170000C9415060C944B040C94E2110C94CD23B2
:100180000C94D5110C94DF020C94B2110C94010361
:100190000C949E050C94E2050C94DC050C94390338
:1001A0000C94DB110C9441040C9467090C948D029F
:1001B0000C9459040C942A040C94D0020C94370427
:1001C0000C94A30A4E414E494E495459494E46CDCE
:1001D000CCCC3D0AD7233C17B7D13877CC2B3295FE
:1001E00095E6241FB14F0A000020410000C84200DC
:1001F000401C4620BCBE4CCA1B0E5AAEC59D7400A6
:10020000002100240027002A002D003000330001C7
:10021000010000040107010A0100000A0B02090C99
:100220000D0E08070304010000000000000000009C
:1002300000000000000000000000000000000000BE
:10024000000000000012111000000000000000007B
:10025000000000000000000000000000000000009E
:100260000020002300260029002C002F003200006F
:1002700001000003010601090100002200250028F9
:10028000002B002E0031003400020100000501089F
:10029000010B01050505050705080808080202020B
:1002A000020A0A0808040404040101010101010111
:1002B000010303030303030303040707070C0C0CE8
:1002C0000C0C0C0C0C0202020206060606060606C0
:1002D000060B0B0B0B0B0B0B0B010210202008085D
:1002E0001020401020408002010201080402010198
:1002F0000204081020408080402010080402018081
:1003000004020180402010080402010804020101D7
:1003100002040810204080010204081020408000E0
:100320003724CD2311241FBECFEFD1E2DEBFCDBFD6
:1003300000E00CBF21E1A8E0B8E001C01D92AD3E95
:10034000B207E1F718E0A0E0B2E0EEE5F1E700E087
:100350000BBF02C007900D92A830B107D9F711E08A
:10036000C1E9D1E000E006C021970109802FFE011C
:100370000E943036C039D10780E00807A9F70E94F3
:1003800071260C949D380C940000982F2091C90D73
:1003900081E0213208F043C08091A50D8111FCCF8E
:1003A0008091C80D32E03093A50D9093A40D9FEF7E
:1003B0009093A30D1092A20D2093A10DA8EABDE089
:1003C000E1E8FDE090E0291331C01092800D90919A
:1003D000800D880F892B8093800D80917F0D813057
:1003E00049F510927F0D8091800D8093BB00809124
:1003F000BC0083FDF8CF85EC8093BC008091A50DF7
:100400008230E1F38091A30D8F3FB1F08091A30D75
:100410008032A1F08091A30D803391F084E010929E
:10042000A70D1092C90D1092A60D08953D9131931C
:100430009F5FC9CF85EEE0CF80E0F1CF82E0EFCFC4
:1004400083E0EDCF089508959091A50D9111FCCF13
:1004500091E09093A50D9093A40D2FEF2093A30D01
:100460001092A20D260F2093A10D9093800D9091D4
:10047000800D880F892B8093800D80917F0D8130B6
:10048000F9F410927F0D8091800D8093BB008091D4
:10049000BC0083FDF8CF85EC8093BC008091A50D56
:1004A0008130E1F38091A20D861710F46091A20DC6
:1004B000A1E8BDE0EAE5FCE080E0861303C0089512
:1004C00085EEEACF9D9191938F5FF7CF089580914C
:1004D000B60A9091B70AA091B80AB091B90A0196EC
:1004E000A11DB11D8093B60A9093B70AA093B80AD4
:1004F000B093B90A0895FC0124813581621773070E
:1005000020F480819181009729F41092A30A83EA54
:100510009AE00895860F971F08950895DC01ED91E4
:10052000FC910190F081E02D1994DB0114964D911E
:100530005C9115976D917C91DC01ED91FC910280AD
:10054000F381E02D1994AF92BF92CF92DF92EF9298
:10055000FF920F931F93CF93DF936C017B018B016D
:10056000040F151FEB015E01AE18BF08C017D107BD
:1005700059F06991D601ED91FC910190F081E02D47
:10058000C6011995892B79F7C501DF91CF911F918C
:100590000F91FF90EF90DF90CF90BF90AF900895B4
:1005A000FC01538D448D252F30E0842F90E0821B79
:1005B000930B541710F0CF96089501970895FC01FE
:1005C000918D828D981761F0A28DAE0FBF2FB11D56
:1005D0005D968C91928D9F5F9F73928F90E00895AE
:1005E0008FEF9FEF0895FC01918D828D981731F068
:1005F000828DE80FF11D858D90E008958FEF9FEFBC
:100600000895FC01918D228D892F90E0805C9F4F91
:10061000821B91098F73992708958AEC9DE00E94AF
:10062000010321E0892B09F420E0822F0895FC01C9
:10063000A48DA80FB92FB11DA35ABF4F2C91848D43
:1006400090E001968F739927848FA689B7892C93A0
:10065000A089B1898C91837080648C93938D848DF3
:10066000981306C00288F389E02D80818F7D8083F6
:100670000895EF92FF920F931F93CF93DF93EC01B6
:1006800081E0888F9B8D8C8D98131AC0E889F98939
:10069000808185FF15C09FB7F894EE89FF8960833C
:1006A000E889F98980818370806480839FBF81E0BD
:1006B00090E0DF91CF911F910F91FF90EF900895FF
:1006C000F62E0B8D10E00F5F1F4F0F731127E02EDA
:1006D0008C8D8E110CC00FB607FCFACFE889F98912
:1006E000808185FFF5CFCE010E941703F1CFEB8DFE
:1006F000EC0FFD2FF11DE35AFF4FF0829FB7F894E6
:100700000B8FEA89FB8980818062CFCFCF93DF9303
:10071000EC01888D8823B9F0AA89BB89E889F98919
:100720008C9185FD03C0808186FD0DC00FB607FC4E
:10073000F7CF8C9185FFF2CF808185FFEDCFCE0181
:100740000E941703E9CFDF91CF91089580E090E0F8
:10075000892B29F00E940D0381110E94000080E086
:1007600090E0892B49F080E090E0892B29F00E94ED
:10077000000081110E94000080E090E0892B49F088
:1007800080E090E0892B29F00E94000081110E94F6
:10079000000080E090E0892B49F080E090E0892B18
:1007A00029F00E94000081110C9400000895282F68
:1007B00030E0F901E75EFD4F9491F901E752FD4FFA
:1007C00044912D563D4FF9012491222309F435C05F
:1007D000992311F191509231F8F4E92FF0E0882734
:1007E000EB50FC4F8F4F0C94303626042A0407043C
:1007F0001E0422040C042D04330437043D04410478
:1008000045044B044F040C04530459045D048091C7
:1008100080008F7780938000E22FF0E0EE0FFF1FC3
:10082000E758FD4FA591B4918FB7F894EC91611101
:1008300048C040954E234C938FBF0895809180000F
:100840008F7DE8CF80918000877FE4CF84B58F775C
:1008500084BDE2CF84B58F7DFBCF8091B0008F77D0
:100860008093B000D9CF8091B0008F7DF9CF809177
:1008700090008F7780939000CFCF809190008F7DF4
:10088000F9CF80919000877FF5CF8091A0008F777E
:100890008093A000C1CF8091A0008F7DF9CF80917F
:1008A000A000877FF5CF809120018F778093200172
:1008B000B3CF809120018F7DF9CF80912001877F78
:1008C000F5CF4E2BB8CF10927E0D10927D0D109269
:1008D000A70D1092C90D1092A50D81E08093A40D73
:1008E00010927F0D61E084E10E94D70361E085E111
:1008F0000E94D703E9EBF0E080818E7F80838081C6
:100900008D7F808388E48093B80085E48093BC0069
:1009100082E292E090937C0D80937B0D83E292E0E3
:1009200090937A0D8093790D0895CF93DF9390E0A3
:10093000FC01E752FD4F24918D569D4FFC0184919F
:100940008823D1F090E0880F991FFC01E150FE4F01
:10095000A591B491FC01E758FD4FC591D491611167
:100960000EC09FB7F8948C91E22FE0958E238C9364
:100970002881E223E8839FBFDF91CF9108958FB74D
:10098000F894EC91E22BEC938FBFF6CF3FB7F8943D
:1009900080919F0A9091A00AA091A10AB091A20A09
:1009A00026B5A89B05C02F3F19F00196A11DB11DCA
:1009B0003FBFBA2FA92F982F8827BC01CD01620F06
:1009C000711D811D911D42E0660F771F881F991FC1
:1009D0004A95D1F708958F929F92AF92BF92CF928E
:1009E000DF92EF92FF924B015C010E94C6046B0103
:1009F0007C010E94C6046C197D098E099F09683E1E
:100A0000734081059105A8F321E0821A9108A1089D
:100A1000B10888EEC80E83E0D81EE11CF11C8114D9
:100A20009104A104B10429F7FF90EF90DF90CF90DB
:100A3000BF90AF909F908F9008952FB7F8946091DA
:100A40009B0A70919C0A80919D0A90919E0A2FBFEB
:100A500008952091EB0E3091EC0E2817390771F4B0
:100A60009091A40A8091A50A981741F0E091A40AF8
:100A7000F0E0E656F64F808190E008958FEF9FEF0B
:100A800008950895EF92FF920F931F93CF93DF93F2
:100A9000DC015C96ED90FC905D97E114F10479F433
:100AA00081E090E013969C938E93129790E080E003
:100AB000DF91CF911F910F91FF90EF900895519684
:100AC000ED91FC91529750968C915097982F90955C
:100AD0000FB75E962C915E97122F127021FD6095D4
:100AE000F8942081112319F1282B2083E701219705
:100AF000F1F728E0462F50E0308160FF1AC0382B14
:100B00003083E7012197F1F7BA0175956795215078
:100B100089F7112381F08081892380830FBF5C9640
:100B20008D919C910197F1F781E090E0C1CF29234D
:100B3000DCCF3923E5CF9081892BEFCF2091EB0ECD
:100B40003091EC0E2817390739F48091A50A90915D
:100B5000A40A891B90E0089590E080E00895209118
:100B6000EB0E3091EC0E2817390799F49091A40AF6
:100B70008091A50A981769F0E091A40AF0E0E65682
:100B8000F64F80819091A40A9F5F9093A40A90E011
:100B900008958FEF9FEF0895DC01ED91FC910284A1
:100BA000F385E02D19950895DC01ED91FC910190FC
:100BB000F081E02D1995089564EF71E080E090E0F8
:100BC0000C94EB040C94630485ED8093BC0080913D
:100BD000BC0084FDFCCF1092A50D089520917709EB
:100BE000260F3327331F21323105ECF42091A50D58
:100BF000FC0190E080E0243069F082E00895A0914B
:100C000077092191AC01495A564FA40FB52FB11D58
:100C10002C930196861798F380917709680F60935B
:100C2000770980E0089581E00895E0917E0D80913C
:100C30007D0DE81730F4F0E0E65AF34F808190E044
:100C400008958FEF9FEF089590917E0D80917D0D17
:100C50002FEF3FEF981748F4E92FF0E0E65AF34FF3
:100C6000208130E09F5F90937E0DC90108958091AF
:100C70007D0D90917E0D891B990B0895CF92DF9287
:100C8000EF92FF920F931F93CF93DF937C01CB01E1
:100C90008A012091A60D222389F0EB016B01C40E7D
:100CA000D51ECC15DD0569F06991D701ED91FC9158
:100CB0000190F081E02DC7011995F3CF642F0E94B8
:100CC000EE05C801DF91CF911F910F91FF90EF903A
:100CD000DF90CF900895CF93DF931F92CDB7DEB70B
:100CE00069832091A60D2223F9F02091C90D2032AD
:100CF00058F021E030E0FC013383228390E080E073
:100D00000F90DF91CF9108958091A70DE82FF0E02B
:100D1000E855F24F998190838F5F8093A70D809360
:100D2000C90D81E090E0ECCF61E0CE0101960E9418
:100D3000EE05F7CFFC01248131E03093A60D20931E
:100D4000C80D1092A70D1092C90D8385682B88ECF1
:100D50009EE00E946B0681E00C94C50190E080E06B
:100D6000089580339CF08A3324F08F3524F08B373C
:100D700024F481E0089581344CF08B35D4F393ED65
:100D8000980F81E09230B0F380E008958B32B9F78C
:100D9000F0CFFC01A081B1818C918D3021F03CF429
:100DA00089508230A8F51196B183A083F3CF8032A9
:100DB000D1F38F3209F0089511968C9111978A32F0
:100DC00019F08F32C1F008951196B183A083A081EC
:100DD000B181CD0101969183808311968C911197F9
:100DE0008823B1F08A3299F712968C9112978F323C
:100DF00071F71396D9CFA081B181CD01019691836E
:100E0000808311968C91882319F08A30A1F7C2CF84
:100E100008951F93CF93DF93EC01162F0E94C9060C
:100E2000E881F9818081181308C03196F983E8833D
:100E300081E0DF91CF911F91089580E0FACFFC010E
:100E4000A081B1818C918D3021F03CF489508230A9
:100E5000A8F51196B183A083F3CF8032D1F38F32FE
:100E600009F0089511968C9111978A3219F08F32FA
:100E7000C1F008951196B183A083A081B181CD0105
:100E800001969183808311968C9111978823B1F0FC
:100E90008A3299F712968C9112978F3271F71396C6
:100EA000D9CFA081B181CD01019691838083119624
:100EB0008C91882319F08A30A1F7C2CF08951F932F
:100EC000CF93DF93EC01162F0E941F07E881F98171
:100ED0008081181308C03196F983E88381E0DF919F
:100EE000CF911F91089580E0FACFEF92FF921F9368
:100EF000CF93DF93EC01EC80FD8002960E94C9063F
:100F0000EA81FB811081173211F0123259F53196C6
:100F1000FB83EA83EA81FB8180818823C9F19F01F9
:100F20002F5F3F4F3B832A83181791F18C3579F45B
:100F30008181AEEEB2E09C91992321F0891310C01B
:100F400011968C91882321F13296FB83EA83EC8100
:100F5000FD819F012F5F3F4F3D832C838083DACF3C
:100F60001296E9CF812F0E94B106EC81FD819F018D
:100F70002F5F3F4F882361F08A819B8101969B837D
:100F80008A833D832C831083EA81FB811081EACF21
:100F9000EC81FD81CF0101969D838C831082C70176
:100FA000DF91CF911F91FF90EF900895CF92DF9244
:100FB000FF920F931F93CF93DF938C01DC01149664
:100FC000CD91DC91CA80DB808E819F81C80ED91EB5
:100FD000C80102960E941F07D8011296ED91FC915C
:100FE000F080B7E2FB1619F082E2F81241C03196A8
:100FF000D8011396FC93EE931297D8011296ED91B7
:10100000FC9113978081882309F454C09F012F5FBE
:101010003F4F13963C932E931297F81609F44AC04B
:101020008C3591F48181AEEEB2E09C91992321F050
:1010300089131CC011968C918823E1F13296D80156
:101040001396FC93EE9312974E815F819A012F5F66
:101050003F4F6C817D816217730778F2EA81FB81D3
:10106000E40FF51F3F832E838083C7CF1296DDCF19
:101070008F2D0E94B1064E815F819A012F5F3F4FF5
:101080006C817D818823B1F0F80182819381019682
:10109000938382836217730738F0EA81FB81E40F40
:1010A000F51F3F832E83F082D8011296ED91FC91BB
:1010B000F080DECF2E813F81C90101964C815D8198
:1010C0004817590780F0EA81FB81E20FF31F9F83E5
:1010D0008E831082C601DF91CF911F910F91FF90F7
:1010E000DF90CF900895D12CC12CF4CFAF92BF9256
:1010F000CF92DF92EF92FF920F931F93CF93DF93E4
:101100005C017B01FC0114810581C12FD02FFB0103
:10111000C480D58060E385EA9FE00E944205BE015D
:101120006C0D7D1D6E5F7F4F85EA9FE00E9442053A
:1011300060E0CF3FD1050CF0602F85EA9FE00E9470
:101140004205612F85EA9FE00E94420510E000E021
:101150000C171D076CF4B801C5010E947B02FC014D
:10116000608185EA9FE00E9442050F5F1F4FF0CF2C
:10117000D0E0C0E0CC15DD0564F4BE01C7010E94DB
:101180007B02FC01608185EA9FE00E944205219676
:10119000F1CFDF91CF911F910F91FF90EF90DF90F2
:1011A000CF90BF90AF900895EF92FF920F931F934F
:1011B000CF93DF937C01FC0114810581C12FD02FD7
:1011C00062E885EA9FE00E944205BE016B5F7F4FA7
:1011D00085EA9FE00E94420560E085EA9FE00E9468
:1011E00042056AE085EA9FE00E94420560E0CF3F49
:1011F000D1050CF0602F85EA9FE00E944205612F27
:1012000085EA9FE00E94420510E000E00C171D07F0
:101210006CF4B801C7010E947B02FC01608185EA81
:101220009FE00E9442050F5F1F4FF0CF60E085EA0C
:101230009FE0DF91CF911F910F91FF90EF900C9461
:10124000420560E185EA9FE00E9442056CE085EA84
:101250009FE00E94420560E085EA9FE00E9442050F
:1012600064E085EA9FE00E9442056DE485EA9FE024
:101270000E94420561E585EA9FE00E94420564E51F
:1012800085EA9FE00E94420564E585EA9FE00E94AE
:10129000420564E085EA9FE00E94420562E085EA3B
:1012A0009FE00E94420560E085EA9FE00E944205BF
:1012B0006FE085EA9FE00E94420560E085EA9FE0DA
:1012C0000E94420560E085EA9FE00C944205FC0123
:1012D00086819781680F791F24813581261737070A
:1012E00038F022813381820F931F778366830895BC
:1012F00090E080E008958091180881110BC0109251
:10130000150810921408109217081092160881E020
:101310008093180884E198E0089580910C08811169
:101320000BC0109209081092080810920B08109236
:101330000A0881E080930C0888E098E00895DB01BA
:10134000109749F0ED91FC9111970190F081E02DFB
:10135000BC01CD01199490E080E008950F931F9394
:10136000CF93DF93EC018B016881798188E090E075
:101370000E949F09DC01892B39F011961C921E9264
:1013800013961C921E921297EA81FB81309721F4EA
:10139000BB83AA8307C0FC01808191810097D9F7A4
:1013A000B183A08380E0109741F086E0F8011296A7
:1013B00001900D928A95E1F781E0DF91CF911F9125
:1013C0000F910895CF93DF93EC01688179818AE0D2
:1013D00090E00E949F09009729F0FC011182108281
:1013E00015821482EA81FB81309721F49B838A83E2
:1013F00008C0F9012081318121153105D1F7918390
:101400008083DF91CF910895CF93DF93EC01BC01EE
:1014100084E090E00E949F09009741F0FC01D18395
:10142000C08313821282DF91CF910895DF91CF9113
:101430000C947B09CF93DF93EC01BC0184E090E036
:101440000E949F09009741F0FC01D183C083138261
:101450001282DF91CF910895DF91CF910C948D0985
:101460000F931F93CF938C01C62F0E949A066C2F67
:101470006460C8010E949A066C2F6B7FC8010E94AD
:101480009A0683EC90E00197F1F7CF911F910F91AD
:1014900008950F931F93CF93DF938C01D62FC42F02
:1014A000607F642B0E94300A80E1D89FB001112434
:1014B0006C2BC801DF91CF911F910F910C94300AD2
:1014C00040E061E089ED9EE00E94490A8BE39FE1E4
:1014D0000197F1F70895CF93DF9300D000D01F92CA
:1014E0001F92CDB7DEB798E0E0E2F2E0DE011196A0
:1014F00001900D929A95E1F79091E10E961710F4F4
:101500006FEF690F262F30E0220F331F41E050E0CC
:101510004C0F5D1F240F351FF9016081680F606853
:1015200040E089ED9EE028960FB6F894DEBF0FBE2E
:10153000CDBFDF91CF910C94490A41E00E94490A46
:1015400081E090E008956F927F928F929F92AF9288
:10155000BF92CF92DF92EF92FF920F931F93CF93A0
:10156000DF9300D000D0CDB7DEB78C01B62EA72E0A
:10157000742E690186E0E8E2F2E0DE011196019046
:101580000D928A95E1F7F12CE12C66E084E20E944D
:10159000240210927E0D80937D0D811112C061E0B6
:1015A00070E080E090E00E94EB048FEFE81AF80A08
:1015B000C114D10451F3CE14DF0438F78FEF9FEF3D
:1015C00010C0F801828193810E94CC0580FFE7CF93
:1015D000F801828193810E94CC05882339F18DEF37
:1015E0009FEFF12CE12C98E0992E980E692DF0E2F6
:1015F000F91508F460E284E20E94240210927E0D44
:1016000080937D0D811147C061E070E080E090E043
:101610000E94EB048FEFE81AF80AC114D10431F3E9
:10162000CE14DF0418F78FEF9FEF45C0F8018281D9
:1016300093810E94CC058111D2CFF80182819381E0
:101640000E94CC058F3F59F6F801828193810E9458
:10165000CC05682E81E08093A60D84E28093C80DAE
:101660001092A70D1092C90DCE0101967C014E017A
:1016700097E0890E911CF70161917F01F801828149
:1016800093810E94D405E814F904A9F781E00E942F
:10169000C501862DA6CFF801828193810E94CC05D9
:1016A00080FFB2CFF801828193810E94CC0588230C
:1016B000B9F08DEF9FEF26960FB6F894DEBF0FBE00
:1016C000CDBFDF91CF911F910F91FF90EF90DF90F1
:1016D000CF90BF90AF909F908F907F906F90089524
:1016E000F801828193810E94CC058111E2CFF8013B
:1016F000828193810E94CC058F3FD9F6F8018281C7
:1017000093810E94CC05F82EF801828193810E947A
:10171000CC058F0D71F6F801E480DD24D394DE0C46
:10172000828193810E94CC05853D19F6F801828162
:1017300093810E94CC05D812BCCFFA94FA948CEF16
:101740009FEF7F1408F4B7CFF6EDEF0E9B2CCB2C58
:10175000DA2CF801828193812C2D29192F1538F468
:101760000E94CC05F60181936F01E80EF2CF0E9432
:10177000CC058E0D09F09DCFF801828193810E94E6
:10178000CC058F2D90E097CFFB0101900020E9F769
:101790003197AF01461B570BDC01ED91FC910280A4
:1017A000F381E02D19946FEA74E08AEC9DE00C94CB
:1017B000C40BCF93DF93BC018AEC9DE00E9495029D
:1017C000EC010E94D30B8C0F9D1FDF91CF910895E8
:1017D0008F929F92AF92BF92EF92FF920F931F93BF
:1017E000CF93DF93CDB7DEB7A1970FB6F894DEBFE6
:1017F0000FBECDBF7C01FA01CB0119A2223008F443
:101800002AE08E010F5D1F4F822E912CB12CA12C4E
:10181000BF01A50194010E940E36F901CA016A3088
:101820000CF5605DD8016E938D01232B242B252BA5
:1018300079F790E080E0109721F0BD01C7010E9488
:10184000C40BA1960FB6F894DEBF0FBECDBFDF91DB
:10185000CF911F910F91FF90EF90BF90AF909F900D
:101860008F900895695CDECFCF93DF93BC018AEC43
:101870009DE00E94C40BEC010E94D30B8C0F9D1FB6
:10188000DF91CF9108952F923F924F925F926F9286
:101890007F928F929F92AF92BF92CF92DF92EF9200
:1018A000FF921F93CF93DF93EC016A017B01722EAD
:1018B000AB019601CB01B6010E94F53569EF72E0EC
:1018C000811126C046015701E894B7F82FEF3FEF8A
:1018D0004FE75FE7C501B4010E94F53581110CC0E7
:1018E0002FEF3FEF4FE75FE7C501B4010E949A3346
:1018F0006DEF72E0181664F02FEF3FEF4FE75FE4F3
:10190000C701B6010E94F0351816B4F461E073E027
:10191000CE01DF91CF911F91FF90EF90DF90CF909C
:10192000BF90AF909F908F907F906F905F904F90FF
:101930003F902F900C94C40B2FEF3FEF4FE75FECDD
:10194000C701B6010E949A3387FDE0CF20E030E066
:10195000A901C701B6010E949A33312C212C87FFBF
:1019600009C06DE2CE010E948E021C01F7FAF094CC
:10197000F7F8F09410E060E070E080E09FE371160B
:1019800041F020E030E040E251E40E9448351F5F22
:10199000F6CFA70196010E94DC342B013C010E9486
:1019A000C1354B015C012AE0BC01A401CE010E94BB
:1019B000E80B7C01E20CF31C1123C1F1C501B40159
:1019C0000E949F339B01AC01C301B2010E94DB3432
:1019D0004B015C016EE2CE010E948E02E80EF91E00
:1019E000115020F120E030E040E251E4C501B401A3
:1019F0000E9400342B013C010E94C1354B01B12CE7
:101A0000A12C2AE0B501A401CE010E94E80BE80E4A
:101A1000F91EC501B4010E949F339B01AC01C301B3
:101A2000B2010E94DB344B015C01DACFC701DF91C8
:101A3000CF911F91FF90EF90DF90CF90BF90AF902C
:101A40009F908F907F906F905F904F903F902F90DE
:101A500008956115710511F00C94C40B90E080E0BD
:101A60000895CF93DF930E94600A1092780D65E08D
:101A700073E08AE79CE00E94DB31EC01892BA1F046
:101A80006091780D80E00E946B0ABE0189ED9EE0B6
:101A90000E94290D8091780D8F5F8093780D65E00D
:101AA00073E090E080E0E7CFDF91CF9108950E944E
:101AB000600A60E080E00E946B0A67E073E089EDF5
:101AC0009EE00E94290D61E080E00E946B0A64E1C3
:101AD00073E089ED9EE00C94290D0E94600A60E09D
:101AE00080E00E946B0A65E273E089ED9EE00E944F
:101AF000290D61E080E00E946B0A66E373E089EDE6
:101B00009EE00C94290D0E94600A60E080E00E9433
:101B10006B0A6DE373E089ED9EE00C94290D0E9441
:101B2000600A60E080E00E946B0A6EE473E089ED79
:101B30009EE00E94290D61E080E00E946B0A61E650
:101B400073E089ED9EE00C94290D0E94600A60E02C
:101B500080E00E946B0A68E673E089ED9EE00E94D7
:101B6000290D61E080E00E946B0A6AE773E089ED6D
:101B70009EE00C94290D0E94600A60E080E00E94C3
:101B80006B0A6AE873E089ED9EE00C94290D0E94CF
:101B9000600A60E080E00E946B0A67E973E089ED0B
:101BA0009EE00C94290DFC0180819181009711F039
:101BB0000C94B43160E070E0CB0108950F931F9353
:101BC000CF93DF938C01EB01FC0180819181009721
:101BD000E1F06881798161157105A9F04281538135
:101BE0002C813D814217530770F00E9487388C8109
:101BF0009D81F801958384831D821C82DF91CF91A2
:101C00001F910F9108950E94FE3688819981F801F5
:101C1000918380838A819B81938382838C819D8140
:101C200095838483198218821B821A82E5CFCF9311
:101C3000DF93EC0188819981009711F00E94FE36B4
:101C4000198218821D821C821B821A82DF91CF9119
:101C50000895FC0180819181009711F00C94FE366B
:101C600008950F931F93CF93DF93EC01888199819F
:101C7000009759F02A813B812617370730F081E021
:101C8000DF91CF911F910F9108958B016F5F7F4F6F
:101C90000E948737009759F0998388831B830A83B2
:101CA0002C813D81232B59F7FC011082E8CF80E085
:101CB000E7CFEF92FF920F931F93CF93DF936115BE
:101CC000710541F480E0DF91CF911F910F91FF905A
:101CD000EF90089541155105B1F07B01EC010C81A5
:101CE0001D81040F151FB8010E94310E882351F386
:101CF000288139818C819D81B701820F931F0E94B9
:101D000087381D830C8381E0DECFCF93DF93EC0116
:101D1000FB0101900020E9F73197AF01461B570BFB
:101D20000E94590E811103C0CE010E94170ECE01F0
:101D3000DF91CF910895CF93DF93EC01FB014481B4
:101D40005581608171810E94590E811103C0CE01BD
:101D50000E94170ECE01DF91CF910895CF93DF93AC
:101D60001F921F92CDB7DEB769831A8241E050E01F
:101D7000BE016F5F7F4F0E94590E0F900F90DF9151
:101D8000CF910895CF93DF93EC01E881F9818081B1
:101D900091810E94AE0E8A819B8101969B838A83EA
:101DA000DF91CF910895EF92FF920F931F93CF93FE
:101DB000DF93EC01E880F980D7018D919C91FC01C3
:101DC000048115816115710551F0FB01019000201E
:101DD000E9F73197AF01461B570B0E94590ED70107
:101DE000ED91FC91848195812A813B81820F931F23
:101DF000801B910B9B838A83DF91CF911F910F9161
:101E0000FF90EF9008950F931F93CF93DF93CDB77B
:101E1000DEB766970FB6F894DEBF0FBECDBF9C014C
:101E2000CB011E8AFE0176960AE010E0B8010E94FE
:101E3000FA35805D8293CB010097C1F7BF01C901DC
:101E40000E94D30E66960FB6F894DEBF0FBECDBFCC
:101E5000DF91CF911F910F910895FF920F931F93E0
:101E6000CF93DF936115710549F46BEA73E0DF915D
:101E7000CF911F910F91FF900C94D30E8B01EC0129
:101E800062E2CE010E94C20EF80161918F016623C9
:101E900051F0EAEEF2E0F080FF2099F381816817BB
:101EA00059F03296F8CF62E2CE01DF91CF911F91C7
:101EB0000F91FF900C94C20E6CE5CE010E94C20EF1
:101EC0006F2DDFCF0F931F93CF93DF938C01EB0127
:101ED0006BE7CE010E94C20EF80102811381011549
:101EE0001105D1F0F80162817381CE010E942D0F9E
:101EF0006AE3CE010E94C20EBE01C80104960E9490
:101F0000940FF801008111810115110529F06CE28F
:101F1000CE010E94C20EE3CF6DE7CE01DF91CF91DB
:101F20001F910F910C94C20E2F923F924F925F928D
:101F30006F927F928F929F92AF92BF92CF92DF92D9
:101F4000EF92FF920F931F93CF93DF93CDB7DEB73E
:101F50006C970FB6F894DEBF0FBECDBFDC01ED91DC
:101F6000FC9111973197E830F10508F0D7C11B01BA
:101F70008C018827E154F04F8F4F0C943036E211DA
:101F8000DB110C12ED11E911B211D511C70FFD01D2
:101F90004280538064807580A3019201C301B20125
:101FA0000E949A336BEB73E081110FC220E030E0A6
:101FB000A901C301B2010E949A3387FF08C06DE2F4
:101FC000C1010E94C20E77FA709477F8709420E0F5
:101FD00030E0A901C301B2010E949A33882389F03D
:101FE000A3019201C301B2010E94DC349B01AC0148
:101FF000C301B2010E949A336FEB73E0882309F4A6
:10200000E4C120E836E948E15BE4C301B2010E9483
:10201000F03587FD7FC0A6E9EA2EA2E0FA2EB6E6EB
:10202000CB2EB2E0DB2E1EE7A12E12E0B12E00E295
:1020300010E0188E1F8AD7015E914E913E912E912D
:102040007D01C301B2010E94F03587FD11C0F60188
:102050002489358946895789C301B2010E94003419
:102060002B013C018F89988D800F911F988F8F8B4A
:102070001595079594E0C91AD108AE14BF04D9F696
:1020800099249A9420E030E0A901C301B2010E9492
:10209000F03518160CF045C02CEA35EC47E257E352
:1020A000C301B2010E949A331816DCF1A92DB4E0E5
:1020B000AB0250011124D12CC12CEFEF9E1689F1F7
:1020C0007501EC0CFD1CF701E25BFD4FA3019201D1
:1020D00060817181828193810E94F03518169CF491
:1020E000F701E258FD4F2081318142815381C301C4
:1020F000B2010E9400342B013C018F89988D801B16
:10210000910B988F8F8B159507959A9494E0C91A27
:10211000D108D3CF00E210E0E5E09E2E188E1F8A92
:10212000B1CFC301B2010E94C1356B017C014B01EB
:102130005C0106E080E492E4AFE0B0E0898F9A8F22
:10214000AB8FBC8F102F01509AE089169104A10427
:10215000B104C8F0698D7A8D8B8D9C8D2AE030E0BA
:1021600040E050E00E940E36298F3A8F4B8F5C8FF3
:10217000C501B4012AE030E040E050E00E940E3694
:1021800049015A01DFCFC701B6010E949F339B016D
:10219000AC01C301B2010E94DB344B015C01698DCB
:1021A0007A8D8B8D9C8D0E949F339B01AC01C50164
:1021B000B4010E9400344B015C010E94C1352B0127
:1021C0003C010E949F339B01AC01C501B4010E94F8
:1021D000DB349B01AC010E94DC340E94C135460E09
:1021E000571E681E791E898D9A8DAB8DBC8D481641
:1021F00059066A067B06D8F09FEFC91AD90AE90A80
:10220000F90AAF89B88DAB2B39F1BAE0CB16D104FE
:10221000E104F10408F1EF89F88D3196F88FEF8B26
:10222000412C512C3201C12CD12C7601C3945AE09F
:10223000852E912CA12CB12CC301B201A5019401D2
:102240000E940E36672B682B692B51F4111644F44B
:1022500029013A011150F0CF412C512C3201E7CF26
:102260001E8ACE0146969A8F898F4AE0842E912C41
:10227000A12CB12CC701B601A50194010E940E3614
:10228000605DA98DBA8D6E93BA8FA98F69017A01AD
:10229000C114D104E104F10469F7BD01C1010E9438
:1022A000D30E112351F1188A6E01B0E1CB0ED11C6F
:1022B000012F76013AE0832E912CA12CB12C0150F4
:1022C00068F0C301B201A50194010E940E36605D61
:1022D000F60162936F0129013A01F1CF612F70E09D
:1022E000F701E61BF70B31978EE2808360957095BE
:1022F0006E0D7F1DC1010E94D30E8F89988D97FFAF
:1023000026C068EC73E0C1010E94D30E6F89788DFE
:10231000719561957109C1010E94030F6C960FB60A
:10232000F894DEBF0FBECDBFDF91CF911F910F910B
:10233000FF90EF90DF90CF90BF90AF909F908F90E5
:102340007F906F905F904F903F902F900895AF894E
:10235000B88DAB2B19F365E6C1010E94C20E6F89DF
:10236000788DD9CFFD01028113816BE5C1010E94F7
:10237000C20ED80112960D911C910115110581F024
:10238000B101C80102960E94940FF80100811181E9
:102390000115110529F06CE2C1010E94C20EEDCFBA
:1023A0006DE5C1010E94C20EB9CF12968D919C912C
:1023B0000E94620FB3CFFD0162817381C1010E944F
:1023C0002D0FACCF12966D917C91C1010E94D30E5E
:1023D000A5CF6DE2C1010E94C20EF8016281738136
:1023E000848195811E8A8E010A5E1F4F2AE0C22ECB
:1023F000D12CE12CF12CA70196010E940E36605DD4
:10240000D8016E938D01B901CA016115710581056D
:10241000910589F7BD01D9CFFD0182819381A48106
:10242000B58160EB73E0892B8A2B8B2B71F665EB02
:1024300073E0CBCFEF92FF920F931F93CF93DF9375
:10244000EC017B018A01BA010E94310E81110BC09F
:10245000CE010E94170ECE01DF91CF911F910F91F7
:10246000FF90EF9008951D830C83B70188819981B7
:102470000E948738F0CFFB0101900020E9F73197E7
:10248000AF01461B570B0C941A12CF93DF931F9288
:102490001F92CDB7DEB7FC01118210821382128227
:1024A0001582148269831A82BE016F5F7F4F0E947A
:1024B0003B120F900F90DF91CF910895CF93DF9350
:1024C000EC01FB018617970749F060817181611566
:1024D000710541F0448155810E941A12CE01DF91AD
:1024E000CF9108950E94170EF9CFFC01118210823E
:1024F00013821282158214820C945E12FC011182E6
:1025000010821382128215821482FB010190002036
:10251000E9F73197AF01461B570B0C941A12CF9372
:10252000DF9300D000D0CDB7DEB7BC0183E09FE0E1
:102530000E945E126BEC73E0CE0101960E947E1247
:1025400063E07FE0CE0101960E949B0EBC018DEFFF
:102550009EE00E945E12CE0101960E94290E2696F0
:102560000FB6F894DEBF0FBECDBFDF91CF910895B7
:10257000CF93DF9300D000D0CDB7DEB7BC0189E99F
:102580009FE00E945E1265ED73E0CE0101960E940D
:102590007E1269E97FE0CE0101960E949B0E68EEF3
:1025A00073E00E94850EBC0181E89FE00E945E12EC
:1025B000CE0101960E94290E61E87FE083E39FE04F
:1025C0000E945E1226960FB6F894DEBF0FBECDBFF6
:1025D000DF91CF9108955F926F927F928F929F9239
:1025E000AF92BF92CF92DF92EF92FF920F931F9321
:1025F000CF93DF93CDB7DEB72C970FB6F894DEBF3D
:102600000FBECDBF7C016B01842EB22E532EFB0179
:102610008081F70184838281938121E02093A60D3C
:1026200024E22093C80D1092A70D1092C90D60E00E
:102630000E94D40560E0F701828193810E94D40555
:102640006FEFF701828193810E94D405182D100F3E
:1026500061E0610FF701828193810E94D405612FAF
:102660006095F701828193810E94D40564EDF701A2
:10267000828193810E94D4058C0C9D2C911C14EDB9
:10268000F70182819381C814D904C9F4CB2CD52CCD
:102690005601A00EB11CF70182819381AC14BD04D8
:1026A00099F14601F60160810E94D405882371F0FA
:1026B000FFEFCF1ADF0AF4018081180FECCF36014B
:1026C000F60160810E94D405811117C08DEF2C9610
:1026D0000FB6F894DEBF0FBECDBFDF91CF911F9133
:1026E0000F91FF90EF90DF90CF90BF90AF909F90B1
:1026F0008F907F906F905F900895FFEFCF1ADF0A61
:10270000F3018081180FBCCF612F61950E94D40521
:1027100060E0F701828193810E94D40581E00E94EC
:10272000C50186E0EEE2F2E0DE01179601900D921F
:102730008A95E1F70BE010E067E084E20E94240252
:1027400010927E0D80937D0D81110BC061E070E0D1
:1027500080E090E00E94EB040150110969F78EEFD0
:10276000B6CFF701828193810E94CC0580FFEECF26
:102770008E010F5F1F4F6E01F7E0CF0ED11C580185
:10278000F701828193810E94CC05F80181938F012A
:10279000CE16DF06A9F746E050E0B601C5010E945B
:1027A000683821E0892B09F420E0822F81958FCFB2
:1027B0000F931F93CF93DF938B01FC01C281D381D1
:1027C000209759F06A817B810115110519F0611577
:1027D000710549F46017710759F4CE01DF91CF916B
:1027E0001F910F910895C8010E947E38892BA9F38B
:1027F0000990D881C02DE4CFEF92FF920F931F93E1
:10280000CF93DF938C0162EF73E00E94D813EC0149
:10281000892B91F4C8010E94E209EC01892B41F453
:1028200080E0DF91CF911F910F91FF90EF9008957D
:1028300082EF93E09B838A838091030F9091040F32
:10284000892B19F1D8018D919C910091070F10915E
:10285000080F0F5F1F4FDC01ED91FC910190F0819B
:10286000E02DB80119957C010097D1F26091030F1A
:102870007091040FA8010E94753882E090E09D835A
:102880008C83FF82EE8281E0CCCF82E090E09D835A
:102890008C831F821E82F7CFCF93DF93CDB7DEB735
:1028A000AA970FB6F894DEBF0FBECDBF27EF3EE06C
:1028B0003AA729A79E01275D3F4F3EA32DA318A647
:1028C0001FA2FC0162817381808191810E94D813D3
:1028D000FC0190E080E0309799F096E03496DE01BC
:1028E000119601900D929A95E1F786E0FE013196DE
:1028F000DE01179601900D928A95E1F789819A8100
:1029000098878F8386E0FE013796DE011D96019041
:102910000D928A95E1F786E0FE013D96DE01539621
:1029200001900D928A95E1F786E0FE017396DE0133
:10293000599601900D928A95E1F786E0FE0179960D
:10294000DE015F9601900D928A95E1F7BE016B5D05
:102950007F4FCE014F960E94940F8FA198A5AA9603
:102960000FB6F894DEBF0FBECDBFDF91CF910895B3
:10297000CF93DF93EB01FC016281738180819181B0
:102980000E94D813FC01892B09F452C084819581DF
:102990008330910548F5019708F44AC00680F78115
:1029A000E02D309709F444C0808161E070E0843705
:1029B00049F18B32B9F18D32B1F5319691E070E089
:1029C00060E04AE0819120ED280F2A3070F5469FA3
:1029D0009001479F300D1124682F880F770B6053AB
:1029E0007109620F731FEECF8530910548F005978E
:1029F00099F066817781808591850E94BA3502C001
:102A00006681778181E0288139812617370709F0AF
:102A100080E0DF91CF91089566817781719561950E
:102A20007109F0CF319690E0CACF9111F7CFEACF7C
:102A300070E060E0E7CFEF92FF920F931F93CF9388
:102A4000DF938C01EB017A010E94D813009741F4C7
:102A5000C8010E94E2090097C9F0FC01D383C28338
:102A6000F701408151816281738124E030E0FC01F3
:102A700035832483468357836087718781E0DF91A4
:102A8000CF911F910F91FF90EF90089580E0F7CFC5
:102A9000EF92FF920F931F93CF93DF938C01EB0183
:102AA0007A010E94D813009741F4C8010E94E209FC
:102AB000009799F0FC01D383C28326E0F701DC0183
:102AC000149601900D922A95E1F781E0DF91CF9164
:102AD0001F910F91FF90EF90089580E0F7CFAF9294
:102AE000BF92CF92DF92EF92FF920F931F93CF93FB
:102AF000DF9300D000D0CDB7DEB78C01FC0186811A
:102B0000811104C00E947B096C0144C081508683FE
:102B1000819191917F010E94040A6C016BE7C701CA
:102B20000E940907882371F36DE7C7010E94090716
:102B300081112CC0C8010E9475075C01892B11F31B
:102B40006AE3C7010E9409078823E1F21A82198209
:102B5000BE016F5F7F4FC8010E94DC15882391F290
:102B6000AE014F5F5F4FB501C6010E944815882333
:102B700049F26DE7C7010E940907811107C06CE2A5
:102B8000C7010E9409078111D5CFBCCFF80186810A
:102B90008F5F8683C60126960FB6F894DEBF0FBE00
:102BA000CDBFDF91CF911F910F91FF90EF90DF90FC
:102BB000CF90BF90AF900895AF92BF92CF92DF9227
:102BC000EF92FF920F931F93CF93DF9300D000D02B
:102BD000CDB7DEB78C016B015C0182E0A80EB11CA1
:102BE000C5010E94C906D8011296ED91FC91139778
:102BF00080818B3501F18B3709F47FC0FF24F3947A
:102C0000873219F0823209F0F12CC8010E94750751
:102C1000009709F455C021E030E0FF2009F477C0A7
:102C200022E030E0D60111963C932E9313969C93AC
:102C30008E93129746C0F8018681811104C00E94CC
:102C40008D097C0138C0815016968C9316978D9112
:102C50009C910E941A0A7C016BE5C5010E9409073C
:102C6000882369F36DE5C5010E94090781111FC022
:102C70001A821982BE016F5F7F4FC8010E94DC1566
:102C80008823E9F2BE016F5F7F4FC7010E94AE0942
:102C90008823A9F26DE5C5010E940907811107C0CB
:102CA0006CE2C5010E9409078111E2CFC8CFF8018B
:102CB00086818F5F8683D7018D919C91892B99F4B2
:102CC000F12C8F2D26960FB6F894DEBF0FBECDBF28
:102CD000DF91CF911F910F91FF90EF90DF90CF90F8
:102CE000BF90AF90089586E090E0F60191838083D5
:102CF000F382E282FF24F394E4CFC8010E946F15AF
:102D0000DC012D913C91232BD9F227E030E0F60134
:102D10003183208393838283EDCFAF92BF92CF9292
:102D2000DF92EF92FF920F931F93CF93DF9300D028
:102D300000D0CDB7DEB78C01FC018681811104C0C3
:102D40000E947B096C0144C08150868381919191DE
:102D50007F010E94040A6C016BE7C7010E945F07B4
:102D6000882371F36DE7C7010E945F0781112CC0B2
:102D7000C8010E94D6075C01892B11F36AE3C701E1
:102D80000E945F078823E1F21A821982BE016F5FF9
:102D90007F4FC8010E94FA16882391F2AE014F5F5F
:102DA0005F4FB501C6010E944815882349F26DE7BF
:102DB000C7010E945F07811107C06CE2C7010E9432
:102DC0005F078111D5CFBCCFF80186818F5F8683E5
:102DD000C60126960FB6F894DEBF0FBECDBFDF91B9
:102DE000CF911F910F91FF90EF90DF90CF90BF9008
:102DF000AF900895AF92BF92CF92DF92EF92FF9281
:102E00000F931F93CF93DF9300D000D0CDB7DEB7E1
:102E10008C016B015C0182E0A80EB11CC5010E940F
:102E20001F07D8011296ED91FC91139780818B3585
:102E300001F18B3709F47FC0FF24F394873219F036
:102E4000823209F0F12CC8010E94D607009709F4DC
:102E500055C021E030E0FF2009F477C022E030E0E7
:102E6000D60111963C932E9313969C938E931297B2
:102E700046C0F8018681811104C00E948D097C0141
:102E800038C0815016968C9316978D919C910E9414
:102E90001A0A7C016BE5C5010E945F07882369F36C
:102EA0006DE5C5010E945F0781111FC01A8219825A
:102EB000BE016F5F7F4FC8010E94FA168823E9F2B6
:102EC000BE016F5F7F4FC7010E94AE098823A9F240
:102ED0006DE5C5010E945F07811107C06CE2C50165
:102EE0000E945F078111E2CFC8CFF80186818F5F12
:102EF0008683D7018D919C91892B99F4F12C8F2D8C
:102F000026960FB6F894DEBF0FBECDBFDF91CF91EE
:102F10001F910F91FF90EF90DF90CF90BF90AF90F7
:102F2000089586E090E0F60191838083F382E28247
:102F3000FF24F394E4CFC8010E948D16DC012D918B
:102F40003C91232BD9F227E030E0F6013183208336
:102F500093838283EDCF3F924F925F926F927F92E5
:102F60008F929F92AF92BF92CF92DF92EF92FF9299
:102F70000F931F93CF93DF93CDB7DEB7C550D140EA
:102F80000FB6F894DEBF0FBECDBF3C016A017B01D6
:102F900068EF72E0CE0193950E947E12A8EEB3E036
:102FA000A70196010E94C1346B017C0119820E9425
:102FB0001D054B015C01F30184819581892B09F486
:102FC000F2C0008111816BEF73E0C8010E947E386E
:102FD000892B09F50E941D05681979098A099B0941
:102FE0006C157D058E059F0508F028C185EA9FE0D8
:102FF0000E949E05181619066CF785EA9FE00E944C
:10300000AF058E3339F76AEF70E080E090E00E9400
:10301000EB0411E0E5C06DEF73E0C8010E947E385B
:10302000892B41F06FEF73E0C8010E947E38892B35
:1030300009F0B9C00E941D05681979098A099B0920
:103040006C157D058E059F0508F0F8C085EA9FE0A8
:103050000E949E05181619066CF785EA9FE00E94EB
:10306000AF05811109C080915509909156090196CB
:10307000909356098093550980915509909156096E
:103080000297C1F66AEF70E080E090E00E94EB04E6
:103090001092560910925509BCCF442443940E94C3
:1030A0001D05681979098A099B096C157D058E052E
:1030B0009F0508F093C085EA9FE00E949E051816C0
:1030C00019066CF785EA9FE00E94AF05582E8091A3
:1030D000A80A882319F1FCE25F1204C01092540977
:1030E0003092530980915409882329F0652D8BE78C
:1030F0009FE00E94AE0E80E2581202C03092540946
:1031000080915309882351F08BE79FE00E94D30DF3
:103110007093A70A6093A60A1092A80AEDE05E16C3
:1031200019F0FAE05F1248C0E1E0F0E0EC0FFD1F9B
:10313000E00FF11F10828AE05812B1CF89818823F5
:1031400009F4ABCFBE016F5F7F4FCE0193950E9414
:103150003B12FE013196CE01939511928E179F0777
:10316000E1F7CC5FDE4F28813981C450D140F301B3
:10317000848195812817390709F060C0C050DF4F5E
:1031800088819981C050D14060817181009709F494
:1031900045C06115710569F4232B09F43ACFFC0190
:1031A000808190E048C0412C10E000E0332433944B
:1031B00076CF0E947E383FC0E1E0F0E0EC0FFD1FCB
:1031C000E00FF11F5082B801C3010E947B02FC0195
:1031D0008081851164CF0F5F1F4F61CF442071F153
:1031E000CE0193950E94290E812FCB5FDE4F0FB643
:1031F000F894DEBF0FBECDBFDF91CF911F910F912D
:10320000FF90EF90DF90CF90BF90AF909F908F9006
:103210007F906F905F904F903F900895611571057A
:1032200009F4F7CE232B09F4F4CEFB01808190E062
:10323000919581959109892B09F4EBCE10E0D0CFBF
:10324000AF92BF92CF92DF92EF92FF920F931F93B4
:10325000CF93DF93CDB7DEB72C970FB6F894DEBFD0
:103260000FBECDBF68EF72E0CE0107960E947E12BE
:103270000E941D056B017C0161E074E085EA9FE01E
:103280000E94290D0E941D056C197D098E099F0958
:1032900068397A438105910508F42FC16AE274E028
:1032A000CE0101960E947E1245E050E060E070E0A1
:1032B000CE0101960E94AB17CE0101960E94290E05
:1032C00060912008CE0101960E944512BE016F5FF9
:1032D0007F4FCE0107960E94DE0DCE0101960E941F
:1032E000290E60912108CE0107960E94AE0ECE01F4
:1032F00007960E94D30D162F60912308CE010196E8
:103300000E944512BE016F5F7F4FCE0107960E945B
:10331000DE0DCE0101960E94290E60912408CE0197
:1033200007960E94AE0ECE0107960E94D30D062F7F
:1033300060912608CE0101960E944512BE016F5F82
:103340007F4FCE0107960E94DE0DCE0101960E94AE
:10335000290E60912708CE0107960E94AE0ECE017D
:1033600007960E94D30DB62E60912908CE010196D2
:103370000E944512BE016F5F7F4FCE0107960E94EB
:10338000DE0DCE0101960E94290E60912A08CE0121
:1033900007960E94AE0ECE0107960E94D30DF62E20
:1033A00060912C08CE0101960E944512BE016F5F0C
:1033B0007F4FCE0107960E94DE0DCE0101960E943E
:1033C000290E60912D08CE0107960E94AE0ECE0107
:1033D00007960E94D30DA62E60912F08CE0101966C
:1033E0000E944512BE016F5F7F4FCE0107960E947B
:1033F000DE0DCE0101960E94290E60913008CE01AB
:1034000007960E94AE0ECE0107960E94D30D462F5E
:103410008091DC0FE12F012E000CFF0BE80FF11D56
:1034200087FDFA95AF2DFF0CBB0B20E13EE00E941B
:103430003F366B017C01AA2DAA0CBB0B2CE330E0BC
:103440000E943F36C60ED71EE81EF91E042E000C41
:10345000550B660B770BC40ED51EE61EF71EDF015B
:1034600020E833E341EE51E00E944636C60ED71EF7
:10347000E81EF91EA02FAA0FBB0BAE53B04F0D9044
:10348000BC91A02DAB0DB11DB7FCBA95CF01029632
:1034900097FD03969595879595958795A80FB91FE4
:1034A000119720E831E541E050E00E944636C60E13
:1034B000D71EE81EF91E137049F403303CF480E86F
:1034C000C81A81E5D80A81E0E80AF108CE0107961A
:1034D0000E94290EC701B6012C960FB6F894DEBFE4
:1034E0000FBECDBFDF91CF911F910F91FF90EF9055
:1034F000DF90CF90BF90AF90089585EA9FE00E9443
:103500009E05181619060CF0BDCE85EA9FE00E94B4
:10351000AF0580935109823229F4909150099F5F41
:1035200090935009909150099130E1F4823209F45E
:10353000A9CE40914C0950914D0960914E0970916E
:103540004F09FA01E05EF74F80834F5F5F4F6F4F87
:103550007F4F40934C0950934D0960934E097093EF
:103560004F0990CE923009F08DCEE0914C09F09148
:103570004D09E05EF74F108210924C0910924D09F0
:1035800010924E0910924F091092500987CECF9297
:10359000DF92EF92FF921F93CF93DF9300D000D082
:1035A000CDB7DEB70E941D056B017C010E941D0591
:1035B0006C197D098E099F0968397A438105910547
:1035C00080F568EE73E080E090E00E94EB0467E530
:1035D0007FE085EA9FE00E9495026AE274E0CE01F6
:1035E00001960E947E1245E050E060E070E0CE015E
:1035F00001960E94AB17182FCE0101960E94290E4A
:103600001123A1F2812F26960FB6F894DEBF0FBECC
:10361000CDBFDF91CF911F91FF90EF90DF90CF90C2
:10362000089510E0EFCFCF92DF92EF92FF921F93B9
:10363000CF93DF9300D000D0CDB7DEB70E941D0539
:103640006B017C010E941D056C197D098E099F0983
:1036500068397A438105910508F045C068EE73E04A
:1036600080E090E00E94EB0461E57FE085EA9FE066
:103670000E9495026CE074E0CE0101960E947E12D9
:1036800042E050E060E070E0CE0101960E94AB178E
:10369000182FCE0101960E94290E112399F26AE299
:1036A00074E0CE0101960E947E1242E050E060E09C
:1036B00070E0CE0101960E94AB17182FCE01019643
:1036C0000E94290E112359F3812F26960FB6F894E4
:1036D000DEBF0FBECDBFDF91CF911F91FF90EF9066
:1036E000DF90CF90089510E0EFCF2F923F924F924E
:1036F0005F926F927F928F929F92AF92BF92CF9282
:10370000DF92EF92FF920F931F93CF93DF93CDB78A
:10371000DEB7CB51D2400FB6F894DEBF0FBECDBF9F
:10372000CC5EDD4F688379838A839B83C451D2400A
:10373000C85EDD4F288339834A835B83C851D240FA
:10374000AE014C5E5D4F66E174E08091EF0E9091AA
:10375000F00E0E941B15AE01485E5D4F62E774E0FB
:103760008091EF0E9091F00E0E941B158091EF0E4C
:103770009091F00E0E94FC138091EF0E9091F00E4C
:103780007E0127EFE21A2DEFF20A21EF3EE0F7016A
:1037900031832083FA82E9821C821B828E010F5FB3
:1037A0001F4FB8010E94620F61E27FE085EA9FE04F
:1037B0000E9495026AE274E0C8010E947E1245E010
:1037C00050E060E070E0C8010E94AB17D82EC8013D
:1037D0000E94290EDD2009F4D9C063E37FE085EA69
:1037E0009FE00E9495026AE274E0C8010E947E1286
:1037F0004AE050E060E070E0C8010E94AB17D82EAC
:10380000C8010E94290EDD2009F4E2C06AE174E0DB
:10381000C8010E947E124AE050E060E070E0C801FA
:103820000E94AB17D82EC8010E94290EDD2009F492
:10383000CFC069E37FE085EA9FE00E9495026BEFCD
:1038400073E0C8010E947E124AE050E060E070E040
:10385000C8010E94AB17D82EC8010E94290EDD2096
:1038600009F494C062E370E080E090E00E94EB0411
:103870000E9421096DEF7EE0C8010E947512C80107
:103880000E94D408C8010E94290E61EF7EE0C701A2
:103890000E9475126FE07FE0C8010E947512B701A7
:1038A000C8010E947608C8010E94290EC7010E9423
:1038B000290E6AE185EA9FE00E94420565E274E014
:1038C000C8010E947E124AE050E060E070E0C8014A
:1038D0000E94AB17D82EC8010E94290EDD2009F4E2
:1038E00055C064E372E081EF9EE00E943B120E94AB
:1038F0001D052B013C0120E2222E28E0322E3EE362
:10390000832E34E0932ECC24C394809152098111EC
:1039100044C00E941D056419750986099709603223
:103920007E448105910508F088C185EA9FE00E94E8
:103930009E05181619060CF07EC185EA9FE00E94CC
:10394000AF05809351098B3709F06EC0C0925009C2
:10395000D090500991E0D9126EC040914C0950911D
:103960004D0960914E0970914F09FA01E05EF74FE1
:1039700080834F5F5F4F6F4F7F4F40934C09509351
:103980004D0960934E0970934F09BFCF64E372E015
:1039900081EF9EE00E943B12D12C8D2DC55EDD4F44
:1039A0000FB6F894DEBF0FBECDBFDF91CF911F9150
:1039B0000F91FF90EF90DF90CF90BF90AF909F90CE
:1039C0008F907F906F905F904F903F902F900895D1
:1039D0006DE57FE085EA9FE00E9495026DE274E06C
:1039E000C8010E947E1245E050E060E070E0C8012E
:1039F0000E94AB17F82EC8010E94290EFF2031F259
:103A00000E94131B882349F064E372E081EF9EE07B
:103A10000E943B1294E0D92EC0CF0E94C71A88237F
:103A200099F30E94131BF0CF8D3709F091CF22E05C
:103A3000209350098DCFE2E0DE1267CF40914C0910
:103A400050914D0960914E0970914F09FA01E05E65
:103A5000F74F80834F5F5F4F6F4F7F4F405E574FF1
:103A6000FA01108210924C0910924D0910924E09E1
:103A700010924F09109250096FE37FE085EA9FE0B2
:103A80000E94950265E374E0C8010E947E124AE03C
:103A900050E060E070E0C8010E94AB17C8010E94CE
:103AA000290E89E090E08C0F9D1F9C838B83E0E0C2
:103AB000F2E0FE83ED8318861F8288EE92E09A83FF
:103AC0008983F70111830083338222823582248225
:103AD0002AE02683C7010E946F155C01F7019183DC
:103AE00080839382828282E090E0CE5EDD4F998374
:103AF0008883C251D240BE016E5E7D4FC7010E94D5
:103B0000B8148823E9F064E372E087EF9EE00E9436
:103B10003B12F701B182A08289E494E0938382830F
:103B2000C7010E944C1467EF7EE08FE99FE00E947E
:103B30005E1264E372E087EF9EE00E943B122DCF9D
:103B4000F701B182A0829382828281E090E0C05F1F
:103B5000DD4F99838883C051D240BE01605F7D4FA5
:103B6000C7010E94B814882309F462C064E372E0BC
:103B700087EF9EE00E943B12F701B182A08281E5AF
:103B800094E093838283C7010E944C148091F70EC6
:103B90009091F80E009709F443C00E94B0316093F1
:103BA000B10A7093B20A8093B30A9093B40A64E3A3
:103BB00072E087EF9EE00E943B12F701B182A08283
:103BC0008FE594E093838283C7010E944C14809117
:103BD000F70E9091F80E009739F10E94B031609382
:103BE000000270930102809302029093030264E347
:103BF00072E087EF9EE00E943B12F701B182A08243
:103C000089EB97E093838283C7010E944C1464E39D
:103C100072E087EF9EE00E943B12DD24D394BDCE7C
:103C200060E070E0CB01BBCF60E070E0CB01D7CFAC
:103C3000C09252096ACE000068CE64E372E081EF60
:103C40009EE00E943B126FE37FE085EA9FE00E94C6
:103C5000950265E374E0C8010E947E124AE050E0DC
:103C600060E070E0C8010E94AB17C8010E94290EF5
:103C700083E0D82E92CEAF92BF92CF92DF92EF9296
:103C8000FF920F931F93CF93DF93CDB7DEB7CF5043
:103C9000D2400FB6F894DEBF0FBECDBF61E27FE029
:103CA00085EA9FE00E9495026AE274E08E010F5F50
:103CB0001F4FC8010E947E1245E050E060E070E0B6
:103CC000C8010E94AB17F82EC8010E94290EFF20E0
:103CD00009F464C069E67FE085EA9FE00E949502EE
:103CE0006AE274E0C8010E947E1245E050E060E0A4
:103CF00070E0C8010E94AB17F82EC8010E94290E7F
:103D0000FF2009F48FC06AE174E0C8010E947E12AE
:103D100045E050E060E070E0C8010E94AB17F82E6B
:103D2000C8010E94290EFF2009F47CC069E37FE0EE
:103D300085EA9FE00E9495026BEF73E0C8010E9444
:103D40007E124AE050E060E070E0C8010E94AB17CC
:103D5000F82EC8010E94290EFF2089F064E670E069
:103D600080E090E00E94EB046FE67FE085EA9FE050
:103D70000E9495026AE185EA9FE00E94420565E2A1
:103D800074E0C8010E947E124AE050E060E070E0FA
:103D9000C8010E94AB17C8010E94290E0E941D0590
:103DA0006B017C0122E0B22EAA24A3940E941D057F
:103DB0006C197D098E099F0960327E448105910549
:103DC00008F065C085EA9FE00E949E051816190656
:103DD0006CF785EA9FE00E94AF05809351098B370D
:103DE00009F071C0A092500990915009913009F0EA
:103DF00070C040914C0950914D0960914E097091ED
:103E00004F09FA01E05EF74F80834F5F5F4F6F4FBE
:103E10007F4F40934C0950934D0960934E09709326
:103E20004F09C4CF6DE57FE085EA9FE00E949502CF
:103E30006DE274E0C8010E947E1245E050E060E04F
:103E400070E0C8010E94AB17F82EC8010E94290E2D
:103E5000FF2049F00E94131B811105C00E94C71A60
:103E600081110E94131B10E0812FC15FDD4F0FB63F
:103E7000F894DEBF0FBECDBFDF91CF911F910F91A0
:103E8000FF90EF90DF90CF90BF90AF90089564E3E4
:103E900072E081EF9EE00E943B126FE37FE085EAD3
:103EA0009FE00E94950265E374E0C8010E947E12C3
:103EB0004AE050E060E070E0C8010E94AB17C80122
:103EC0000E94290ED1CF8D3709F08ECFB0925009C4
:103ED0008BCF923009F06ACF40914C0950914D0937
:103EE00060914E0970914F0990E2E92E98E0F92E09
:103EF000FA01E05EF74F80834F5F5F4F6F4F7F4F58
:103F0000405E574FFA01108210924C0910924D09F1
:103F100010924E0910924F09109250096FE37FE002
:103F200085EA9FE00E94950265E374E0C8010E9463
:103F30007E124AE050E060E070E0C8010E94AB17DA
:103F4000C8010E94290ECE0109969C838B8380E0D4
:103F500092E09E838D8318861F8288EE92E09A837A
:103F60008983C75FDD4F19830883C950D240C55F7D
:103F7000DD4FF982E882CB50D240C35FDD4FF9823A
:103F8000E882CD50D2408AE0C15FDD4F8883CF50B8
:103F9000D240CE01875F9D4F0E946F1518861F8209
:103FA0006BE674E00E94D8138C01009709F44FC0AF
:103FB000FC01E480F580F1E0EF16F10461F4FC010E
:103FC000668177816115710531F08BEA93E00E947B
:103FD0007E38892BE1F1F1E0EF1AF10822E0E216D8
:103FE000F104A8F5F8010681178167E774E085EA16
:103FF0009FE00E94290D68EA74E085EA9FE00E9434
:10400000290DB80185EA9FE00E94290D68EA74E055
:1040100085EA9FE00E94290D6FEA74E085EA9FE03F
:104020000E94290D6AE274E0CE01875F9D4F0E94D5
:104030007E1245E050E060E070E0CE01875F9D4F6A
:104040000E94AB17182FCE01875F9D4F39CF10E02C
:1040500000E0CBCF1F920F920FB60F9211240BB638
:104060000F922F933F934F935F936F937F938F9311
:104070009F93AF93BF93EF93FF938AEC9DE00E94D1
:104080001703FF91EF91BF91AF919F918F917F9116
:104090006F915F914F913F912F910F900BBE0F90B9
:1040A0000FBE0F901F9018951F920F920FB60F9290
:1040B00011240BB60F922F938F939F93EF93FF933F
:1040C000E091DA0DF091DB0D8081E091E00DF0914F
:1040D000E10D82FD1DC090818091E30D8F5F8F7394
:1040E0002091E40D821741F0E091E30DF0E0E653FA
:1040F000F24F958F8093E30DFF91EF919F918F91F8
:104100002F910F900BBE0F900FBE0F901F90189520
:104110008081F2CF1F920F920FB60F9211242F932E
:104120003F938F939F93AF93BF9380919B0A9091FE
:104130009C0AA0919D0AB0919E0A30919A0A23E0B0
:10414000230F2D3758F50196A11DB11D20939A0A12
:1041500080939B0A90939C0AA0939D0AB0939E0A19
:1041600080919F0A9091A00AA091A10AB091A20A01
:104170000196A11DB11D80939F0A9093A00AA09360
:10418000A10AB093A20ABF91AF919F918F913F91E5
:104190002F910F900FBE0F901F90189526E8230FB8
:1041A0000296A11DB11DD2CF1F920F920FB60F9292
:1041B00011240BB60F922F933F934F935F936F93FE
:1041C0007F938F939F93AF93BF93EF93FF93E09170
:1041D0001602F09117021995FF91EF91BF91AF91DF
:1041E0009F918F917F916F915F914F913F912F910F
:1041F0000F900BBE0F900FBE0F901F9018951F923F
:104200000F920FB60F9211240BB60F922F933F937C
:104210004F935F936F937F938F939F93AF93BF93CE
:10422000EF93FF93E0911402F09115021995FF911D
:10423000EF91BF91AF919F918F917F916F915F911E
:104240004F913F912F910F900BBE0F900FBE0F908B
:104250001F9018951F920F920FB60F9211240BB654
:104260000F922F933F934F935F936F937F938F930F
:104270009F93AF93BF93EF93FF93E0910A02F09166
:104280000B021995FF91EF91BF91AF919F918F9183
:104290007F916F915F914F913F912F910F900BBE46
:1042A0000F900FBE0F901F9018951F920F920FB690
:1042B0000F9211240BB60F922F933F934F935F935E
:1042C0006F937F938F939F93AF93BF93EF93FF93DE
:1042D000E0910802F09109021995FF91EF91BF91C9
:1042E000AF919F918F917F916F915F914F913F918E
:1042F0002F910F900BBE0F900FBE0F901F9018952F
:104300001F920F920FB60F9211240BB60F922F939C
:104310003F934F935F936F937F938F939F93AF934D
:10432000BF93EF93FF93E0911202F091130219955E
:10433000FF91EF91BF91AF919F918F917F916F917D
:104340005F914F913F912F910F900BBE0F900FBE39
:104350000F901F9018951F920F920FB60F92112475
:104360000BB60F922F933F934F935F936F937F936F
:104370008F939F93AF93BF93EF93FF93E0911002BE
:10438000F09111021995FF91EF91BF91AF919F911B
:104390008F917F916F915F914F913F912F910F90EE
:1043A0000BBE0F900FBE0F901F9018951F920F928B
:1043B0000FB60F9211240BB60F922F933F934F938A
:1043C0005F936F937F938F939F93AF93BF93EF937D
:1043D000FF93E0910E02F0910F021995FF91EF917A
:1043E000BF91AF919F918F917F916F915F914F910D
:1043F0003F912F910F900BBE0F900FBE0F901F900B
:1044000018951F920F920FB60F9211240BB60F92B0
:104410002F933F934F935F936F937F938F939F93CC
:10442000AF93BF93EF93FF93E0910C02F0910D02D5
:104430001995FF91EF91BF91AF919F918F917F91CE
:104440006F915F914F913F912F910F900BBE0F9005
:104450000FBE0F901F9018951F920F920FB60F92DC
:1044600011240BB60F922F933F934F935F936F934B
:104470007F938F939F93AF93BF93CF93DF93EF93EC
:10448000FF93E091EB0EF091EC0E309749F0A6858A
:10449000B7858585968D91FF18C09C918923C1F4BD
:1044A000FF91EF91DF91CF91BF91AF919F918F914C
:1044B0007F916F915F914F913F912F910F900BBE24
:1044C0000F900FBE0F901F9018959C91892341F774
:1044D000A389B4899C918589809589238C93868949
:1044E00097890197F1F7608D718DC685D7855585C0
:1044F00098E080E0DB011197F1F7282F30E0359547
:104500002795822F4881452309F08068915091F7C3
:10451000968D91FD80959091A50A9F5F2091A40AA8
:10452000921799F0A091A50AB0E0A656B64F8C93C9
:104530009093A50A828D938D0197F1F7A389B48991
:104540008C919589892B8C93ABCF868D8160868FDA
:10455000F1CF1F920F920FB60F9211240BB60F924C
:104560002F933F934F935F936F937F938F939F937B
:10457000AF93BF93EF93FF938091B900887F80360C
:1045800009F44DC008F040C0883209F4A9C028F5EC
:10459000803109F49DC0C8F4882309F4FBC0883039
:1045A00009F496C0FF91EF91BF91AF919F918F91C8
:1045B0007F916F915F914F913F912F910F900BBE23
:1045C0000F900FBE0F901F901895883109F488C086
:1045D000803241F78093A30D14C0803409F49DC04C
:1045E00040F48033B9F38833E9F68093A30D85EC6A
:1045F000B0C0803509F485C0883509F496C0883488
:1046000089F60E94E405CECF883909F48CC038F5CC
:10461000883729F050F4883611F0803719F683E096
:104620008093A50D1092990957C0883809F47BC072
:10463000803919F0803809F0B5CF8091990980321E
:1046400008F071C0E091990981E08E0F809399097B
:104650008091BB00F0E0E758F64F80833DC0803B7F
:1046600039F0E0F4803A09F479C0883A09F09ACF39
:1046700084E08093A50D1092780910927709E0915B
:104680007B0DF0917C0D19958091770981110FC0F8
:1046900081E0809377091092570909C0803C09F4A2
:1046A000A6CF883C09F4A3CF883B09F07BCFE091EB
:1046B000780981E08E0F80937809F0E0E95AF64F8F
:1046C00080818093BB00909178098091770929C0FF
:1046D0008091800D8093BB0085EC8093BC0062CFFD
:1046E0009091A20D8091A10D981758F5E091A20D1F
:1046F00081E08E0F8093A20DF0E0EF57F24F8081A2
:10470000E9CFE091A20D81E08E0F8093A20D809100
:10471000BB00F0E0EF57F24F80839091A20D8091A3
:10472000A10D9817C8F285E8D8CFE091A20D81E0DD
:104730008E0F8093A20D8091BB00F0E0EF57F24FF7
:1047400080838091A40D81115CCF81E080937F0DE7
:1047500084EA8093BC001092A50D24CF85EC809351
:10476000BC001092A50D80919909803230F4E0913F
:104770009909F0E0E758F64F10826091990970E0CE
:10478000E091790DF0917A0D89E799E019951092F1
:10479000990908CF1092A30D34CFCF93DF9385EE04
:1047A0009EE00E94290E81EF9EE00E94290E87EF75
:1047B0009EE00E94290E8DEF9EE00E94290E83E06C
:1047C0009FE00E94290E89E09FE00E94290E8FE061
:1047D0009FE00E94290E85E19FE00E94290E8BE157
:1047E0009FE00E94290ECBE7DFE02697CE010E94D2
:1047F000290E2FE0C132D207C1F78BE79FE00E945C
:10480000290E81E89FE00E94290E87E89FE00E9420
:10481000290E8DE89FE00E94290E83E99FE00E9407
:10482000290E89E99FE00E94290E8FE99FE00E94EE
:10483000290E86ED92E09093A60F8093A50F8091AC
:10484000EB0E9091EC0E855A9F4071F4E091B80FF9
:10485000F091B90F90818091BA0F80958923808360
:104860001092EC0E1092EB0EDF91CF910895CF9342
:10487000DF9300D000D01F92CDB7DEB71092CD0DE0
:104880001092CC0D48EE53E060E070E04093CE0D06
:104890005093CF0D6093D00D7093D10D8AE992E0C3
:1048A0009093CB0D8093CA0D85EC90E09093D70D3B
:1048B0008093D60D84EC90E09093D90D8093D80D21
:1048C00080EC90E09093DB0D8093DA0D81EC90E02A
:1048D0009093DD0D8093DC0D82EC90E09093DF0DE2
:1048E0008093DE0D86EC90E09093E10D8093E00DD7
:1048F0001092E30D1092E40D1092E50D1092E60D6A
:104900001092CB0E1092CA0E4093CC0E5093CD0E47
:104910006093CE0E7093CF0E8CEA92E09093C90E06
:104920008093C80E8EEB92E09093D50E8093D40EB8
:1049300088EC9EE09093D70E8093D60E1092D80EFE
:1049400084ED9EE09093C70E8093C60E85EE9FE0A7
:104950009093E00F8093DF0F80E092E09093E20F5E
:104960008093E10F1092E40F1092E30F88EE92E033
:104970009093DE0F8093DD0F88E1E6E3F2E0A4EC94
:10498000BFE001900D928A95E1F78EE18093DC0FF4
:104990001092A80F1092A70F4093A90F5093AA0F3F
:1049A0006093AB0F7093AC0F86ED92E09093A60FDF
:1049B0008093A50F1092BC0F1092BB0F1092BE0FE8
:1049C0001092BD0F1092C00F1092BF0F1092C20F25
:1049D0001092C10F6091C30F6E7F6D7F6093C30F04
:1049E0006695617081E068278BE00E94D70361E0E3
:1049F0008BE00E949504E4EEF2E0E491E093B50FC1
:104A0000EEE9F2E0E491F0E0EE0FFF1FE758FD4F12
:104A1000859194919093B70F8093B60F60E08AE0F0
:104A20000E9495048091C30F81FD04C061E08AE07B
:104A30000E94D7038AE08093B10FE3EEF2E0E491A5
:104A4000E093B20FEDE9F2E0E491F0E0EE0FFF1F2A
:104A5000E15AFD4F859194919093B40F8093B30FD9
:104A600064E372E08FE99FE00E947E1260E874E0E8
:104A700089E99FE00E947E126AE974E083E99FE081
:104A80000E947E1265ED73E0CE0101960E947E12B7
:104A900063E97FE0CE0101960E949B0E6AEA74E012
:104AA0000E94850EBC018DE89FE00E947512CE0128
:104AB00001960E94290E62EB74E087E89FE00E9455
:104AC0007E1265ED73E0CE0101960E947E1269E9C7
:104AD0007FE0CE0101960E949B0E68EE73E00E947B
:104AE000850EBC0181E89FE00E947512CE010196FF
:104AF0000E94290E64E372E08BE79FE00E947E1221
:104B000061ED74E081E29FE00E947E1268ED74E046
:104B100087E29FE00E947E126DEE74E08DE29FE0DE
:104B20000E947E1261E87FE083E39FE00E9475129D
:104B300068EF74E089E39FE00E947E1265E075E013
:104B40008FE39FE00E947E1263E175E085E49FE0C1
:104B50000E947E126EE175E08BE49FE00E947E125F
:104B600067E275E081E59FE00E947E1263E375E0F5
:104B700087E59FE00E947E1260E475E08DE59FE08E
:104B80000E947E126DE475E083E69FE00E947E1233
:104B90006DE87FE089E69FE00E94751267E87FE09C
:104BA0008FE69FE00E9475126BE575E085E79FE058
:104BB0000E947E1266E675E08BE19FE00E947E1205
:104BC0006CEA75E085E19FE00E947E126FEF75E070
:104BD0008FE09FE00E947E126EE076E089E09FE029
:104BE0000E947E126FE176E083E09FE00E947E12D9
:104BF0006BEC73E0CE0101960E947E1263E07FE0D1
:104C0000CE0101960E949B0EBC018DEF9EE00E949A
:104C10007512CE0101960E94290E68EF72E087EFAF
:104C20009EE00E947E1268EF72E081EF9EE00E949B
:104C30007E1280911B0F90911C0F009711F488EF4A
:104C400092E02DED3FE03A8329839C838B833E8362
:104C50002D838AE08F83CE0101960E948D1690935A
:104C6000F00E8093EF0E8091150F9091160F009724
:104C700011F488EF92E02DED3FE03A8329839C8385
:104C80008B833E832D838AE08F83CE0101960E9421
:104C90008D169093EE0E8093ED0E1092DC0E109216
:104CA000DB0E8AEC92E09093DA0E8093D90E87E2C5
:104CB0008093DD0E84E18093E20E84E08093E30E26
:104CC0001092E40E68EF72E085EE9EE00E947E1284
:104CD00027960FB6F894DEBF0FBECDBFDF91CF9100
:104CE0000895CF93DF93CDB7DEB764970FB6F894EE
:104CF000DEBF0FBECDBF789484B5826084BD84B51D
:104D0000816084BD85B5826085BD85B5816085BDC6
:104D100080916E00816080936E001092810080917E
:104D20008100826080938100809181008160809306
:104D30008100809180008160809380008091B1002B
:104D400084608093B1008091B00081608093B00056
:104D500080919100826080939100809191008160A8
:104D60008093910080919000816080939000809169
:104D7000A10082608093A1008091A1008160809356
:104D8000A1008091A00081608093A000809121010A
:104D900082608093210180912101816080932101B3
:104DA0008091200181608093200180917A0084604D
:104DB00080937A0080917A00826080937A0080915B
:104DC0007A00816080937A0080917A008068809375
:104DD0007A001092C10061E08CE00E94950461E0CD
:104DE0008CE00E94D703E091DA0DF091DB0D82E0B8
:104DF0008083E091D60DF091D70D1082E091D80D0F
:104E0000F091D90D80E180831092E20DE091DE0DEA
:104E1000F091DF0D86E08083E091DC0DF091DD0DF7
:104E2000808180618083E091DC0DF091DD0D8081D7
:104E300088608083E091DC0DF091DD0D80818068D9
:104E40008083E091DC0DF091DD0D80818F7D80838A
:104E50000E9463041092DE0E8091E30E823018F0FF
:104E600098E09093DE0E8093E10E62E370E080E0C4
:104E700090E00E94EB046091E40E89ED9EE00E94B8
:104E80009A0668EE73E080E090E00E94EB0460E335
:104E900089ED9EE00E94300A5BE4E52E56E4F52E93
:104EA000C7010197F1F760E389ED9EE00E94300AA7
:104EB000C7010197F1F760E389ED9EE00E94300A97
:104EC00083E592E00197F1F760E289ED9EE00E94B0
:104ED000300A6091DE0E606240E089ED9EE00E9443
:104EE000490A84E08093DF0E40E06CE089ED9EE0AB
:104EF0000E94490A0E94600A82E08093E00E40E02E
:104F000066E089ED9EE00E94490A40E062E089ED9A
:104F10009EE00E94490A8BE39FE10197F1F788E048
:104F20008093E40E60E089ED9EE00E949A0661E0C5
:104F30008CE10E94950460E08CE10E94D70361E05F
:104F40008BE10E94950460E08BE10E94D7037E0113
:104F500027E0E20EF11C6DEB262E312C7BE9872E2B
:104F6000992493948AEC9DE00E9401031816190677
:104F7000A4F58AEC9DE00E94DF029091590CE92F84
:104F8000F0E0EB50F44F80838A3009F02CC310928C
:104F9000590C8091F50B853409F44DC08F34D1F054
:104FA0008334D9F48091F60B893409F4B7C0823583
:104FB000A1F48091F70B843509F499C0893509F47F
:104FC00090C08E3451F41092F20B1092F10B0E94AB
:104FD000310D9DC081E08093F40B8091F40B811121
:104FE000FFC08091D00A811123C00E94600A60E056
:104FF00080E00E946B0A62E976E089ED9EE00E9403
:10500000290D61E080E00E946B0A64EA76E089ED98
:105010009EE00E94290D63E080E00E946B0A68EB2D
:1050200076E089ED9EE00E94290D81E08093D00A10
:105030000E94A60397CF8091F60B8E3429F1893513
:10504000F9F481E0809319020E94600A60E080E038
:105050000E946B0A65E276E089ED9EE00E94290DD0
:1050600061E080E00E946B0A68E376E089ED9EE0F3
:105070000E94290D68EE73E080E090E00E94EB044E
:1050800081E08093F30BA9CF109219020E94600A6D
:1050900060E080E00E946B0A6CE476E089ED9EE0BF
:1050A0000E94290D61E080E00E946B0A6FE576E0C6
:1050B00089ED9EE00E94290D62E080E00E946B0A6B
:1050C00065E276E089ED9EE00E94290D63E080E0D4
:1050D0000E946B0A6EE676E089ED9EE00E94290D43
:1050E000CFCF81E08093F20B8093F10B76CF1092BB
:1050F000F20B1092F10B0E94600A60E080E00E94C7
:105100006B0A6FE776E089ED9EE00E94290D68E862
:1051100073E180E090E00E94EB045FCF8091F70B99
:10512000833409F440C2F4F4813409F41DC2A8EFB9
:10513000BBE0E5EEFBE021EF3BE0823409F04DCF30
:105140008D9181938A3009F029C285EE9BE00E94FF
:10515000B0316093E10B7093E20B8093E30B90937B
:10516000E40B3BCF8D3431F18E3409F036CF809192
:10517000F80B8093D00B8091F90B8093D10B809129
:10518000FA0B8093D20B8091FB0B8093D30B809111
:10519000FC0B8093D40B60ED7BE0CE0101960E9466
:1051A0007E12CE0101960E948F12CE0101960E94BE
:1051B000290E13CF28EF3BE0AAE7BCE0AD014A5728
:1051C0005C40F90181919F018D938A30B9F7FA0112
:1051D000E658F34F10828091F40B882309F4F7CE40
:1051E00080911802882309F46DC21092C00F1092AA
:1051F000BF0F1092BE0F1092BD0F1092BC0F1092F5
:10520000BB0F2DE931E03093C20F2093C10F809185
:10521000B10F96EF980F943048F02EEC280F243001
:1052200028F022EC280F283008F05DC03092BC0F27
:105230002092BB0F9092BE0F8092BD0F2CE231E006
:105240003093C00F2093BF0F943050F02EEC280FF6
:10525000243030F022EC280FF0E0E0E0283010F4A9
:10526000E8E6F0E02081943028F032EC380F383056
:1052700008F4BDC131E0232B943048F09EEC980F28
:10528000943028F08E53F0E0E0E0883010F4E8E647
:10529000F0E020832091B10F36EF320F343008F464
:1052A000A8C18EEC820F843008F4A3C182EC820F77
:1052B000883008F0A1C18DE690E09093B90F8093FB
:1052C000B80F343008F09BC12650330B81E001C089
:1052D000880F2A95EAF78093BA0F8091C10F9091B9
:1052E000C20F0197F1F78091BF0F9091C00F892BEA
:1052F00049F1E091EB0EF091EC0E3FE0E53AF30757
:1053000009F1309739F0A389B4899C9185898095FA
:1053100089238C938091C30F8E7F8093C30F10924B
:10532000A50A1092A40A85EA9FE09093EC0E809360
:10533000EB0EE091B80FF091B90F80819091BA0F08
:10534000892B808361E080E30E94950461E080E323
:105350000E94D7030E941D052B013C010E941D05E0
:10536000641975098609970968397A438105910599
:1053700008F568EE73E080E090E00E94EB0463E6DD
:105380007FE085EA9FE00E9495026AE274E0CE0128
:1053900001960E947E1242E050E060E070E0CE0193
:1053A00001960E94AB17082FCE0101960E94290E8C
:1053B0000023A1F20E941D052B013C010E941D0546
:1053C000641975098609970968397A438105910539
:1053D00008F568EE73E080E090E00E94EB0461E283
:1053E0007FE085EA9FE00E9495026AE274E0CE01C8
:1053F00001960E947E1242E050E060E070E0CE0133
:1054000001960E94AB17082FCE0101960E94290E2B
:105410000023A1F20E941D052B013C010E941D05E5
:10542000641975098609970968397A4381059105D8
:1054300008F03FC768EE73E080E090E00E94EB0464
:1054400065E77FE085EA9FE00E9495026DEC76E0DB
:10545000CE0101960E947E1242E050E060E070E0D2
:10546000CE0101960E94AB17082FCE0101960E9433
:10547000290E002399F26AE274E0CE0101960E949F
:105480007E1242E050E060E070E0CE0101960E94A2
:10549000AB17082FCE0101960E94290E002359F365
:1054A00081E08093CF0A0E94600A60E080E00E9461
:1054B0006B0A61EC77E089ED9EE00E94290D60EDBA
:1054C00077E080E090E00E94EB040E941D052B0134
:1054D0003C010E941D056419750986099709683900
:1054E0007A438105910508F0E9C668EE73E080E033
:1054F00090E00E94EB0465E47FE085EA9FE00E9473
:1055000095026AED76E0CE0101960E947E1242E09D
:1055100050E060E070E0CE0101960E94AB17082FCA
:10552000CE0101960E94290E002399F26AE274E0EE
:10553000CE0101960E947E1242E050E060E070E0F1
:10554000CE0101960E94AB17082FCE0101960E9452
:10555000290E002359F30E94600A60E080E00E9457
:105560006B0A66EF77E0BCC68091D10AE8EFFBE0FA
:10557000A2EDBAE091919D939232E1F78F5F823074
:10558000C9F71092D10A62ED7AE0CE0101960E942D
:105590007E12CE0101960E94B81207CE2E173F0749
:1055A00009F0CECD1ACDA8EFBBE0E5EDFBE08D9183
:1055B00081938A3099F485ED9BE00E94B03122E519
:1055C00039E44DE15BE30E94003460930402709380
:1055D00005028093060290930702FFCC3BE0E13E78
:1055E000F30729F7FACC9F5F9093590CF6CC34E07F
:1055F00042CE8BE690E061CE90E080E05ECE88E027
:10560000223309F468CE84E0233309F464CE82E0C7
:10561000243309F460CE82EC820F883018F42E53C4
:10562000330B54CE81E057CE1E3409F4D7C0153564
:1056300009F4BCC060ED77E080E090E00E94EB04EC
:105640000E94131B882309F411C10E94BB0D60ED59
:1056500077E080E090E00E94EB0443E0C42ED12C80
:105660000E943B1E882309F40CC181E08093CE0A7E
:105670000E94600A60E080E00E946B0A6EE473E0C2
:1056800089ED9EE00E94290D61E080E00E946B0A96
:1056900065E177E089ED9EE00E94290D8091CE0AB8
:1056A000811102C00E948F0D60ED77E080E090E0F4
:1056B0000E94EB0460ED77E080E090E00E94EB0454
:1056C0001092180282E08093860E8091C60E90910F
:1056D000C70EDC01ED91FC910480F581E02D00E026
:1056E00030E020E041E066E87EE01995882309F487
:1056F000F0C01092CD0A0E94600A60E080E00E9433
:105700006B0A6CE277E089ED9EE00E94290D61E072
:1057100080E00E946B0A6FE377E089ED9EE00E94D3
:10572000290D68EE73E080E090E00E94EB0480CCED
:1057300068EE73E080E090E00E94EB046BE47FE0B1
:1057400085EA9FE00E94950266EE73E0CE01019625
:105750000E947E1242E050E060E070E0CE010196CF
:105760000E94AB17082FCE0101960E94290E00233C
:1057700009F4C7C58091A60A9091A70A83309105C4
:105780006CF19C01235031092B30310508F4D0C550
:105790002B5031092C303105C8F12C5031092630FD
:1057A000310508F44BC0809709F4B7C50E94600A20
:1057B00060E080E00E946B0A65EE76E089ED9EE095
:1057C0000E94290D61E080E00E946B0A6DE077E0A5
:1057D00089ED9EE00E94290D15E52CCF0E94600AFC
:1057E00060E080E00E946B0A65EE76E089ED9EE065
:1057F0000E94290D61E080E00E946B0A67EF76E06D
:1058000089ED9EE00E94290D1EE414CF0E94600ADB
:1058100060E080E00E946B0A65EE76E089ED9EE034
:105820000E94290D61E080E00E946B0A61E077E050
:1058300089ED9EE00E94290D1DE4FCCE0E94600AC5
:1058400060E080E00E946B0A65EE76E089ED9EE004
:105850000E94290D61E080E00E946B0A68E077E019
:1058600089ED9EE00E94290D18E4E4CE0E94C71A3B
:10587000882321F00E94131B8111E7CE0E94A50D01
:10588000E6CE1092CE0A0E94600A60E080E00E949C
:105890006B0A6EE473E089ED9EE00E94290D61E0E1
:1058A00080E00E946B0A61E673E089ED9EE00E9451
:1058B000290D62E080E00E946B0A60E277E089EDEA
:1058C0009EE00E94290D31E0C31AD10809F0C8CE2C
:1058D000E5CE8091C60E9091C70EDC01ED91FC9152
:1058E0000680F781E02D28EE33E040E466E87EE0B4
:1058F000199597FDFECE8091860E9091870E982780
:1059000089279827B0E0A0E0BA2FA92F982F8827E1
:105910002091880E822BBA2FA92F982F88272091AB
:10592000890E822B892B8A2B8B2B09F4E2CE809156
:10593000CD0A811146C08091C60E9091C70EDC0140
:10594000ED91FC910190F081E02D19958091C60EAA
:105950009091C70EDC01ED91FC910280F381E02D66
:10596000199594E19093860E81E08093870E909331
:10597000880E8093890E8091C60E9091C70EDC012F
:10598000ED91FC910480F581E02D00E030E020E015
:1059900044E066E87EE01995811110C08091C60E42
:1059A0009091C70EDC01ED91FC910680F781E02D0E
:1059B00028EE33E040E466E87EE0199581E08093CC
:1059C000CD0A8AE48093860E81E08093870E109240
:1059D000880E8091C60E9091C70EDC01ED91FC916E
:1059E0000480F581E02D00E030E020E043E066E84F
:1059F0007EE019958111BBC08091C60E9091C70EB3
:105A0000DC01ED91FC910680F781E02D22E330E08E
:105A100040E466E87EE0199597FDA9C08091860E66
:105A2000813009F0A4C090918B0E9093A90AACE844
:105A3000BEE0EAEAFAE080E0981721F02D91219388
:105A40008F5FFACF01E00093CC0A8091CA0A8823C5
:105A500009F401C38091F20B882309F426C401E004
:105A60000093F10B8091C80A811120C08091CB0A6C
:105A700081111CC061E08CE10E94D70361E08BE1E1
:105A80000E94D7036AEF70E080E090E00E94EB0490
:105A900087E692E090931102809310028091690052
:105AA000806380936900EA9A0093C80A2091E10B11
:105AB0003091E20B4091E30B5091E40B6091C40AEA
:105AC0007091C50A8091C60A9091C70A0E949A33C4
:105AD00087FFC9C36091B60A7091B70A8091B80A6E
