:100000000C9492010C9414260C94E9250C94BE25B2
:100010000C9493250C9468250C943D250C94122582
:100020000C94E7240C943F260C943F260C943F2616
:100030000C94C3010C94C3010C94C3010C94C30130
:100040000C94C3010C94C3010C94C3010C94C30120
:100050000C94C3010C94C3010C94C3010C949D2413
:100060000C94C3010C9467240C943D240C94C3019C
:100070000C94C3010C94C3010C94C3010C94C301F0
:100080000C94C3010C94C3010C94C3010C94C301E0
:100090000C94C3010C94C3010C94C3010C94BB26B3
:1000A0000C94C3010C94C3010C94C3010C94C301C0
:1000B0000C94C3010C94C3010C94C3010C94C301B0
:1000C0000C94C3010C94C3010C94C3010C94C301A0
:1000D0000C94C3010C94C3010C94C3010C94C30190
:1000E0000C94C3010C94DA010C94E5040C940B06F7
:1000F0000C9440020C949F0B0C9462020C948303AA
:100100000C94DB010C94DF270C949E030C94B40335
:100110000C9476080C94DB0C0C94D50C0C94C50153
:100120000C9468030C94E7020C94A6030C94251419
:100130000C9454020C9444140C9470040C948E038C
:100140000C94C6010C946D030C9413140C94231599
:100150000C947F030C9404020C94BA030C942114A5
:100160000C946F080C9487030C948B030C944D082B
:100170000C9437280C9458040C94FF110C947104BF
:100180000C94A2030C945C080C94BE030C94CD0454
:100190000C94EA130C94EE010C9456060C941A1469
:1001A0000C94B0030C9431020C940D140C94940331
:1001B0000C9498030C94AC030C94A3080C94E608DC
:1001C0000C949A024E414E494E495459494E46CDDF
:1001D000CCCC3D0AD7233C17B7D13877CC2B3295FE
:1001E00095E6241FB14F0A000020410000C84200DC
:1001F000401C4620BCBE4CCA1B0E5AAEC59D7400A6
:10020000002100240027002A002D003000330001C7
:10021000010000040107010A0100000A0B02090C99
:100220000D0E08070304010000000000000000009C
:1002300000000000000000000000000000000000BE
:10024000000000000012111000000000000000007B
:10025000000000000000000000000000000000009E
:100260000020002300260029002C002F003200006F
:1002700001000003010601090100002200250028F9
:10028000002B002E0031003400020100000501089F
:10029000010B01050505050705080808080202020B
:1002A000020A0A0808040404040101010101010111
:1002B000010303030303030303040707070C0C0CE8
:1002C0000C0C0C0C0C0202020206060606060606C0
:1002D000060B0B0B0B0B0B0B0B010210202008085D
:1002E0001020401020408002010201080402010198
:1002F0000204081020408080402010080402018081
:1003000004020180402010080402010804020101D7
:1003100002040810204080010204081020408000E0
:100320003728DF2711241FBECFEFD1E2DEBFCDBFBC
:1003300000E00CBF22E1A8E2B9E001C01D92A8359F
:10034000B207E1F719E0A0E0B2E0E0EDFAE700E083
:100350000BBF02C007900D92A832B107D9F711E088
:10036000C1E9D1E000E006C021970109802FFE011C
:100370000E94E93AC039D10780E00807A9F70E9436
:10038000712A0C94563D0C940000089580911C0B2A
:1003900090911D0BA0911E0BB0911F0B0196A11DFA
:1003A000B11D80931C0B90931D0BA0931E0BB0935B
:1003B0001F0B089508950895FC012481358162176B
:1003C000730720F480819181009729F41092FE0A2E
:1003D0008EEF9AE00895860F971F08950895DC0127
:1003E000ED91FC910190F081E02D1994DB011496C0
:1003F0004D915C9115976D917C91DC01ED91FC9193
:100400000280F381E02D1994AF92BF92CF92DF92D8
:10041000EF92FF920F931F93CF93DF936C017B01B9
:100420008B01040F151FEB015E01AE18BF08C0174A
:10043000D10759F06991D601ED91FC910190F081BD
:10044000E02DC6011995892B79F7C501DF91CF9170
:100450001F910F91FF90EF90DF90CF90BF90AF90E2
:100460000895FC01538D448D252F30E0842F90E0BA
:10047000821B930B541710F0CF960895019708959F
:10048000FC01918D828D981761F0A28DAE0FBF2F68
:10049000B11D5D968C91928D9F5F9F73928F90E0BE
:1004A00008958FEF9FEF0895FC01918D828D98172D
:1004B00031F0828DE80FF11D858D90E008958FEF6A
:1004C0009FEF0895FC01918D228D892F90E0805C33
:1004D0009F4F821B91098F739927089587E39EE0B0
:1004E0000E94620221E0892B09F420E0822F089506
:1004F000FC01A48DA80FB92FB11DA35ABF4F2C9199
:10050000848D90E001968F739927848FA689B7898F
:100510002C93A089B1898C91837080648C93938D86
:10052000848D981306C00288F389E02D80818F7D29
:1005300080830895EF92FF920F931F93CF93DF93E1
:10054000EC0181E0888F9B8D8C8D98131AC0E8890F
:10055000F989808185FF15C09FB7F894EE89FF89DE
:100560006083E889F98980818370806480839FBF7C
:1005700081E090E0DF91CF911F910F91FF90EF907C
:100580000895F62E0B8D10E00F5F1F4F0F7311278C
:10059000E02E8C8D8E110CC00FB607FCFACFE889C7
:1005A000F989808185FFF5CFCE010E947802F1CFD5
:1005B000EB8DEC0FFD2FF11DE35AFF4FF0829FB73B
:1005C000F8940B8FEA89FB8980818062CFCFCF932B
:1005D000DF93EC01888D8823B9F0AA89BB89E8896B
:1005E000F9898C9185FD03C0808186FD0DC00FB611
:1005F00007FCF7CF8C9185FFF2CF808185FFEDCF8F
:10060000CE010E947802E9CFDF91CF91089580E07A
:1006100090E0892B29F00E946E0281110E94000057
:1006200080E090E0892B49F080E090E0892B29F070
:100630000E94000081110E94000080E090E0892B60
:1006400049F080E090E0892B29F00E9400008111A0
:100650000E94000080E090E0892B49F080E090E06B
:10066000892B29F00E94000081110C94000008954C
:10067000282F30E0F901E75EFD4F9491F901E75230
:10068000FD4F44912D563D4FF9012491222309F449
:1006900035C0992311F191509231F8F4E92FF0E02F
:1006A0008827EA5AFC4F8F4F0C94E93A87038B0353
:1006B00068037F0383036D038E03940398039E03F3
:1006C000A203A603AC03B0036D03B403BA03BE03D5
:1006D000809180008F7780938000E22FF0E0EE0F12
:1006E000FF1FE758FD4FA591B4918FB7F894EC9197
:1006F000611148C040954E234C938FBF089580915F
:1007000080008F7DE8CF80918000877FE4CF84B523
:100710008F7784BDE2CF84B58F7DFBCF8091B00011
:100720008F778093B000D9CF8091B0008F7DF9CFC3
:10073000809190008F7780939000CFCF8091900030
:100740008F7DF9CF80919000877FF5CF8091A000B9
:100750008F778093A000C1CF8091A0008F7DF9CFCB
:100760008091A000877FF5CF809120018F778093C3
:100770002001B3CF809120018F7DF9CF809120019E
:10078000877FF5CF4E2BB8CFCF93DF9390E0FC015E
:10079000E752FD4F24918D569D4FFC018491882393
:1007A000D1F090E0880F991FFC01E150FE4FA59118
:1007B000B491FC01E758FD4FC591D49161110EC071
:1007C0009FB7F8948C91E22FE0958E238C9328812B
:1007D000E223E8839FBFDF91CF9108958FB7F8940C
:1007E000EC91E22BEC938FBFF6CF3FB7F89480915A
:1007F000FA0A9091FB0AA091FC0AB091FD0A26B575
:10080000A89B05C02F3F19F00196A11DB11D3FBF48
:10081000BA2FA92F982F8827BC01CD01620F711D17
:10082000811D911D42E0660F771F881F991F4A9511
:10083000D1F708958F929F92AF92BF92CF92DF929D
:10084000EF92FF924B015C010E94F5036B017C016A
:100850000E94F5036C197D098E099F09683E73405B
:1008600081059105A8F321E0821A9108A108B10839
:1008700088EEC80E83E0D81EE11CF11C811491049F
:10088000A104B10429F7FF90EF90DF90CF90BF90C3
:10089000AF909F908F9008952FB7F8946091F60ACB
:1008A0007091F70A8091F80A9091F90A2FBF089584
:1008B0002091E60C3091E70C2817390771F49091DC
:1008C000E40C8091E50C981741F0E091E40CF0E025
:1008D000EB54F54F808190E008958FEF9FEF0895DE
:1008E0000895EF92FF920F931F93CF93DF93DC0154
:1008F0005C96ED90FC905D97E114F10479F481E051
:1009000090E013969C938E93129790E080E0DF9195
:10091000CF911F910F91FF90EF9008955196ED9117
:10092000FC91529750968C915097982F90950FB7B5
:100930005E962C915E97122F127021FD6095F894AF
:100940002081112319F1282B2083E7012197F1F74A
:1009500028E0462F50E0308160FF1AC0382B3083EA
:10096000E7012197F1F7BA0175956795215089F74D
:10097000112381F08081892380830FBF5C968D9144
:100980009C910197F1F781E090E0C1CF2923DCCF62
:100990003923E5CF9081892BEFCF2091E60C309160
:1009A000E70C2817390771F48091E50C2091E40CCD
:1009B00090E0805C9F4F821B910960E470E00E9490
:1009C000943A089590E080E008952091E60C3091EB
:1009D000E70C28173907B9F49091E40C8091E50CE5
:1009E000981789F0E091E40CF0E0EB54F54F80812A
:1009F0002091E40C30E02F5F3F4F2F73332720937B
:100A0000E40C90E008958FEF9FEF0895E091E60CDD
:100A1000F091E70CE817F90769F4A389B4899C9170
:100A20008589809589238C931092E70C1092E60CAF
:100A300081E0089580E008959B01AC0110922B1095
:100A400010922A101092291010922810109227103C
:100A50001092261060E079E08DE390E00E94CA3A9F
:100A6000C901039790932D1080932C1080911C1036
:100A700096EF980F943048F06EEC680F643028F0D1
:100A800062EC680F683008F06EC0B9017695679522
:100A9000635171097093271060932610B901655056
:100AA00071097093291060932810B901660F771FA0
:100AB000260F371F36952795369527952C503109E7
:100AC00030932B1020932A10943050F02EEC280FE6
:100AD000243030F022EC280FF0E0E0E0283010F471
:100AE000E8E6F0E02081943028F032EC380F38301E
:100AF00008F464C031E0232B943048F09EEC980F4A
:100B0000943028F08E53F0E0E0E0883010F4E8E60E
:100B1000F0E0208320911C1036EF320F343008F4BF
:100B20004FC08EEC820F843008F44AC082EC820FF2
:100B3000883008F448C090E080E0909324108093BF
:100B40002310343008F042C02650330B81E001C03E
:100B5000880F2A95EAF78093251080912C109091A8
:100B60002D100197F1F780912A1090912B10892B6D
:100B700021F18091E60C9091E70C20E18031920701
:100B8000E1F0009711F00E94060580912E108E7FF3
:100B900080932E101092E50C1092E40C80E190E10D
:100BA0009093E70C8093E60CE0912310F0912410D1
:100BB000808190912510892B8083089534E09BCF0C
:100BC0008BE690E0BACF8DE690E0B7CF88E0223395
:100BD00009F4C1CF84E0233309F4BDCF82E024338C
:100BE00009F4B9CF82EC820F883018F42E53330BFE
:100BF000ADCF81E0B0CFDC01ED91FC910284F385B3
:100C0000E02D19950895DC01ED91FC910190F081A2
:100C1000E02D1995089564EF71E080E090E00C9468
:100C20001A042091920A260F3327331F21323105EF
:100C3000ECF420910D0EFC0190E080E0243069F08E
:100C400082E00895A091920A2191AC014E58554F2F
:100C5000A40FB52FB11D2C930196861798F38091A0
:100C6000920A680F6093920A80E0089581E00895E7
:100C700010920D0E81E080930C0E1092E70D61E052
:100C800084E10E94380361E085E10E943803E9EBCA
:100C9000F0E080818E7F808380818D7F808388E4F7
:100CA0008093B80085E48093BC0008951092040BF3
:100CB0001092030B1092140E1092360E0E943806FA
:100CC0008AED91E09093020B8093010B8BED91E004
:100CD0009093000B8093FF0A0895CF93DF9391E0E8
:100CE0009093710A8823B9F0C091B800D091BA00EE
:100CF0008091BC008A7B8093BC0060E084E10E940C
:100D0000380360E085E10E9438030E943806D093E2
:100D1000BA00C093B800DF91CF9108958F929F924F
:100D2000AF92BF92CF92DF92EF92FF920F931F93F9
:100D3000CF93DF93D091360ED13208F0D7C0182F61
:100D4000C091350E0E94F5036B017C0180910D0E60
:100D500081116BC082E080930D0E10930C0E8FEF0B
:100D600080930B0E10920A0ED093090EA5E1BEE0FF
:100D7000E9EEFDE080E0D81391C01092E80D80917B
:100D8000E80DCC0FC82BC093E80D8091E70D8130A2
:100D900009F088C01092E70D0E94F5036B017C01F9
:100DA0008091E80D8093BB0080910F0E9091100E02
:100DB000A091110EB091120E892B8A2B8B2BA1F0D2
:100DC0000E94F50300910F0E1091100E2091110E4C
:100DD0003091120E6C197D098E099F0906171707AD
:100DE0002807390708F442C08091BC0083FDD8CFA2
:100DF00085EC8093BC000E94F5036B017C0180911F
:100E00000D0E823009F450C080910B0E8F3F09F413
:100E10006FC080910B0E803209F46CC080910B0E74
:100E2000803309F469C084E026C080910F0E909150
:100E3000100EA091110EB091120E892B8A2B8B2BC4
:100E400009F484CF0E94F50380900F0E9090100E4D
:100E5000A090110EB090120E6C197D098E099F0999
:100E600086169706A806B90608F070CF80910E0E78
:100E70000E946D0685E01092140E1092360E1092AC
:100E8000130EDF91CF911F910F91FF90EF90DF90A4
:100E9000CF90BF90AF909F908F9008959D91919328
:100EA0008F5F69CF85EEA5CF80910F0E9091100EC8
:100EB000A091110EB091120E892B8A2B8B2B09F465
:100EC0009ECF0E94F50300910F0E1091100E2091FD
:100ED000110E3091120E6C197D098E099F090617AB
:100EE00017072807390708F08ACFC0CF81E0C3CFA2
:100EF00080E0C1CF82E0BFCF83E0BDCFCF92DF9251
:100F0000EF92FF920F931F93CF93DF93D82FC62FAB
:100F1000613208F098C00E94F5036B017C0180915A
:100F20000D0E81116BC081E080930D0E80930C0E2D
:100F30009FEF90930B0E10920A0E9C0F9093090E48
:100F40008093E80D8091E80DDD0FD82BD093E80D4C
:100F50008091E70D813009F078C01092E70D0E9472
:100F6000F5036B017C018091E80D8093BB008091BB
:100F70000F0E9091100EA091110EB091120E892BB0
:100F80008A2B8B2BA1F00E94F50300910F0E10917C
:100F9000100E2091110E3091120E6C197D098E09E0
:100FA0009F09061717072807390708F448C08091DA
:100FB000BC0083FDD8CF85EC8093BC000E94F50374
:100FC0006B017C0180910D0E813009F440C080914D
:100FD0000A0E8C1710F4C0910A0EE9EEFDE0A4ECA5
:100FE000BCE080E08C1355C08C2FDF91CF911F9116
:100FF0000F91FF90EF90DF90CF90089580910F0EAA
:101000009091100EA091110EB091120E892B8A2B87
:101010008B2B09F484CF0E94F50300910F0E1091E1
:10102000100E2091110E3091120E6C197D098E094F
:101030009F09061717072807390708F070CF809116
:101040000E0E0E946D06C0E0CFCF85EEB5CF809129
:101050000F0E9091100EA091110EB091120E892BCF
:101060008A2B8B2B09F4AECF0E94F50300910F0E53
:101070001091100E2091110E3091120E6C197D09F5
:101080008E099F09061717072807390708F09ACF16
:10109000D6CF91919D938F5FA5CFE091040B809166
:1010A000030BE81730F4F0E0EC53F34F808190E04D
:1010B00008958FEF9FEF08959091040B8091030B9B
:1010C0002FEF3FEF981748F4E92FF0E0EC53F34F80
:1010D000208130E09F5F9093040BC90108958091B7
:1010E000030B9091040B891B990B0895CF92DF920B
:1010F000EF92FF920F931F93CF93DF937C01CB016D
:101100008A012091130E222389F0EB016B01C40E9A
:10111000D51ECC15DD0569F06991D701ED91FC91E3
:101120000190F081E02DC7011995F3CF642F0E9443
:101130001106C801DF91CF911F910F91FF90EF90A1
:10114000DF90CF900895CF93DF931F92CDB7DEB796
:1011500069832091130E2223F9F02091360E20325C
:1011600058F021E030E0FC013383228390E080E0FE
:101170000F90DF91CF9108958091140EE82FF0E049
:10118000EB5EF14F998190838F5F8093140E809373
:10119000360E81E090E0ECCF61E0CE0101960E9436
:1011A0001106F7CFFC01248131E03093130E209318
:1011B000350E1092140E1092360E8385682B85E33F
:1011C0009FE00E94A30881E00C948E0690E080E0EE
:1011D000089580339CF08A3324F08F3524F08B37C8
:1011E00024F481E0089581344CF08B35D4F393EDF1
:1011F000980F81E09230B0F380E008958B32B9F718
:10120000F0CFFC01A081B1818C918D3021F03CF4B4
:1012100089508230A8F51196B183A083F3CF803234
:10122000D1F38F3209F0089511968C9111978A327B
:1012300019F08F32C1F008951196B183A083A08177
:10124000B181CD0101969183808311968C91119784
:101250008823B1F08A3299F712968C9112978F32C7
:1012600071F71396D9CFA081B181CD0101969183F9
:10127000808311968C91882319F08A30A1F7C2CF10
:1012800008951F93CF93DF93EC01162F0E9401095D
:10129000E881F9818081181308C03196F983E883C9
:1012A00081E0DF91CF911F91089580E0FACFFC019A
:1012B000A081B1818C918D3021F03CF48950823035
:1012C000A8F51196B183A083F3CF8032D1F38F328A
:1012D00009F0089511968C9111978A3219F08F3286
:1012E000C1F008951196B183A083A081B181CD0191
:1012F00001969183808311968C9111978823B1F088
:101300008A3299F712968C9112978F3271F7139651
:10131000D9CFA081B181CD010196918380831196AF
:101320008C91882319F08A30A1F7C2CF08951F93BA
:10133000CF93DF93EC01162F0E945709E881F981C2
:101340008081181308C03196F983E88381E0DF912A
:10135000CF911F91089580E0FACFEF92FF921F93F3
:10136000CF93DF93EC01EC80FD8002960E9401098F
:10137000EA81FB811081173211F0123259F5319652
:10138000FB83EA83EA81FB8180818823C9F19F0185
:101390002F5F3F4F3B832A83181791F18C3579F4E7
:1013A0008181AEEEB2E09C91992321F0891310C0A7
:1013B00011968C91882321F13296FB83EA83EC818C
:1013C000FD819F012F5F3F4F3D832C838083DACFC8
:1013D0001296E9CF812F0E94E908EC81FD819F01DF
:1013E0002F5F3F4F882361F08A819B8101969B8309
:1013F0008A833D832C831083EA81FB811081EACFAD
:10140000EC81FD81CF0101969D838C831082C70101
:10141000DF91CF911F91FF90EF900895CF92DF92CF
:10142000FF920F931F93CF93DF938C01DC011496EF
:10143000CD91DC91CA80DB808E819F81C80ED91E40
:10144000C80102960E945709D8011296ED91FC91AD
:10145000F080B7E2FB1619F082E2F81241C0319633
:10146000D8011396FC93EE931297D8011296ED9142
:10147000FC9113978081882309F454C09F012F5F4A
:101480003F4F13963C932E931297F81609F44AC0D7
:101490008C3591F48181AEEEB2E09C91992321F0DC
:1014A00089131CC011968C918823E1F13296D801E2
:1014B0001396FC93EE9312974E815F819A012F5FF2
:1014C0003F4F6C817D816217730778F2EA81FB815F
:1014D000E40FF51F3F832E838083C7CF1296DDCFA5
:1014E0008F2D0E94E9084E815F819A012F5F3F4F47
:1014F0006C817D818823B1F0F8018281938101960E
:10150000938382836217730738F0EA81FB81E40FCB
:10151000F51F3F832E83F082D8011296ED91FC9146
:10152000F080DECF2E813F81C90101964C815D8123
:101530004817590780F0EA81FB81E20FF31F9F8370
:101540008E831082C601DF91CF911F910F91FF9082
:10155000DF90CF900895D12CC12CF4CFAF92BF92E1
:10156000CF92DF92EF92FF920F931F93CF93DF936F
:101570005C017B01FC0114810581C12FD02FFB018F
:10158000C480D58060E380E190E10E947104BE01D7
:101590006C0D7D1D6E5F7F4F80E190E10E947104B4
:1015A00060E0CF3FD1050CF0602F80E190E10E9418
:1015B0007104612F80E190E10E94710410E000E06D
:1015C0000C171D076CF4B801C5010E94DC01FC0179
:1015D000608180E190E10E9471040F5F1F4FF0CFA6
:1015E000D0E0C0E0CC15DD0564F4BE01C7010E9467
:1015F000DC01FC01608180E190E10E947104219690
:10160000F1CFDF91CF911F910F91FF90EF90DF907D
:10161000CF90BF90AF900895EF92FF920F931F93DA
:10162000CF93DF937C01FC0114810581C12FD02F62
:1016300062E880E190E10E947104BE016B5F7F4F20
:1016400080E190E10E94710460E080E190E10E94FD
:1016500071046AE080E190E10E94710460E0CF3F94
:10166000D1050CF0602F80E190E10E947104612FA0
:1016700080E190E10E94710410E000E00C171D076A
:101680006CF4B801C7010E94DC01FC01608180E1BB
:1016900090E10E9471040F5F1F4FF0CF60E080E186
:1016A00090E1DF91CF911F910F91FF90EF900C94FB
:1016B000710460E180E190E10E9471046CE080E1DE
:1016C00090E10E94710460E080E190E10E94710469
:1016D00064E080E190E10E9471046DE480E190E1BA
:1016E0000E94710461E580E190E10E94710464E56B
:1016F00080E190E10E94710464E580E190E10E9444
:10170000710464E080E190E10E94710462E080E194
:1017100090E10E94710460E080E190E10E94710418
:101720006FE080E190E10E94710460E080E190E16F
:101730000E94710460E080E190E10C947104FC016E
:1017400086819781680F791F248135812617370795
:1017500038F022813381820F931F77836683089547
:1017600090E080E008958091380981110BC01092BB
:10177000350910923409109237091092360981E028
:101780008093380984E399E0089580912C098111B0
:101790000BC0109229091092280910922B0910925F
:1017A0002A0981E080932C0988E299E00895DB0101
:1017B000109749F0ED91FC9111970190F081E02D87
:1017C000BC01CD01199490E080E008950F931F9320
:1017D000CF93DF93EC018B016881798188E090E001
:1017E0000E94D70BDC01892B39F011961C921E92B6
:1017F00013961C921E921297EA81FB81309721F476
:10180000BB83AA8307C0FC01808191810097D9F72F
:10181000B183A08380E0109741F086E0F801129632
:1018200001900D928A95E1F781E0DF91CF911F91B0
:101830000F910895CF93DF93EC01688179818AE05D
:1018400090E00E94D70B009729F0FC0111821082D2
:1018500015821482EA81FB81309721F49B838A836D
:1018600008C0F9012081318121153105D1F791831B
:101870008083DF91CF910895CF93DF93EC01BC017A
:1018800084E090E00E94D70B009741F0FC01D183E7
:10189000C08313821282DF91CF910895DF91CF919F
:1018A0000C94B30BCF93DF93EC01BC0184E090E088
:1018B0000E94D70B009741F0FC01D183C0831382B3
:1018C0001282DF91CF910895DF91CF910C94C50BD7
:1018D0000F931F93CF938C01C62F0E94D2086C2FB9
:1018E0006460C8010E94D2086C2F6B7FC8010E94FF
:1018F000D20883EC90E00197F1F7CF911F910F91FF
:1019000008950F931F93CF93DF938C01D62FC42F8D
:10191000607F642B0E94680C80E1D89FB001112485
:101920006C2BC801DF91CF911F910F910C94680C23
:1019300040E061E086E49FE00E94810C8BE39FE140
:101940000197F1F70895CF93DF9300D000D01F9255
:101950001F92CDB7DEB798E0E0E2F2E0DE0111962B
:1019600001900D929A95E1F790914E0F961710F411
:101970006FEF690F262F30E0220F331F41E050E058
:101980004C0F5D1F240F351FF9016081680F6068DF
:1019900040E086E49FE028960FB6F894DEBF0FBEC5
:1019A000CDBFDF91CF910C94810C41E00E94810C5E
:1019B00081E090E008956F927F928F929F92AF9214
:1019C000BF92CF92DF92EF92FF920F931F93CF932C
:1019D000DF9300D000D0CDB7DEB78C01B62EA72E96
:1019E000742E690186E0E8E2F2E0DE0111960190D2
:1019F0000D928A95E1F7F12CE12C66E084E20E94D9
:101A00007E071092040B8093030B811112C061E0DA
:101A100070E080E090E00E941A048FEFE81AF80A64
:101A2000C114D10451F3CE14DF0438F78FEF9FEFC8
:101A300010C0F801828193810E94FB0580FFE7CFEF
:101A4000F801828193810E94FB05882339F18DEF93
:101A50009FEFF12CE12C98E0992E980E692DF0E281
:101A6000F91508F460E284E20E947E071092040BEC
:101A70008093030B811147C061E070E080E090E04B
:101A80000E941A048FEFE81AF80AC114D10431F346
:101A9000CE14DF0418F78FEF9FEF45C0F801828165
:101AA00093810E94FB058111D2CFF801828193813D
:101AB0000E94FB058F3F59F6F801828193810E94B5
:101AC000FB05682E81E08093130E84E28093350E2F
:101AD0001092140E1092360ECE0101967C014E012A
:101AE00097E0890E911CF70161917F01F8018281D5
:101AF00093810E940306E814F904A9F781E00E948B
:101B00008E06862DA6CFF801828193810E94FB0567
:101B100080FFB2CFF801828193810E94FB05882368
:101B2000B9F08DEF9FEF26960FB6F894DEBF0FBE8B
:101B3000CDBFDF91CF911F910F91FF90EF90DF907C
:101B4000CF90BF90AF909F908F907F906F900895AF
:101B5000F801828193810E94FB058111E2CFF80197
:101B6000828193810E94FB058F3FD9F6F801828123
:101B700093810E94FB05F82EF801828193810E94D7
:101B8000FB058F0D71F6F801E480DD24D394DE0CA3
:101B9000828193810E94FB05853D19F6F8018281BF
:101BA00093810E94FB05D812BCCFFA94FA948CEF73
:101BB0009FEF7F1408F4B7CFF6EDEF0E9B2CCB2CE4
:101BC000DA2CF801828193812C2D29192F1538F4F4
:101BD0000E94FB05F60181936F01E80EF2CF0E948F
:101BE000FB058E0D09F09DCFF801828193810E9443
:101BF000FB058F2D90E097CFFB0101900020E9F7C6
:101C00003197AF01461B570BDC01ED91FC9102802F
:101C1000F381E02D19946CE975E087E39EE00C9464
:101C2000FC0DCF93DF93BC0187E39EE00E94F60199
:101C3000EC010E940B0E8C0F9D1FDF91CF91089538
:101C40008F929F92AF92BF92EF92FF920F931F934A
:101C5000CF93DF93CDB7DEB7A1970FB6F894DEBF71
:101C60000FBECDBF7C01FA01CB0119A2223008F4CE
:101C70002AE08E010F5D1F4F822E912CB12CA12CDA
:101C8000BF01A50194010E94A83AF901CA016A3076
:101C90000CF5605DD8016E938D01232B242B252B31
:101CA00079F790E080E0109721F0BD01C7010E9414
:101CB000FC0DA1960FB6F894DEBF0FBECDBFDF912D
:101CC000CF911F910F91FF90EF90BF90AF909F9099
:101CD0008F900895695CDECFCF93DF93BC0187E3DB
:101CE0009EE00E94FC0DEC010E940B0E8C0F9D1FCC
:101CF000DF91CF9108952F923F924F925F926F9212
:101D00007F928F929F92AF92BF92CF92DF92EF928B
:101D1000FF921F93CF93DF93EC016A017B01722E38
:101D2000AB019601CB01B6010E948F3A69EF72E0D8
:101D3000811126C046015701E894B7F82FEF3FEF15
:101D40004FE75FE7C501B4010E948F3A81110CC0D3
:101D50002FEF3FEF4FE75FE7C501B4010E94343832
:101D60006DEF72E0181664F02FEF3FEF4FE75FE47E
:101D7000C701B6010E948A3A1816B4F461E073E014
:101D8000CE01DF91CF911F91FF90EF90DF90CF9028
:101D9000BF90AF909F908F907F906F905F904F908B
:101DA0003F902F900C94FC0D2FEF3FEF4FE75FEC2F
:101DB000C701B6010E94343887FDE0CF20E030E053
:101DC000A901C701B6010E943438312C212C87FFAC
:101DD00009C06DE2CE010E94EF011C01F7FAF094F8
:101DE000F7F8F09410E060E070E080E09FE3711697
:101DF00041F020E030E040E251E40E94E2391F5F10
:101E0000F6CFA70196010E9476392B013C010E9472
:101E10005B3A4B015C012AE0BC01A401CE010E94A7
:101E2000200E7C01E20CF31C1123C1F1C501B401A9
:101E30000E9439389B01AC01C301B2010E9475397F
:101E40004B015C016EE2CE010E94EF01E80EF91E2B
:101E5000115020F120E030E040E251E4C501B4012E
:101E60000E949A382B013C010E945B3A4B01B12C35
:101E7000A12C2AE0B501A401CE010E94200EE80E9B
:101E8000F91EC501B4010E9439389B01AC01C301A0
:101E9000B2010E9475394B015C01DACFC701DF91B5
:101EA000CF911F91FF90EF90DF90CF90BF90AF90B8
:101EB0009F908F907F906F905F904F903F902F906A
:101EC00008956115710511F00C94FC0D90E080E00F
:101ED0000895CF93DF930E94980C1092E60D65E071
:101EE00073E088EE9CE00E947536EC01892BA1F02E
:101EF0006091E60D80E00E94A30CBE0186E49FE0A5
:101F00000E94610F8091E60D8F5F8093E60D65E082
:101F100073E090E080E0E7CFDF91CF9108950E94D9
:101F2000980C60E080E00E94A30C67E073E086E418
:101F30009FE00E94610F61E080E00E94A30C64E1D9
:101F400073E086E49FE00C94610F0E94980C60E0BF
:101F500080E00E94A30C65E273E086E49FE00E94AB
:101F6000610F61E080E00E94A30C66E373E086E409
:101F70009FE00C94610F0E94980C60E080E00E944A
:101F8000A30C6DE373E086E49FE00C94610F0E9464
:101F9000980C60E080E00E94A30C6EE473E086E49D
:101FA0009FE00E94610F61E080E00E94A30C61E667
:101FB00073E086E49FE00C94610F0E94980C60E04F
:101FC00080E00E94A30C68E673E086E49FE00E9434
:101FD000610F61E080E00E94A30C6AE773E086E491
:101FE0009FE00C94610F0E94980C60E080E00E94DA
:101FF000A30C6AE873E086E49FE00C94610F0E94F2
:10200000980C60E080E00E94A30C67E973E086E42E
:102010009FE00C94610FFC0180819181009711F089
:102020000C944E3660E070E0CB0108950F931F933F
:10203000CF93DF938C01EB01FC01808191810097AC
:10204000E1F06881798161157105A9F042815381C0
:102050002C813D814217530770F00E94403D8C81D6
:102060009D81F801958384831D821C82DF91CF912D
:102070001F910F9108950E94B73B88819981F801C3
:10208000918380838A819B81938382838C819D81CC
:1020900095838483198218821B821A82E5CFCF939D
:1020A000DF93EC0188819981009711F00E94B73B82
:1020B000198218821D821C821B821A82DF91CF91A5
:1020C0000895FC0180819181009711F00C94B73B39
:1020D00008950F931F93CF93DF93EC01888199812B
:1020E000009759F02A813B812617370730F081E0AD
:1020F000DF91CF911F910F9108958B016F5F7F4FFB
:102100000E94403C009759F0998388831B830A837F
:102110002C813D81232B59F7FC011082E8CF80E010
:10212000E7CFEF92FF920F931F93CF93DF93611549
:10213000710541F480E0DF91CF911F910F91FF90E5
:10214000EF90089541155105B1F07B01EC010C8130
:102150001D81040F151FB8010E946910882351F3D7
:10216000288139818C819D81B701820F931F0E9444
:10217000403D1D830C8381E0DECFCF93DF93EC01E4
:10218000FB0101900020E9F73197AF01461B570B87
:102190000E949110811103C0CE010E944F10CE0108
:1021A000DF91CF910895CF93DF93EC01FB01448140
:1021B0005581608171810E949110811103C0CE010F
:1021C0000E944F10CE01DF91CF910895CF93DF93FE
:1021D0001F921F92CDB7DEB769831A8241E050E0AB
:1021E000BE016F5F7F4F0E9491100F900F90DF91A3
:1021F000CF910895CF93DF93EC01E881F98180813D
:1022000091810E94E6108A819B8101969B838A833B
:10221000DF91CF910895EF92FF920F931F93CF9389
:10222000DF93EC01E880F980D7018D919C91FC014E
:10223000048115816115710551F0FB0101900020A9
:10224000E9F73197AF01461B570B0E949110D70158
:10225000ED91FC91848195812A813B81820F931FAE
:10226000801B910B9B838A83DF91CF911F910F91EC
:10227000FF90EF9008950F931F93CF93DF93CDB707
:10228000DEB766970FB6F894DEBF0FBECDBF9C01D8
:10229000CB011E8AFE0176960AE010E0B8010E948A
:1022A000943A805D8293CB010097C1F7BF01C901C9
:1022B0000E940B1166960FB6F894DEBF0FBECDBF1D
:1022C000DF91CF911F910F910895FF920F931F936C
:1022D000CF93DF936115710549F46BEA73E0DF91E9
:1022E000CF911F910F91FF900C940B118B01EC017A
:1022F00062E2CE010E94FA10F80161918F0166231B
:1023000051F0EAEEF2E0F080FF2099F38181681746
:1023100059F03296F8CF62E2CE01DF91CF911F9152
:102320000F91FF900C94FA106CE5CE010E94FA1008
:102330006F2DDFCF0F931F93CF93DF938C01EB01B2
:102340006BE7CE010E94FA10F8010281138101159A
:102350001105D1F0F80162817381CE010E946511EF
:102360006AE3CE010E94FA10BE01C80104960E94E1
:10237000CC11F801008111810115110529F06CE2E1
:10238000CE010E94FA10E3CF6DE7CE01DF91CF912D
:102390001F910F910C94FA102F923F924F925F92DF
:1023A0006F927F928F929F92AF92BF92CF92DF9265
:1023B000EF92FF920F931F93CF93DF93CDB7DEB7CA
:1023C0006C970FB6F894DEBF0FBECDBFDC01ED9168
:1023D000FC9111973197E830F10508F0D7C11B0146
:1023E0008C018827E950FE4E8F4F0C94E93A1A145D
:1023F0001314441425142114EA130D14FF11FD01C4
:102400004280538064807580A3019201C301B201B0
:102410000E9434386BEB73E081110FC220E030E092
:10242000A901C301B2010E94343887FF08C06DE2E0
:10243000C1010E94FA1077FA709477F8709420E046
:1024400030E0A901C301B2010E943438882389F029
:10245000A3019201C301B2010E9476399B01AC0134
:10246000C301B2010E9434386FEB73E0882309F492
:10247000E4C120E836E948E15BE4C301B2010E940F
:102480008A3A87FD7FC0A6E9EA2EA2E0FA2EB6E6D8
:10249000CB2EB2E0DB2E1EE7A12E12E0B12E00E221
:1024A00010E0188E1F8AD7015E914E913E912E91B9
:1024B0007D01C301B2010E948A3A87FD11C0F60175
:1024C0002489358946895789C301B2010E949A3807
:1024D0002B013C018F89988D800F911F988F8F8BD6
:1024E0001595079594E0C91AD108AE14BF04D9F622
:1024F00099249A9420E030E0A901C301B2010E941E
:102500008A3A18160CF045C02CEA35EC47E257E33E
:10251000C301B2010E9434381816DCF1A92DB4E0D1
:10252000AB0250011124D12CC12CEFEF9E1689F182
:102530007501EC0CFD1CF701E25BFD4FA30192015C
:1025400060817181828193810E948A3A18169CF47D
:10255000F701E258FD4F2081318142815381C3014F
:10256000B2010E949A382B013C018F89988D801B03
:10257000910B988F8F8B159507959A9494E0C91AB3
:10258000D108D3CF00E210E0E5E09E2E188E1F8A1E
:10259000B1CFC301B2010E945B3A6B017C014B01D8
:1025A0005C0106E080E492E4AFE0B0E0898F9A8FAE
:1025B000AB8FBC8F102F01509AE089169104A104B3
:1025C000B104C8F0698D7A8D8B8D9C8D2AE030E046
:1025D00040E050E00E94A83A298F3A8F4B8F5C8FE1
:1025E000C501B4012AE030E040E050E00E94A83A82
:1025F00049015A01DFCFC701B6010E9439389B015A
:10260000AC01C301B2010E9475394B015C01698DB7
:102610007A8D8B8D9C8D0E9439389B01AC01C50150
:10262000B4010E949A384B015C010E945B3A2B0175
:102630003C010E9439389B01AC01C501B4010E94E4
:1026400075399B01AC010E9476390E945B3A460EB7
:10265000571E681E791E898D9A8DAB8DBC8D4816CC
:1026600059066A067B06D8F09FEFC91AD90AE90A0B
:10267000F90AAF89B88DAB2B39F1BAE0CB16D1048A
:10268000E104F10408F1EF89F88D3196F88FEF8BB2
:10269000412C512C3201C12CD12C7601C3945AE02B
:1026A000852E912CA12CB12CC301B201A50194015E
:1026B0000E94A83A672B682B692B51F4111644F439
:1026C00029013A011150F0CF412C512C3201E7CFB2
:1026D0001E8ACE0146969A8F898F4AE0842E912CCD
:1026E000A12CB12CC701B601A50194010E94A83A02
:1026F000605DA98DBA8D6E93BA8FA98F69017A0139
:10270000C114D104E104F10469F7BD01C1010E94C3
:102710000B11112351F1188A6E01B0E1CB0ED11CBF
:10272000012F76013AE0832E912CA12CB12C01507F
:1027300068F0C301B201A50194010E94A83A605D4E
:10274000F60162936F0129013A01F1CF612F70E028
:10275000F701E61BF70B31978EE280836095709549
:102760006E0D7F1DC1010E940B118F89988D97FFFF
:1027700026C068EC73E0C1010E940B116F89788D4F
:10278000719561957109C1010E943B116C960FB65C
:10279000F894DEBF0FBECDBFDF91CF911F910F9197
:1027A000FF90EF90DF90CF90BF90AF909F908F9071
:1027B0007F906F905F904F903F902F900895AF89DA
:1027C000B88DAB2B19F365E6C1010E94FA106F8931
:1027D000788DD9CFFD01028113816BE5C1010E9483
:1027E000FA10D80112960D911C910115110581F076
:1027F000B101C80102960E94CC11F801008111813B
:102800000115110529F06CE2C1010E94FA10EDCF0B
:102810006DE5C1010E94FA10B9CF12968D919C917D
:102820000E949A11B3CFFD0162817381C1010E94A0
:102830006511ACCF12966D917C91C1010E940B1174
:10284000A5CF6DE2C1010E94FA10F8016281738187
:10285000848195811E8A8E010A5E1F4F2AE0C22E56
:10286000D12CE12CF12CA70196010E94A83A605DC1
:10287000D8016E938D01B901CA01611571058105F9
:10288000910589F7BD01D9CFFD0182819381A48192
:10289000B58160EB73E0892B8A2B8B2B71F665EB8E
:1028A00073E0CBCFEF92FF920F931F93CF93DF9301
:1028B000EC017B018A01BA010E94691081110BC0F1
:1028C000CE010E944F10CE01DF91CF911F910F9149
:1028D000FF90EF9008951D830C83B7018881998143
:1028E0000E94403DF0CFFB0101900020E9F73197B5
:1028F000AF01461B570B0C945214CF93DF931F92DA
:102900001F92CDB7DEB7FC011182108213821282B2
:102910001582148269831A82BE016F5F7F4F0E9405
:1029200073140F900F90DF91CF910895CF93DF93A1
:10293000EC01FB018617970749F0608171816115F1
:10294000710541F0448155810E945214CE01DF91FE
:10295000CF9108950E944F10F9CFFC01118210828F
:1029600013821282158214820C949614FC01118237
:1029700010821382128215821482FB0101900020C2
:10298000E9F73197AF01461B570B0C945214CF93C4
:10299000DF9300D000D0CDB7DEB7BC018EE69FE05C
:1029A0000E9496146BEC73E0CE0101960E94B6145F
:1029B0006EE67FE0CE0101960E94D310BC0188E64E
:1029C0009FE00E949614CE0101960E946110269607
:1029D0000FB6F894DEBF0FBECDBFDF91CF91089543
:1029E000CF93DF9300D000D0CDB7DEB7BC0184E039
:1029F00090E10E94961465ED73E0CE0101960E946D
:102A0000B61464E070E1CE0101960E94D31068EE26
:102A100073E00E94BD10BC018CEE9FE00E949614F2
:102A2000CE0101960E9461106CEE7FE08EE99FE07E
:102A30000E94961426960FB6F894DEBF0FBECDBF47
:102A4000DF91CF9108955F926F927F928F929F92C4
:102A5000AF92BF92CF92DF92EF92FF920F931F93AC
:102A6000CF93DF93CDB7DEB72C970FB6F894DEBFC8
:102A70000FBECDBF7C016B01842EB22E532EFB0105
:102A80008081F70184838281938121E02093130E5A
:102A900024E22093350E1092140E1092360E60E050
:102AA0000E94030660E0F701828193810E94030681
:102AB0006FEFF701828193810E940306182D100F9A
:102AC00061E0610FF701828193810E940306612F0B
:102AD0006095F701828193810E94030664EDF701FE
:102AE000828193810E9403068C0C9D2C911C14ED15
:102AF000F701828193818C149D04C9F4CB2CD52CD1
:102B00005601A00EB11CF70182819381AC14BD0463
:102B100099F14601F60160810E940306882371F055
:102B2000FFEFCF1ADF0AF4018081180FECCF3601D6
:102B3000F60160810E940306811117C08DEF2C966B
:102B40000FB6F894DEBF0FBECDBFDF91CF911F91BE
:102B50000F91FF90EF90DF90CF90BF90AF909F903C
:102B60008F907F906F905F900895FFEFCF1ADF0AEC
:102B7000F3018081180FBCCF612F61950E9403067D
:102B800060E0F701828193810E94030681E00E9448
:102B90008E0686E0EEE2F2E0DE01179601900D92DD
:102BA0008A95E1F70BE010E067E084E20E947E077F
:102BB0001092040B8093030B81110BC061E070E055
:102BC00080E090E00E941A040150110969F78EEF2D
:102BD000B6CFF701828193810E94FB0580FFEECF83
:102BE0008E010F5F1F4F5E01F7E0AF0EB11C680151
:102BF000F701828193810E94FB05F80181938F0187
:102C0000EA15FB05A9F746E050E0BF01C6010E94A6
:102C1000213D21E0892B09F420E0822F81958FCF7F
:102C200085ED8093BC0080910F0E9091100EA091C5
:102C3000110EB091120E0796A11DB11D23E0B6959D
:102C4000A795979587952A95D1F72091BC0024FDEB
:102C500003C010920D0E089540910F0E5091100E6A
:102C60006091110E7091120E452B462B472B69F384
:102C70000097A105B10541F025E32A95F1F7000081
:102C80000197A109B109E1CF80910E0E0C946D0658
:102C90000F931F93CF93DF938B01FC01C281D381EC
:102CA000209759F06A817B810115110519F0611592
:102CB000710549F46017710759F4CE01DF91CF9186
:102CC0001F910F910895C8010E94373D892BA9F3E8
:102CD0000990D881C02DE4CFEF92FF920F931F93FC
:102CE000CF93DF938C0162EF73E00E944816EC01F2
:102CF000892B91F4C8010E941A0CEC01892B41F434
:102D000080E0DF91CF911F910F91FF90EF90089598
:102D100082EF93E09B838A8380916E0F90916F0F77
:102D2000892B19F1D8018D919C910091720F10910E
:102D3000730F0F5F1F4FDC01ED91FC910190F0814B
:102D4000E02DB80119957C010097D1F260916E0FCA
:102D500070916F0FA8010E942E3D82E090E09D834C
:102D60008C83FF82EE8281E0CCCF82E090E09D8375
:102D70008C831F821E82F7CFCF93DF93CDB7DEB750
:102D8000AA970FB6F894DEBF0FBECDBF22E63FE094
:102D90003AA729A79E01275D3F4F3EA32DA318A662
:102DA0001FA2FC0162817381808191810E9448167B
:102DB000FC0190E080E0309799F096E03496DE01D7
:102DC000119601900D929A95E1F786E0FE013196F9
:102DD000DE01179601900D928A95E1F789819A811B
:102DE00098878F8386E0FE013796DE011D9601905D
:102DF0000D928A95E1F786E0FE013D96DE0153963D
:102E000001900D928A95E1F786E0FE017396DE014E
:102E1000599601900D928A95E1F786E0FE01799628
:102E2000DE015F9601900D928A95E1F7BE016B5D20
:102E30007F4FCE014F960E94CC118FA198A5AA96E4
:102E40000FB6F894DEBF0FBECDBFDF91CF910895CE
:102E5000CF93DF93EB01FC016281738180819181CB
:102E60000E944816FC01892B09F452C08481958187
:102E70008330910548F5019708F44AC00680F78130
:102E8000E02D309709F444C0808161E070E0843720
:102E900049F18B32B9F18D32B1F5319691E070E0A4
:102EA00060E04AE0819120ED280F2A3070F5469FBE
:102EB0009001479F300D1124682F880F770B6053C6
:102EC0007109620F731FEECF8530910548F00597A9
:102ED00099F066817781808591850E94543A02C07D
:102EE0006681778181E0288139812617370709F0CB
:102EF00080E0DF91CF91089566817781719561952A
:102F00007109F0CF319690E0CACF9111F7CFEACF97
:102F100070E060E0E7CFEF92FF920F931F93CF93A3
:102F2000DF938C01EB017A010E944816009741F46F
:102F3000C8010E941A0C0097C9F0FC01D383C28318
:102F4000F701408151816281738124E030E0FC010E
:102F500035832483468357836087718781E0DF91BF
:102F6000CF911F910F91FF90EF90089580E0F7CFE0
:102F7000EF92FF920F931F93CF93DF938C01EB019E
:102F80007A010E944816009741F4C8010E941A0C69
:102F9000009799F0FC01D383C28326E0F701DC019E
:102FA000149601900D922A95E1F781E0DF91CF917F
:102FB0001F910F91FF90EF90089580E0F7CFAF92AF
:102FC000BF92CF92DF92EF92FF920F931F93CF9316
:102FD000DF9300D000D0CDB7DEB78C01FC01868135
:102FE000811104C00E94B30B6C0144C081508683E0
:102FF000819191917F010E943C0C6C016BE7C701AC
:103000000E944109882371F36DE7C7010E944109BD
:1030100081112CC0C8010E94AD095C01892B11F3FC
:103020006AE3C7010E9441098823E1F21A821982EA
:10303000BE016F5F7F4FC8010E944C18882391F238
:10304000AE014F5F5F4FB501C6010E94B8178823DC
:1030500049F26DE7C7010E944109811107C06CE286
:10306000C7010E9441098111D5CFBCCFF8018681EB
:103070008F5F8683C60126960FB6F894DEBF0FBE1B
:10308000CDBFDF91CF911F910F91FF90EF90DF9017
:10309000CF90BF90AF900895AF92BF92CF92DF9242
:1030A000EF92FF920F931F93CF93DF9300D000D046
:1030B000CDB7DEB78C016B015C0182E0A80EB11CBC
:1030C000C5010E940109D8011296ED91FC91139758
:1030D00080818B3501F18B3709F47FC0FF24F39495
:1030E000873219F0823209F0F12CC8010E94AD0933
:1030F000009709F455C021E030E0FF2009F477C0C3
:1031000022E030E0D60111963C932E9313969C93C7
:103110008E93129746C0F8018681811104C00E94E7
:10312000C50B7C0138C0815016968C9316978D91F3
:103130009C910E94520C7C016BE5C5010E944109E3
:10314000882369F36DE5C5010E94410981111FC003
:103150001A821982BE016F5F7F4FC8010E944C180E
:103160008823E9F2BE016F5F7F4FC7010E94E60B23
:103170008823A9F26DE5C5010E944109811107C0AC
:103180006CE2C5010E9441098111E2CFC8CFF8016C
:1031900086818F5F8683D7018D919C91892B99F4CD
:1031A000F12C8F2D26960FB6F894DEBF0FBECDBF43
:1031B000DF91CF911F910F91FF90EF90DF90CF9013
:1031C000BF90AF90089586E090E0F60191838083F0
:1031D000F382E282FF24F394E4CFC8010E94DF1758
:1031E000DC012D913C91232BD9F227E030E0F60150
:1031F0003183208393838283EDCFAF92BF92CF92AE
:10320000DF92EF92FF920F931F93CF93DF9300D043
:1032100000D0CDB7DEB78C01FC018681811104C0DE
:103220000E94B30B6C0144C08150868381919191BF
:103230007F010E943C0C6C016BE7C7010E9497095B
:10324000882371F36DE7C7010E94970981112CC093
:10325000C8010E940E0A5C01892B11F36AE3C701C1
:103260000E9497098823E1F21A821982BE016F5FDA
:103270007F4FC8010E946A19882391F2AE014F5F07
:103280005F4FB501C6010E94B817882349F26DE768
:10329000C7010E949709811107C06CE2C7010E9413
:1032A00097098111D5CFBCCFF80186818F5F8683C6
:1032B000C60126960FB6F894DEBF0FBECDBFDF91D4
:1032C000CF911F910F91FF90EF90DF90CF90BF9023
:1032D000AF900895AF92BF92CF92DF92EF92FF929C
:1032E0000F931F93CF93DF9300D000D0CDB7DEB7FD
:1032F0008C016B015C0182E0A80EB11CC5010E942B
:103300005709D8011296ED91FC91139780818B3566
:1033100001F18B3709F47FC0FF24F394873219F051
:10332000823209F0F12CC8010E940E0A009709F4BC
:1033300055C021E030E0FF2009F477C022E030E002
:10334000D60111963C932E9313969C938E931297CD
:1033500046C0F8018681811104C00E94C50B7C0122
:1033600038C0815016968C9316978D919C910E942F
:10337000520C7C016BE5C5010E949709882369F313
:103380006DE5C5010E94970981111FC01A8219823B
:10339000BE016F5F7F4FC8010E946A198823E9F25E
:1033A000BE016F5F7F4FC7010E94E60B8823A9F221
:1033B0006DE5C5010E949709811107C06CE2C50146
:1033C0000E9497098111E2CFC8CFF80186818F5FF3
:1033D0008683D7018D919C91892B99F4F12C8F2DA7
:1033E00026960FB6F894DEBF0FBECDBFDF91CF910A
:1033F0001F910F91FF90EF90DF90CF90BF90AF9013
:10340000089586E090E0F60191838083F382E28262
:10341000FF24F394E4CFC8010E94FD18DC012D9134
:103420003C91232BD9F227E030E0F6013183208351
:1034300093838283EDCF3F924F925F926F927F9200
:103440008F929F92AF92BF92CF92DF92EF92FF92B4
:103450000F931F93CF93DF93CDB7DEB7C650D24003
:103460000FB6F894DEBF0FBECDBF3C016A017B01F1
:1034700068EF72E0CE018F5F9D4F0E94B614A8EEF8
:10348000B3E0A70196010E945B396B017C011982B0
:103490000E944C044B015C01F30184819581892BCE
:1034A00009F4FDC0008111816BEF73E0C8010E9437
:1034B000373D892B09F50E944C04681979098A095E
:1034C0009B096C157D058E059F0508F034C180E1D0
:1034D00090E10E94CD04181619066CF780E190E186
:1034E0000E94E5048E3339F76AEF70E080E090E0E7
:1034F0000E941A0411E0F0C069E478E0C8010E945B
:10350000373D892B41F06DEF73E0C8010E94373DD4
:10351000892B09F0C4C00E944C04681979098A09F2
:103520009B096C157D058E059F0508F004C180E19F
:1035300090E10E94CD04181619066CF780E190E125
:103540000E94E504811109C08091430990914409CA
:103550000196909344098093430980914309909187
:1035600044090297C1F66AEF70E080E090E00E94A3
:103570001A041092440910924309BCCF4424439486
:103580000E944C04681979098A099B096C157D050C
:103590008E059F0508F09EC080E190E10E94CD0459
:1035A000181619066CF780E190E10E94E504582E88
:1035B00080910F0B882329F0652D87E39EE00E9400
:1035C000EF018091070B882319F1FCE25F1204C020
:1035D000109242093092410980914209882329F0D2
:1035E000652D86EE9FE00E94E61080E2581202C030
:1035F0003092420980914109882351F086EE9FE084
:103600000E940B107093060B6093050B1092070B32
:10361000EDE05E1619F0FAE05F124AC0E1E0F0E07A
:10362000EC0FFD1FE00FF11F10828AE05812A8CFA7
:103630008981882309F4A2CFBE016F5F7F4FCE013D
:103640008F5F9D4F0E947314FE013196CE018F5FF4
:103650009D4F11928E179F07E1F7CB5FDD4F2881B9
:103660003981C550D240F3018481958128173907EB
:1036700009F061C0CF5FDD4F88819981C150D24090
:1036800060817181009709F446C06115710569F484
:10369000232B09F42FCFFC01808190E049C0412CFD
:1036A00010E000E0332433946BCF0E94373D40C0DC
:1036B000E1E0F0E0EC0FFD1FE00FF11F5082B801D8
:1036C000C3010E94DC01FC018081851159CF0F5F8D
:1036D0001F4F56CF442079F1CE018F5F9D4F0E943E
:1036E0006110812FCA5FDD4F0FB6F894DEBF0FBEA9
:1036F000CDBFDF91CF911F910F91FF90EF90DF90A1
:10370000CF90BF90AF909F908F907F906F905F9081
:103710004F903F9008956115710509F4EBCE232B6E
:1037200009F4E8CEFB01808190E0919581959109A3
:10373000892B09F4DFCE10E0CFCFAF92BF92CF92AA
:10374000DF92EF92FF920F931F93CF93DF93CDB74A
:10375000DEB72C970FB6F894DEBF0FBECDBF68EF73
:1037600072E0CE0107960E94B6140E944C046B01D1
:103770007C0180910F0B882331F06FEF73E087E3BA
:103780009EE00E94610F6FEF73E080E190E10E9484
:10379000610F0E944C046C197D098E099F096839DC
:1037A0007A438105910508F42FC161E474E0CE01EC
:1037B00001960E94B61445E050E060E070E0CE0152
:1037C00001960E941B1ACE0101960E946110609121
:1037D0004509CE0101960E947D14BE016F5F7F4FA7
:1037E000CE0107960E941610CE0101960E9461102C
:1037F00060914609CE0107960E94E610CE01079619
:103800000E940B10162F60914809CE0101960E946C
:103810007D14BE016F5F7F4FCE0107960E94161088
:10382000CE0101960E94611060914909CE01079670
:103830000E94E610CE0107960E940B10062F6091A1
:103840004B09CE0101960E947D14BE016F5F7F4F30
:10385000CE0107960E941610CE0101960E946110BB
:1038600060914C09CE0107960E94E610CE010796A2
:103870000E940B10B62E60914E09CE0101960E9457
:103880007D14BE016F5F7F4FCE0107960E94161018
:10389000CE0101960E94611060914F09CE010796FA
:1038A0000E94E610CE0107960E940B10F62E609142
:1038B0005109CE0101960E947D14BE016F5F7F4FBA
:1038C000CE0107960E941610CE0101960E9461104B
:1038D00060915209CE0107960E94E610CE0107962C
:1038E0000E940B10A62E60915409CE0101960E94F1
:1038F0007D14BE016F5F7F4FCE0107960E941610A8
:10390000CE0101960E94611060915509CE01079683
:103910000E94E610CE0107960E940B10462F809160
:103920004710E12F012E000CFF0BE80FF11D87FD62
:10393000FA95AF2DFF0CBB0B20E13EE00E94F83A58
:103940006B017C01AA2DAA0CBB0B2CE330E00E947A
:10395000F83AC60ED71EE81EF91E042E000C550BB1
:10396000660B770BC40ED51EE61EF71EDF0120E89E
:1039700033E341EE51E00E94FF3AC60ED71EE81E27
:10398000F91EA02FAA0FBB0BA35DBF4E0D90BC91DB
:10399000A02DAB0DB11DB7FCBA95CF01029697FDD6
:1039A00003969595879595958795A80FB91F1197BB
:1039B00020E831E541E050E00E94FF3AC60ED71EF4
:1039C000E81EF91E137049F403303CF480E8C81A6D
:1039D00081E5D80A81E0E80AF108CE0107960E9445
:1039E0006110C701B6012C960FB6F894DEBF0FBE6A
:1039F000CDBFDF91CF911F910F91FF90EF90DF909E
:103A0000CF90BF90AF90089580E190E10E94CD04E7
:103A1000181619060CF0BDCE80E190E10E94E50475
:103A20008093080B90910F0B992329F0682F87E35F
:103A30009EE00E94EF012091080B223229F4809130
:103A4000090B8F5F8093090B8091090B8130D9F4AA
:103A5000223209F49ECE80910A0B90910B0BA0911B
:103A60000C0BB0910D0BFC01EB5BF64F2083019624
:103A7000A11DB11D80930A0B90930B0BA0930C0B0F
:103A8000B0930D0B86CE823009F083CEE0910A0B05
:103A9000F0910B0BEB5BF64F108210920A0B109219
:103AA0000B0B10920C0B10920D0B1092090B8091C6
:103AB0000F0B882309F479CE0E940B0E6AE074E0A4
:103AC00087E39EE00E94610F85E499E00E946C0EFE
:103AD0006CCECF92DF92EF92FF921F93CF93DF9342
:103AE00000D000D0CDB7DEB70E944C046B017C0142
:103AF0000E944C046C197D098E099F0968397A432C
:103B000081059105D0F568EE73E080E090E00E94B9
:103B10001A0480910F0B882331F062EC7FE087E379
:103B20009EE00E94F60162EC7FE080E190E10E945D
:103B3000F60161E474E0CE0101960E94B61445E0FE
:103B400050E060E070E0CE0101960E941B1A182F31
:103B5000CE0101960E946110112351F2812F269609
:103B60000FB6F894DEBF0FBECDBFDF91CF911F918E
:103B7000FF90EF90DF90CF90089510E0EFCFCF92BD
:103B8000DF92EF92FF921F93CF93DF9300D000D08C
:103B9000CDB7DEB70E944C046B017C010E944C043F
:103BA0006C197D098E099F0968397A438105910551
:103BB00008F04FC068EE73E080E090E00E941A04C5
:103BC00080910F0B882331F06CEB7FE087E39EE060
:103BD0000E94F6016CEB7FE080E190E10E94F6012B
:103BE00065E174E0CE0101960E94B61445E050E014
:103BF00060E070E0CE0101960E941B1A182FCE01E2
:103C000001960E946110112349F261E474E0CE0133
:103C100001960E94B61445E050E060E070E0CE01ED
:103C200001960E941B1A182FCE0101960E94611066
:103C3000112359F3812F26960FB6F894DEBF0FBEDD
:103C4000CDBFDF91CF911F91FF90EF90DF90CF908C
:103C5000089510E0EFCF2F923F924F925F926F92B4
:103C60007F928F929F92AF92BF92CF92DF92EF920C
:103C7000FF920F931F93CF93DF93CDB7DEB7CB5156
:103C8000D2400FB6F894DEBF0FBECDBFCC5EDD4F85
:103C9000688379838A839B83C451D240C85EDD4F99
:103CA000288339834A835B83C851D240AE014C5E7E
:103CB0005D4F6FE174E080915A0F90915B0F0E940D
:103CC0008B17AE01485E5D4F63E375E080915A0F3C
:103CD00090915B0F0E948B1780915A0F90915B0F10
:103CE0000E946C1680915A0F90915B0F7E0127EF16
:103CF000E21A2DEFF20A2CE53FE0F7013183208331
:103D0000FA82E9821C821B828E010F5F1F4FB8016D
:103D10000E949A1180910F0B882341F083E294E076
:103D20000E946C0E8CE59FE00E94110E80910F0B9B
:103D3000882331F06CE87FE087E39EE00E94F60183
:103D40006CE87FE080E190E10E94F60161E474E0BC
:103D5000C8010E94B61445E050E060E070E0C80180
:103D60000E941B1AD82EC8010E946110DD2009F4A0
:103D700007C180910F0B882331F06EE97FE087E364
:103D80009EE00E94F6016EE97FE080E190E10E94F2
:103D9000F60161E474E0C8010E94B6144AE050E004
:103DA00060E070E0C8010E941B1AD82EC8010E9472
:103DB000611080910F0BDD2009F404C161E374E010
:103DC000C8010E94B6144AE050E060E070E0C8010B
:103DD0000E941B1AD82EC8010E94611080910F0BFF
:103DE000DD2009F4EFC0882331F064EA7FE087E347
:103DF0009EE00E94F60164EA7FE080E190E10E948B
:103E0000F6016BEF73E0C8010E94B6144AE050E07F
:103E100060E070E0C8010E941B1AD82EC8010E9401
:103E20006110DD2009F4ACC062E370E080E090E056
:103E30000E941A040E94590B68E67FE0C8010E94A4
:103E4000AD14C8010E940C0BC8010E9461106CE502
:103E50007FE0C7010E94AD146AE77FE0C8010E94BD
:103E6000AD14B701C8010E94AE0AC8010E946110DA
:103E7000C7010E9461106AE180E190E10E94710433
:103E80006CE374E0C8010E94B6144AE050E060E0C0
:103E900070E0C8010E941B1AD82EC8010E94611050
:103EA000DD2009F46DC064E372E08CE59FE00E94C0
:103EB00073140E944C042B013C0110920A0B1092C7
:103EC0000B0B10920C0B10920D0B1092090B25E4AA
:103ED000222E29E0322E3CE6832E34E0932ECC2491
:103EE000C39480914009811152C00E944C0464190E
:103EF00075098609970960327E448105910508F0AD
:103F000000C280E190E10E94CD04181619060CF061
:103F1000F6C180E190E10E94E5048093080B909146
:103F20000F0B992329F0682F87E39EE00E94EF0191
:103F30002091080B2B3709F07AC0C092090BD09062
:103F4000090B91E0D9127AC080EE820F8F3548F6C6
:103F500080910A0B90910B0BA0910C0BB0910D0B63
:103F6000FC01EB5BF64F20830196A11DB11D8093F0
:103F70000A0B90930B0BA0930C0BB0930D0BB1CFCE
:103F800064E372E08CE59FE00E947314D12C8D2DC8
:103F9000C55EDD4F0FB6F894DEBF0FBECDBFDF911B
:103FA000CF911F910F91FF90EF90DF90CF90BF9036
:103FB000AF909F908F907F906F905F904F903F90C9
:103FC0002F900895882331F068EC7FE087E39EE02E
:103FD0000E94F60168EC7FE080E190E10E94F6012A
:103FE00064E474E0C8010E94B61445E050E060E06B
:103FF00070E0C8010E941B1AF82EC8010E946110CF
:10400000FF2009F4BDCF0E94BF1D882349F064E35F
:1040100072E08CE59FE00E94731494E0D92EB7CF34
:104020000E94691D882399F30E94BF1DF0CF2D3790
:1040300009F085CF82E08093090B81CFE2E0DE12A8
:1040400050CF80910A0B90910B0BA0910C0BB0916B
:104050000D0BFC01EB5BF64F20830196A11DB11DFA
:104060008B5B964FFC01108210920A0B10920B0B87
:1040700010920C0B10920D0B1092090B80910F0BEC
:10408000882361F00E940B0E6CE474E087E39EE0ED
:104090000E94610F85E499E00E946C0E6AEA7FE05D
:1040A00080E190E10E94F60163E674E0C8010E949D
:1040B000B6144AE050E060E070E0C8010E941B1AAC
:1040C000C8010E94611089E090E08C0F9D1F9C83C5
:1040D0008B83E0E0F2E0FE83ED8318861F8288EE9A
:1040E00092E09A838983F7011183008333822282CD
:1040F000358224822AE02683C7010E94DF175C01F3
:10410000F701918380839382828282E090E0CE5E89
:10411000DD4F99838883C251D240BE016E5E7D4FD0
:10412000C7010E942817882349F164E372E082E600
:104130009FE00E947314F701B182A08287E794E0A8
:1041400093838283C7010E94BC1662E67FE08AE007
:1041500090E10E94961480910F0B882341F08AE031
:1041600090E10E94110E82E69FE00E94110E64E32E
:1041700072E082E69FE00E94731409CFF701B182DA
:10418000A0829382828281E090E0C05FDD4F9983BC
:104190008883C051D240BE01605F7D4FC7010E943D
:1041A0002817882309F4A8C064E372E082E69FE040
:1041B0000E94731480910F0B882331F06FE774E035
:1041C00087E39EE00E94610FF701B182A08289E936
:1041D00094E093838283C7010E94BC1680910F0BE9
:1041E000882379F062E67FE0C7010E94AD1467EA98
:1041F00074E0C7010E94BD100E94110EC7010E9409
:1042000061108091620F9091630F40E050E0BA011D
:10421000009721F00E944A36AB01BC014093170B76
:104220005093180B6093190B70931A0B80910F0B1E
:10423000882339F022E087E39EE00E947B0E0E94F3
:104240000B0E64E372E082E69FE00E947314F701B4
:10425000B182A0828EEA94E093838283C7010E9498
:10426000BC168091620F9091630F009709F440C0D3
:104270000E944A366093000270930102809302020A
:104280009093030264E372E082E69FE00E9473145D
:1042900080910F0B882331F06AEB74E087E39EE096
:1042A0000E94610FF701B182A0828CEF98E09383A6
:1042B0008283C7010E94BC1680910F0B882379F07E
:1042C00062E67FE0C7010E94AD146EEC74E0C701A6
:1042D0000E94BD100E94110EC7010E94611064E38C
:1042E00072E082E69FE00E947314DD24D3944FCEE7
:1042F00060E070E0CB01BECFC0924009F2CD00007B
:10430000F0CD64E372E08CE59FE00E94731480912D
:104310000F0B882351F082ED94E00E946C0E6AEA44
:104320007FE087E39EE00E94F6016AEA7FE080E199
:1043300090E10E94F60163E674E0C8010E94B614A1
:104340004AE050E060E070E0C8010E941B1AC8011A
:104350000E94611083E0D82E1ACE1F93CF93DF9373
:1043600000D000D0CDB7DEB780910F0B882331F09D
:1043700068EC7FE087E39EE00E94F60168EC7FE056
:1043800080E190E10E94F60164E474E0CE010196C0
:104390000E94B61445E050E060E070E0CE01019666
:1043A0000E941B1A182FCE0101960E946110112342
:1043B000F1F062E370E080E090E00E941A040E9455
:1043C000BF1D811114C00E94691D882381F062E322
:1043D00070E080E090E00E941A040E94BF1D8823D4
:1043E00031F062E370E080E090E00E941A0480E027
:1043F00026960FB6F894DEBF0FBECDBFDF91CF91EA
:104400001F910895AF92BF92CF92DF92EF92FF92E9
:104410000F931F93CF93DF93CDB7DEB7CF50D2402A
:104420000FB6F894DEBF0FBECDBF80910F0B88236F
:1044300031F064ED7FE087E39EE00E94F60164EDD9
:104440007FE080E190E10E94F60161E474E08E017A
:104450000F5F1F4FC8010E94B61445E050E060E0B6
:1044600070E0C8010E941B1AF82EC8010E9461105A
:10447000FF2009F4C4C061E374E0C8010E94B614CF
:104480004AE050E060E070E0C8010E941B1AF82E7C
:10449000C8010E946110FF2009F4A5C080910F0B94
:1044A000882331F064EA7FE087E39EE00E94F60112
:1044B00064EA7FE080E190E10E94F6016BEF73E037
:1044C000C8010E94B6144AE050E060E070E0C80104
:1044D0000E941B1AF82EC8010E94611080910F0BD8
:1044E000FF2009F46EC0882331F06AED7FE087E396
:1044F0009EE00E94F6016AED7FE080E190E10E947B
:10450000F6016AE180E190E10E9471046CE374E0DD
:10451000C8010E94B6144AE050E060E070E0C801B3
:104520000E941B1AF82EC8010E946110FF2009F496
:1045300050C00E944C046B017C0182E0B82EAA247A
:10454000A3940E944C046C197D098E099F09603266
:104550007E448105910508F05EC080E190E10E94F3
:10456000CD04181619066CF780E190E10E94E5046D
:104570008093080B90EE980F9F3518F78B3709F052
:1045800050C0A092090B9091090B913009F04FC0D7
:1045900040910A0B50910B0B60910C0B70910D0B1D
:1045A000FA01EB5BF64F80834F5F5F4F6F4F7F4F9A
:1045B00040930A0B50930B0B60930C0B70930D0BF5
:1045C000C0CF882321F08BEE94E00E946C0E88E02F
:1045D00082C080910F0B882321F088EF94E00E9425
:1045E0006C0E83E078C00E94AD2180910F0B882370
:1045F00021F085E095E00E946C0E82E06CC00E9484
:10460000AD2180910F0B882321F082E195E00E947B
:104610006C0E81E060C080910F0B811129C187E091
:104620005AC08D3709F0AFCFB092090BACCF9230A2
:1046300009F087CF40910A0B50910B0B60910C0B46
:1046400070910D0BFA01EB5BF64F80834F5F5F4F6C
:104650006F4F7F4F4B5B564FFA01108210920A0B3F
:1046600010920B0B10920C0B10920D0B1092090B69
:1046700080910F0B882361F00E940B0E6CE474E0B4
:1046800087E39EE00E94610F85E499E00E946C0E32
:104690006AEA7FE080E190E10E94F60163E674E05F
:1046A000C8010E94B6144AE050E060E070E0C80122
:1046B0000E941B1AF82EC8010E946110F1101DC043
:1046C00080910F0B882321F08FE195E00E946C0E02
:1046D0000E94AD2184E0C15FDD4F0FB6F894DEBFCC
:1046E0000FBECDBFDF91CF911F910F91FF90EF9043
:1046F000DF90CF90BF90AF900895CE0109969C8334
:104700008B8380E092E09E838D8318861F8288EEE3
:1047100092E09A838983C75FDD4F19830883C9506C
:10472000D24085E499E0C55FDD4F99838883CB5003
:10473000D240C35FDD4F99838883CD50D2408AE059
:10474000C15FDD4F8883CF50D240CE01875F9D4F40
:104750000E94DF1718861F826CE275E00E944816DF
:104760008C01009709F473C0FC01E480F580F1E04E
:10477000EF16F10469F4FC0166817781611571051A
:1047800039F08BEA93E00E94373D892B09F45FC032
:10479000F1E0EF1AF10822E0E216F10408F057C048
:1047A000F8010681178180910F0B8823A9F068E337
:1047B00075E087E39EE00E94610F65E975E087E39D
:1047C0009EE00E94610FB80187E39EE00E94610FA6
:1047D00085E995E00E946C0E68E375E080E190E168
:1047E0000E94610F65E975E080E190E10E94610F30
:1047F000B80180E190E10E94610F65E975E080E118
:1048000090E10E94610F6CE975E080E190E10E9407
:10481000610F61E474E0CE01875F9D4F0E94B61482
:1048200045E050E060E070E0CE01875F9D4F0E9460
:104830001B1A182FCE01875F9D4F0E946110809137
:104840000F0B112339F0811109C085E044CF10E02E
:1048500000E0A9CF811107C086E03DCF81E495E05B
:104860000E946C0EF2CF83E595E00E946C0EF4CFAF
:1048700080E695E00E946C0ED2CE1F920F920FB68A
:104880000F9211240BB60F922F933F934F935F9388
:104890006F937F938F939F93AF93BF93EF93FF9308
:1048A00087E39EE00E947802FF91EF91BF91AF9164
:1048B0009F918F917F916F915F914F913F912F9138
:1048C0000F900BBE0F900FBE0F901F9018951F9268
:1048D0000F920FB60F9211240BB60F922F938F9356
:1048E0009F93EF93FF93E091470EF091480E8081E4
:1048F000E0914D0EF0914E0E82FD1DC09081809191
:10490000500E8F5F8F732091510E821741F0E0910E
:10491000500EF0E0E95CF14F958F8093500EFF91BF
:10492000EF919F918F912F910F900BBE0F900FBE23
:104930000F901F9018958081F2CF1F920F920FB6A3
:104940000F9211242F933F938F939F93AF93BF9315
:104950008091F60A9091F70AA091F80AB091F90AAD
:104960003091F50A23E0230F2D3758F50196A11D4C
:10497000B11D2093F50A8093F60A9093F70AA0934D
:10498000F80AB093F90A8091FA0A9091FB0AA09173
:10499000FC0AB091FD0A0196A11DB11D8093FA0A8F
:1049A0009093FB0AA093FC0AB093FD0ABF91AF91CC
:1049B0009F918F913F912F910F900FBE0F901F905D
:1049C000189526E8230F0296A11DB11DD2CF1F9284
:1049D0000F920FB60F9211240BB60F922F933F93A5
:1049E0004F935F936F937F938F939F93AF93BF93F7
:1049F000EF93FF93E0911602F09117021995FF9142
:104A0000EF91BF91AF919F918F917F916F915F9146
:104A10004F913F912F910F900BBE0F900FBE0F90B3
:104A20001F9018951F920F920FB60F9211240BB67C
:104A30000F922F933F934F935F936F937F938F9337
:104A40009F93AF93BF93EF93FF93E0911402F09184
:104A500015021995FF91EF91BF91AF919F918F91A1
:104A60007F916F915F914F913F912F910F900BBE6E
:104A70000F900FBE0F901F9018951F920F920FB6B8
:104A80000F9211240BB60F922F933F934F935F9386
:104A90006F937F938F939F93AF93BF93EF93FF9306
:104AA000E0910A02F0910B021995FF91EF91BF91ED
:104AB000AF919F918F917F916F915F914F913F91B6
:104AC0002F910F900BBE0F900FBE0F901F90189557
:104AD0001F920F920FB60F9211240BB60F922F93C5
:104AE0003F934F935F936F937F938F939F93AF9376
:104AF000BF93EF93FF93E0910802F091090219959B
:104B0000FF91EF91BF91AF919F918F917F916F91A5
:104B10005F914F913F912F910F900BBE0F900FBE61
:104B20000F901F9018951F920F920FB60F9211249D
:104B30000BB60F922F933F934F935F936F937F9397
:104B40008F939F93AF93BF93EF93FF93E0911202E4
:104B5000F09113021995FF91EF91BF91AF919F9141
:104B60008F917F916F915F914F913F912F910F9016
:104B70000BBE0F900FBE0F901F9018951F920F92B3
:104B80000FB60F9211240BB60F922F933F934F93B2
:104B90005F936F937F938F939F93AF93BF93EF93A5
:104BA000FF93E0911002F09111021995FF91EF919E
:104BB000BF91AF919F918F917F916F915F914F9135
:104BC0003F912F910F900BBE0F900FBE0F901F9033
:104BD00018951F920F920FB60F9211240BB60F92D9
:104BE0002F933F934F935F936F937F938F939F93F5
:104BF000AF93BF93EF93FF93E0910E02F0910F02FA
:104C00001995FF91EF91BF91AF919F918F917F91F6
:104C10006F915F914F913F912F910F900BBE0F902D
:104C20000FBE0F901F9018951F920F920FB60F9204
:104C300011240BB60F922F933F934F935F936F9373
:104C40007F938F939F93AF93BF93EF93FF93E091E5
:104C50000C02F0910D021995FF91EF91BF91AF9168
:104C60009F918F917F916F915F914F913F912F9184
:104C70000F900BBE0F900FBE0F901F9018951F92B4
:104C80000F920FB60F9211240BB60F922F933F93F2
:104C90004F935F936F937F938F939F93AF93BF9344
:104CA000EF93FF93E091E60CF091E70C309749F019
:104CB000A685B7858585968D91FF16C09C91892321
:104CC000B1F4FF91EF91BF91AF919F918F917F913F
:104CD0006F915F914F913F912F910F900BBE0F906D
:104CE0000FBE0F901F9018959C91892351F7A389AF
:104CF000B4899C918589809589238C93868997892D
:104D00000197F1F7608D718DA685B785558538E0DF
:104D100020E0CB010197F1F7822F90E095958795E0
:104D2000282F4C91452309F02068315091F7868D4A
:104D300081FD20958091E50C90E001968F73992775
:104D40003091E40C381799F0A091E50CB0E0AB5429
:104D5000B54F2C938093E50C828D938D0197F1F7DD
:104D6000A389B4898C919589892B8C93AACF868D40
:104D70008160868FF1CF1F920F920FB60F92112490
:104D80000BB60F922F933F934F935F936F937F9345
:104D90008F939F93AF93BF93EF93FF938091B9004D
:104DA000887F803609F44DC008F040C0883209F48D
:104DB000A9C028F5803109F49DC0C8F4882309F4FE
:104DC000FBC0883009F496C0FF91EF91BF91AF917D
:104DD0009F918F917F916F915F914F913F912F9113
:104DE0000F900BBE0F900FBE0F901F90189588313B
:104DF00009F488C0803241F780930B0E14C08034D0
:104E000009F49DC040F48033B9F38833E9F6809308
:104E10000B0E85ECB0C0803509F485C0883509F4E7
:104E200096C0883489F60E941016CECF883909F4CE
:104E30008CC038F5883729F050F4883611F0803767
:104E400019F683E080930D0E1092B40A57C088388B
:104E500009F47BC0803919F0803809F0B5CF809112
:104E6000B40A803208F071C0E091B40A81E08E0F7C
:104E70008093B40A8091BB00F0E0EC56F54F80833C
:104E80003DC0803B39F0E0F4803A09F479C0883ABB
:104E900009F09ACF84E080930D0E1092930A10923D
:104EA000920AE091010BF091020B19958091920A00
:104EB00081110FC081E08093920A1092720A09C09A
:104EC000803C09F4A6CF883C09F4A3CF883B09F0C5
:104ED0007BCFE091930A81E08E0F8093930AF0E0FC
:104EE000EE58F54F80818093BB009091930A80919A
:104EF000920A29C08091E80D8093BB0085EC8093D5
:104F0000BC0062CF90910A0E8091090E981758F557
:104F1000E0910A0E81E08E0F80930A0EF0E0E751D7
:104F2000F24F8081E9CFE0910A0E81E08E0F8093ED
:104F30000A0E8091BB00F0E0E751F24F8083909120
:104F40000A0E8091090E9817C8F285E8D8CFE09133
:104F50000A0E81E08E0F80930A0E8091BB00F0E074
:104F6000E751F24F808380910C0E81115CCF81E07C
:104F70008093E70D84EA8093BC0010920D0E24CF3D
:104F800085EC8093BC0010920D0E8091B40A8032A3
:104F900030F4E091B40AF0E0EC56F54F10826091E5
:104FA000B40A70E0E091FF0AF091000B84E99AE006
:104FB00019951092B40A08CF10920B0E34CFCF93EC
:104FC000DF9382E59FE00E9461108CE59FE00E94E4
:104FD000611082E69FE00E94611088E69FE00E94D7
:104FE00061108EE69FE00E94611084E79FE00E94BE
:104FF00061108AE79FE00E94611080E89FE00E94B4
:10500000611086E89FE00E946110C6EEDFE02697FF
:10501000CE010E9461108FE0CC38D807C1F786EE30
:105020009FE00E9461108CEE9FE00E94611082EF71
:105030009FE00E94611088EF9FE00E9461108EEF58
:105040009FE00E94611084E090E10E9461108AE07C
:1050500090E10E94611086ED92E090931110809390
:10506000101080E190E1DF91CF910C940605CF9371
:10507000DF9300D000D01F92CDB7DEB710923A0E6A
:105080001092390E48EE53E060E070E040933B0E22
:1050900050933C0E60933D0E70933E0E8AE992E071
:1050A0009093380E8093370E85EC90E09093440EE9
:1050B0008093430E84EC90E09093460E8093450ECF
:1050C00080EC90E09093480E8093470E81EC90E046
:1050D00090934A0E8093490E82EC90E090934C0E90
:1050E00080934B0E86EC90E090934E0E80934D0E85
:1050F0001092500E1092510E1092520E1092530EAA
:105100001092380F1092370F4093390F50933A0F87
:1051100060933B0F70933C0F8CEA92E09093360FB4
:105120008093350F8EEB92E09093420F8093410F66
:1051300085E39FE09093440F8093430F1092450FB7
:1051400081E49FE09093340F8093330F80E590E1EA
:1051500090934B1080934A1080E092E090934D1012
:1051600080934C1010924F1010924E1088EE92E0E7
:10517000909349108093481088E1E6E3F2E0AFE2B3
:10518000B0E101900D928A95E1F78EE1809347108E
:105190001092131010921210409314105093151087
:1051A000609316107093171086ED92E09093111093
:1051B0008093101010922710109226101092291030
:1051C0001092281010922B1010922A1010922D106D
:1051D00010922C1060912E106E7F6D7F60932E10B8
:1051E0006695617081E068278BE00E94380361E07A
:1051F0008BE00E94C403E4EEF2E0E491E09320101F
:10520000EEE9F2E0E491F0E0EE0FFF1FE758FD4F0A
:1052100085919491909322108093211060E08AE010
:105220000E94C40380912E1081FD04C061E08AE0D9
:105230000E9438038AE080931C10E3EEF2E0E491D0
:10524000E0931D10EDE9F2E0E491F0E0EE0FFF1FB6
:10525000E15AFD4F8591949190931F1080931E10F9
:1052600064E372E08AE090E10E94B6146DE675E0B6
:1052700084E090E10E94B61467E875E08EEF9FE04D
:105280000E94B61465ED73E0CE0101960E94B6143B
:105290006EEF7FE0CE0101960E94D31067E975E0C2
:1052A0000E94BD10BC0188EF9FE00E94AD14CE01AA
:1052B00001960E9461106FE975E082EF9FE00E9405
:1052C000B61465ED73E0CE0101960E94B61464E059
:1052D00070E1CE0101960E94D31068EE73E00E9447
:1052E000BD10BC018CEE9FE00E94AD14CE01019672
:1052F0000E94611064E372E086EE9FE00E94B614A3
:105300006EEB75E08CE89FE00E94B61465EC75E0EA
:1053100082E99FE00E94B6146AED75E088E99FE09B
:105320000E94B6146CEE7FE08EE99FE00E94AD14FF
:1053300065EE75E084EA9FE00E94B61462EF75E0C6
:105340008AEA9FE00E94B61460E076E080EB9FE07E
:105350000E94B6146BE076E086EB9FE00E94B614E4
:1053600064E176E08CEB9FE00E94B61460E276E0A8
:1053700082EC9FE00E94B6146DE276E088EC9FE03C
:105380000E94B6146AE376E08EEC9FE00E94B614A9
:1053900068EF7FE084ED9FE00E94AD1462EF7FE054
:1053A0008AED9FE00E94AD1468E476E080EE9FE015
:1053B0000E94B61463E576E086E89FE00E94B6148A
:1053C00069E976E080E89FE00E94B6146CEE76E032
:1053D0008AE79FE00E94B6146BEF76E084E79FE0D7
:1053E0000E94B6146CE077E08EE69FE00E94B6144F
:1053F0006BEC73E0CE0101960E94B6146EE67FE07E
:10540000CE0101960E94D310BC0188E69FE00E9465
:10541000AD14CE0101960E94611068EF72E082E641
:105420009FE00E94B61468EF72E08CE59FE00E9456
:10543000B6148091860F9091870F009711F488EF32
:1054400092E028E430E13A8329839C838B833E8376
:105450002D838AE08F83CE0101960E94FD189093E0
:105460005B0F80935A0F8091800F9091810F00976E
:1054700011F488EF92E028E430E13A8329839C8399
:105480008B833E832D838AE08F83CE0101960E9419
:10549000FD189093590F8093580F1092490F109256
:1054A000480F8AEC92E09093470F8093460F87E273
:1054B00080934A0F84E180934F0F84E08093500FD4
:1054C0001092510F68EF72E082E59FE00E94B614DF
:1054D00027960FB6F894DEBF0FBECDBFDF91CF91F8
:1054E0000895CF93DF93CDB7DEB764970FB6F894E6
:1054F000DEBF0FBECDBF789484B5826084BD84B515
:10550000816084BD85B5826085BD85B5816085BDBE
:1055100080916E00816080936E0010928100809176
:1055200081008260809381008091810081608093FE
:105530008100809180008160809380008091B10023
:1055400084608093B1008091B00081608093B0004E
:1055500080919100826080939100809191008160A0
:105560008093910080919000816080939000809161
:10557000A10082608093A1008091A100816080934E
:10558000A1008091A00081608093A0008091210102
:1055900082608093210180912101816080932101AB
:1055A0008091200181608093200180917A00846045
:1055B00080937A0080917A00826080937A00809153
:1055C0007A00816080937A0080917A00806880936D
:1055D0007A001092C10061E08CE00E94C40361E097
:1055E0008CE00E943803E091470EF091480E82E073
:1055F0008083E091430EF091440E1082E091450EBD
:10560000F091460E80E1808310924F0EE0914B0E98
:10561000F0914C0E86E08083E091490EF0914A0EA5
:10562000808180618083E091490EF0914A0E8081F3
:1056300088608083E091490EF0914A0E80818068F5
:105640008083E091490EF0914A0E80818F7D8083A6
:105650001092040B1092030B1092140E1092360E3F
:105660000E9438068AED91E09093020B8093010B23
:105670008BED91E09093000B8093FF0A10924B0FFB
:105680008091500F823018F098E090934B0F8093E8
:105690004E0F62E370E080E090E00E941A04609197
:1056A000510F86E49FE00E94D20868EE73E080E02C
:1056B00090E00E941A0460E386E49FE00E94680C78
:1056C0005BE4E52E56E4F52EC7010197F1F760E3A0
:1056D00086E49FE00E94680CC7010197F1F760E340
:1056E00086E49FE00E94680C83E592E00197F1F761
:1056F00060E286E49FE00E94680C60914B0F60625C
:1057000040E086E49FE00E94810C84E080934C0F8F
:1057100040E06CE086E49FE00E94810C0E94980CBF
:1057200082E080934D0F40E066E086E49FE00E94B7
:10573000810C40E062E086E49FE00E94810C8BE3F4
:105740009FE10197F1F788E08093510F60E086E4D4
:105750009FE00E94D20861E08CE10E94C40360E0F7
:105760008CE10E94380361E08BE10E94C40360E099
:105770008BE10E9438036E0127E0C20ED11C6BE55D
:10578000262E6CE0362E87E39EE00E9462021816F9
:105790001906C4F487E39EE00E9440029091C30C76
:1057A000E92FF0E0E15AF34F80838A3009F023C3F8
:1057B0001092C30C80915F0C8434D1F18CF583344A
:1057C00009F499C080915E0C811129C180913A0B36
:1057D000811123C00E94980C60E080E00E94A30C1D
:1057E0006FE777E086E49FE00E94610F61E080E070
:1057F0000E94A30C61E977E086E49FE00E94610FBC
:1058000063E080E00E94A30C65EA77E086E49FE015
:105810000E94610F81E080933A0B0E940703B3CF8F
:10582000853499F08F3471F681E080935E0CCACF95
:105830008091600C843431F0853421F681E08093CE
:105840000F0BC0CF10920F0BBDCF8091600C8E3428
:1058500029F18935F9F481E0809319020E94980CAE
:1058600060E080E00E94A30C62E177E086E49FE0C4
:105870000E94610F61E080E00E94A30C65E277E086
:1058800086E49FE00E94610F68EE73E080E090E0A4
:105890000E941A0481E080935D0C94CF109219024B
:1058A0000E94980C60E080E00E94A30C69E377E01E
:1058B00086E49FE00E94610F61E080E00E94A30CFB
:1058C0006CE477E086E49FE00E94610F62E080E094
:1058D0000E94A30C62E177E086E49FE00E94610FE2
:1058E00063E080E00E94A30C6BE577E086E49FE034
:1058F0000E94610FCFCF8091600C893481F1823595
:1059000009F060CF8091610C843591F0893551F0B8
:105910008E3409F057CF10925C0C10925B0C0E94F1
:10592000690F16C081E080935C0C80935B0C4ACFBA
:1059300010925C0C10925B0C0E94980C60E080E06E
:105940000E94A30C6CE677E086E49FE00E94610F62
:1059500068E873E180E090E00E941A0433CF809100
:10596000610C833409F427C2E4F4813409F404C2DD
:10597000A2E6BCE0EFE4FCE0823409F023CF8D9195
:1059800081938A3009F012C28FE49CE00E944A366B
:1059900060934B0C70934C0C80934D0C90934E0C79
:1059A00011CF8D3431F18E3409F00CCF8091620C1F
:1059B00080933A0C8091630C80933B0C8091640C33
:1059C00080933C0C8091650C80933D0C8091660C1B
:1059D00080933E0C6AE37CE0CE0101960E94B614EF
:1059E000CE0101960E94C714CE0101960E9461105B
:1059F000E9CE22E63CE0A8EEBCE0AD01485E5C40AA
:105A0000F90181919F018D938A30B9F7FA01E8512C
:105A1000F34F108280915E0C882309F480CF80912F
:105A20001802882309F4B4C260E875E280E090E0CF
:105A30000E941C0561E080E30E94C40361E080E3F2
:105A40000E9438030E944C042B013C010E944C042C
:105A5000641975098609970968397A4381059105A2
:105A600008F052C068EE73E080E090E00E941A04F3
:105A700080910F0B882321F08AEB97E00E946C0E37
:105A800080910F0B882331F06EEC7FE087E39EE07E
:105A90000E94F6016EEC7FE080E190E10E94F60149
:105AA00061E474E0CE0101960E94B61442E050E039
:105AB00060E070E0CE0101960E941B1A082FCE0113
:105AC00001960E94611080E190E1002309F497C1E2
:105AD0000E94060564E670E080E090E00E941A04EF
